{
  "contractName": "TokenSale",
  "abi": [
    {
      "constant": true,
      "inputs": [],
      "name": "presale_WeiRaised",
      "outputs": [
        {
          "name": "",
          "type": "uint256"
        }
      ],
      "payable": false,
      "stateMutability": "view",
      "type": "function"
    },
    {
      "constant": true,
      "inputs": [],
      "name": "rate",
      "outputs": [
        {
          "name": "",
          "type": "uint256"
        }
      ],
      "payable": false,
      "stateMutability": "view",
      "type": "function"
    },
    {
      "constant": false,
      "inputs": [],
      "name": "unpause",
      "outputs": [],
      "payable": false,
      "stateMutability": "nonpayable",
      "type": "function"
    },
    {
      "constant": true,
      "inputs": [],
      "name": "weiRaised",
      "outputs": [
        {
          "name": "",
          "type": "uint256"
        }
      ],
      "payable": false,
      "stateMutability": "view",
      "type": "function"
    },
    {
      "constant": true,
      "inputs": [
        {
          "name": "",
          "type": "address"
        }
      ],
      "name": "contributions",
      "outputs": [
        {
          "name": "",
          "type": "uint256"
        }
      ],
      "payable": false,
      "stateMutability": "view",
      "type": "function"
    },
    {
      "constant": true,
      "inputs": [],
      "name": "publicSale_WeiRaised",
      "outputs": [
        {
          "name": "",
          "type": "uint256"
        }
      ],
      "payable": false,
      "stateMutability": "view",
      "type": "function"
    },
    {
      "constant": true,
      "inputs": [],
      "name": "wallet",
      "outputs": [
        {
          "name": "",
          "type": "address"
        }
      ],
      "payable": false,
      "stateMutability": "view",
      "type": "function"
    },
    {
      "constant": true,
      "inputs": [],
      "name": "publicSale_TokesSold",
      "outputs": [
        {
          "name": "",
          "type": "uint256"
        }
      ],
      "payable": false,
      "stateMutability": "view",
      "type": "function"
    },
    {
      "constant": true,
      "inputs": [],
      "name": "publicSale_TokenCap",
      "outputs": [
        {
          "name": "",
          "type": "uint256"
        }
      ],
      "payable": false,
      "stateMutability": "view",
      "type": "function"
    },
    {
      "constant": true,
      "inputs": [],
      "name": "currentStage",
      "outputs": [
        {
          "name": "",
          "type": "uint8"
        }
      ],
      "payable": false,
      "stateMutability": "view",
      "type": "function"
    },
    {
      "constant": true,
      "inputs": [],
      "name": "paused",
      "outputs": [
        {
          "name": "",
          "type": "bool"
        }
      ],
      "payable": false,
      "stateMutability": "view",
      "type": "function"
    },
    {
      "constant": true,
      "inputs": [],
      "name": "publicSale_StartDate",
      "outputs": [
        {
          "name": "",
          "type": "uint256"
        }
      ],
      "payable": false,
      "stateMutability": "view",
      "type": "function"
    },
    {
      "constant": true,
      "inputs": [],
      "name": "presale_TokenCap",
      "outputs": [
        {
          "name": "",
          "type": "uint256"
        }
      ],
      "payable": false,
      "stateMutability": "view",
      "type": "function"
    },
    {
      "constant": false,
      "inputs": [],
      "name": "pause",
      "outputs": [],
      "payable": false,
      "stateMutability": "nonpayable",
      "type": "function"
    },
    {
      "constant": false,
      "inputs": [
        {
          "name": "_beneficiary",
          "type": "address"
        }
      ],
      "name": "removeFromWhitelist",
      "outputs": [],
      "payable": false,
      "stateMutability": "nonpayable",
      "type": "function"
    },
    {
      "constant": true,
      "inputs": [],
      "name": "presale_TokesSold",
      "outputs": [
        {
          "name": "",
          "type": "uint256"
        }
      ],
      "payable": false,
      "stateMutability": "view",
      "type": "function"
    },
    {
      "constant": false,
      "inputs": [
        {
          "name": "_beneficiaries",
          "type": "address[]"
        }
      ],
      "name": "addManyToWhitelist",
      "outputs": [],
      "payable": false,
      "stateMutability": "nonpayable",
      "type": "function"
    },
    {
      "constant": true,
      "inputs": [],
      "name": "owner",
      "outputs": [
        {
          "name": "",
          "type": "address"
        }
      ],
      "payable": false,
      "stateMutability": "view",
      "type": "function"
    },
    {
      "constant": true,
      "inputs": [
        {
          "name": "maxPercentage",
          "type": "uint256"
        }
      ],
      "name": "checkPercentages",
      "outputs": [
        {
          "name": "check",
          "type": "bool"
        }
      ],
      "payable": false,
      "stateMutability": "view",
      "type": "function"
    },
    {
      "constant": true,
      "inputs": [],
      "name": "minimumContribution",
      "outputs": [
        {
          "name": "",
          "type": "uint256"
        }
      ],
      "payable": false,
      "stateMutability": "view",
      "type": "function"
    },
    {
      "constant": true,
      "inputs": [
        {
          "name": "",
          "type": "address"
        }
      ],
      "name": "whitelist",
      "outputs": [
        {
          "name": "",
          "type": "bool"
        }
      ],
      "payable": false,
      "stateMutability": "view",
      "type": "function"
    },
    {
      "constant": true,
      "inputs": [],
      "name": "maximumContribution",
      "outputs": [
        {
          "name": "",
          "type": "uint256"
        }
      ],
      "payable": false,
      "stateMutability": "view",
      "type": "function"
    },
    {
      "constant": true,
      "inputs": [
        {
          "name": "",
          "type": "address"
        }
      ],
      "name": "percentages",
      "outputs": [
        {
          "name": "",
          "type": "uint256"
        }
      ],
      "payable": false,
      "stateMutability": "view",
      "type": "function"
    },
    {
      "constant": true,
      "inputs": [],
      "name": "presale_Cap",
      "outputs": [
        {
          "name": "",
          "type": "uint256"
        }
      ],
      "payable": false,
      "stateMutability": "view",
      "type": "function"
    },
    {
      "constant": true,
      "inputs": [],
      "name": "presale_StartDate",
      "outputs": [
        {
          "name": "",
          "type": "uint256"
        }
      ],
      "payable": false,
      "stateMutability": "view",
      "type": "function"
    },
    {
      "constant": true,
      "inputs": [
        {
          "name": "",
          "type": "uint256"
        }
      ],
      "name": "partners",
      "outputs": [
        {
          "name": "",
          "type": "address"
        }
      ],
      "payable": false,
      "stateMutability": "view",
      "type": "function"
    },
    {
      "constant": true,
      "inputs": [],
      "name": "presale_EndDate",
      "outputs": [
        {
          "name": "",
          "type": "uint256"
        }
      ],
      "payable": false,
      "stateMutability": "view",
      "type": "function"
    },
    {
      "constant": true,
      "inputs": [],
      "name": "publicSale_Cap",
      "outputs": [
        {
          "name": "",
          "type": "uint256"
        }
      ],
      "payable": false,
      "stateMutability": "view",
      "type": "function"
    },
    {
      "constant": false,
      "inputs": [
        {
          "name": "_beneficiary",
          "type": "address"
        }
      ],
      "name": "addToWhitelist",
      "outputs": [],
      "payable": false,
      "stateMutability": "nonpayable",
      "type": "function"
    },
    {
      "constant": true,
      "inputs": [],
      "name": "publicSale_EndDate",
      "outputs": [
        {
          "name": "",
          "type": "uint256"
        }
      ],
      "payable": false,
      "stateMutability": "view",
      "type": "function"
    },
    {
      "constant": false,
      "inputs": [
        {
          "name": "_beneficiary",
          "type": "address"
        }
      ],
      "name": "buyTokens",
      "outputs": [],
      "payable": true,
      "stateMutability": "payable",
      "type": "function"
    },
    {
      "constant": false,
      "inputs": [
        {
          "name": "newOwner",
          "type": "address"
        }
      ],
      "name": "transferOwnership",
      "outputs": [],
      "payable": false,
      "stateMutability": "nonpayable",
      "type": "function"
    },
    {
      "constant": true,
      "inputs": [],
      "name": "token",
      "outputs": [
        {
          "name": "",
          "type": "address"
        }
      ],
      "payable": false,
      "stateMutability": "view",
      "type": "function"
    },
    {
      "inputs": [
        {
          "name": "_rate",
          "type": "uint256"
        },
        {
          "name": "_wallet",
          "type": "address"
        },
        {
          "name": "_token",
          "type": "address"
        },
        {
          "name": "presaleCap",
          "type": "uint256"
        },
        {
          "name": "publicCap",
          "type": "uint256"
        }
      ],
      "payable": false,
      "stateMutability": "nonpayable",
      "type": "constructor"
    },
    {
      "payable": true,
      "stateMutability": "payable",
      "type": "fallback"
    },
    {
      "anonymous": false,
      "inputs": [
        {
          "indexed": false,
          "name": "value",
          "type": "uint256"
        }
      ],
      "name": "DEBUG",
      "type": "event"
    },
    {
      "anonymous": false,
      "inputs": [],
      "name": "Pause",
      "type": "event"
    },
    {
      "anonymous": false,
      "inputs": [],
      "name": "Unpause",
      "type": "event"
    },
    {
      "anonymous": false,
      "inputs": [
        {
          "indexed": true,
          "name": "previousOwner",
          "type": "address"
        },
        {
          "indexed": true,
          "name": "newOwner",
          "type": "address"
        }
      ],
      "name": "OwnershipTransferred",
      "type": "event"
    },
    {
      "anonymous": false,
      "inputs": [
        {
          "indexed": true,
          "name": "purchaser",
          "type": "address"
        },
        {
          "indexed": true,
          "name": "beneficiary",
          "type": "address"
        },
        {
          "indexed": false,
          "name": "value",
          "type": "uint256"
        },
        {
          "indexed": false,
          "name": "amount",
          "type": "uint256"
        }
      ],
      "name": "TokenPurchase",
      "type": "event"
    },
    {
      "constant": false,
      "inputs": [],
      "name": "updateStage",
      "outputs": [],
      "payable": false,
      "stateMutability": "nonpayable",
      "type": "function"
    },
    {
      "constant": false,
      "inputs": [
        {
          "name": "initialDate",
          "type": "uint256"
        },
        {
          "name": "tokenAddress",
          "type": "address"
        }
      ],
      "name": "setupSale",
      "outputs": [],
      "payable": false,
      "stateMutability": "nonpayable",
      "type": "function"
    },
    {
      "constant": false,
      "inputs": [],
      "name": "getCurrentCap",
      "outputs": [
        {
          "name": "cap",
          "type": "uint256"
        }
      ],
      "payable": false,
      "stateMutability": "nonpayable",
      "type": "function"
    },
    {
      "constant": false,
      "inputs": [],
      "name": "getRaisedForCurrentStage",
      "outputs": [
        {
          "name": "raised",
          "type": "uint256"
        }
      ],
      "payable": false,
      "stateMutability": "nonpayable",
      "type": "function"
    },
    {
      "constant": false,
      "inputs": [],
      "name": "saleOpen",
      "outputs": [
        {
          "name": "open",
          "type": "bool"
        }
      ],
      "payable": false,
      "stateMutability": "nonpayable",
      "type": "function"
    },
    {
      "constant": false,
      "inputs": [],
      "name": "distributeTokens",
      "outputs": [],
      "payable": false,
      "stateMutability": "nonpayable",
      "type": "function"
    }
  ],
  "bytecode": "0x60806040526000600660006101000a81548160ff02191690831515021790555061014060405190810160405280600160ff168152602001600260ff168152602001600360ff168152602001600460ff168152602001600560ff168152602001600660ff168152602001600760ff168152602001600860ff168152602001600960ff168152602001601060ff16815250600790600a620000a09291906200048e565b50348015620000ae57600080fd5b5060405160a08062002cc483398101806040528101908080519060200190929190805190602001909291908051906020019092919080519060200190929190805190602001909291905050508484846000831115156200010d57600080fd5b600073ffffffffffffffffffffffffffffffffffffffff168273ffffffffffffffffffffffffffffffffffffffff16141515156200014a57600080fd5b600073ffffffffffffffffffffffffffffffffffffffff168173ffffffffffffffffffffffffffffffffffffffff16141515156200018757600080fd5b8260028190555081600160006101000a81548173ffffffffffffffffffffffffffffffffffffffff021916908373ffffffffffffffffffffffffffffffffffffffff160217905550806000806101000a81548173ffffffffffffffffffffffffffffffffffffffff021916908373ffffffffffffffffffffffffffffffffffffffff16021790555050505033600460006101000a81548173ffffffffffffffffffffffffffffffffffffffff021916908373ffffffffffffffffffffffffffffffffffffffff160217905550600160086000600173ffffffffffffffffffffffffffffffffffffffff16815260200190815260200160002081905550600160086000600273ffffffffffffffffffffffffffffffffffffffff16815260200190815260200160002081905550600160086000600373ffffffffffffffffffffffffffffffffffffffff16815260200190815260200160002081905550600160086000600473ffffffffffffffffffffffffffffffffffffffff16815260200190815260200160002081905550600160086000600573ffffffffffffffffffffffffffffffffffffffff16815260200190815260200160002081905550600160086000600673ffffffffffffffffffffffffffffffffffffffff16815260200190815260200160002081905550600160086000600773ffffffffffffffffffffffffffffffffffffffff16815260200190815260200160002081905550600160086000600873ffffffffffffffffffffffffffffffffffffffff16815260200190815260200160002081905550600160086000600973ffffffffffffffffffffffffffffffffffffffff16815260200190815260200160002081905550600160086000601073ffffffffffffffffffffffffffffffffffffffff168152602001908152602001600020819055506a0152d02c7e14af6800000060108190555069a968163f0a57b400000060168190555081600f81905550806015819055506706f05b59d3b20000600b8190555068056bc75e2d63100000600c81905550505050505062000550565b828054828255906000526020600020908101928215620004f7579160200282015b82811115620004f65782518260006101000a81548173ffffffffffffffffffffffffffffffffffffffff021916908360ff16021790555091602001919060010190620004af565b5b5090506200050691906200050a565b5090565b6200054d91905b808211156200054957600081816101000a81549073ffffffffffffffffffffffffffffffffffffffff02191690555060010162000511565b5090565b90565b61276480620005606000396000f3006080604052600436106101e3576000357c0100000000000000000000000000000000000000000000000000000000900463ffffffff16806313922fc3146101ee5780632c4e722e146102195780633f4ba83a146102445780634042b66f1461025b57806342e94c90146102865780634423ef18146102dd578063521eb2731461030857806354d96eff1461035f578063570389dc1461038a5780635bf5d54c146103b55780635c975abb146103ee57806368436f151461041d5780638293cff7146104485780638456cb59146104735780638ab1d6811461048a5780638b369cdb146104cd5780638c10671c146104f85780638da5cb5b14610533578063923a53411461058a578063937e09b1146105cf57806399288dbb146105fa5780639ab1b484146106295780639b19251a146106405780639c2fcd451461069b5780639d592c66146106c6578063aa72f6511461071d578063b683b96b14610748578063bd3e740114610773578063c062f578146107c0578063c11efcdc146107d7578063c3b49d0414610802578063c8af3bd61461086f578063d79448451461089a578063d8c30700146108c5578063e43252d7146108f0578063ea334e2714610933578063ec8ac4d81461095e578063f2fde38b14610994578063fc0c546a146109d7575b6101ec33610a2e565b005b3480156101fa57600080fd5b50610203610afc565b6040518082815260200191505060405180910390f35b34801561022557600080fd5b5061022e610b02565b6040518082815260200191505060405180910390f35b34801561025057600080fd5b50610259610b08565b005b34801561026757600080fd5b50610270610bc8565b6040518082815260200191505060405180910390f35b34801561029257600080fd5b506102c7600480360381019080803573ffffffffffffffffffffffffffffffffffffffff169060200190929190505050610bce565b6040518082815260200191505060405180910390f35b3480156102e957600080fd5b506102f2610be6565b6040518082815260200191505060405180910390f35b34801561031457600080fd5b5061031d610bec565b604051808273ffffffffffffffffffffffffffffffffffffffff1673ffffffffffffffffffffffffffffffffffffffff16815260200191505060405180910390f35b34801561036b57600080fd5b50610374610c12565b6040518082815260200191505060405180910390f35b34801561039657600080fd5b5061039f610c18565b6040518082815260200191505060405180910390f35b3480156103c157600080fd5b506103ca610c1e565b604051808260058111156103da57fe5b60ff16815260200191505060405180910390f35b3480156103fa57600080fd5b50610403610c31565b604051808215151515815260200191505060405180910390f35b34801561042957600080fd5b50610432610c44565b6040518082815260200191505060405180910390f35b34801561045457600080fd5b5061045d610c4a565b6040518082815260200191505060405180910390f35b34801561047f57600080fd5b50610488610c50565b005b34801561049657600080fd5b506104cb600480360381019080803573ffffffffffffffffffffffffffffffffffffffff169060200190929190505050610d11565b005b3480156104d957600080fd5b506104e2610dc8565b6040518082815260200191505060405180910390f35b34801561050457600080fd5b50610531600480360381019080803590602001908201803590602001919091929391929390505050610dce565b005b34801561053f57600080fd5b50610548610ed0565b604051808273ffffffffffffffffffffffffffffffffffffffff1673ffffffffffffffffffffffffffffffffffffffff16815260200191505060405180910390f35b34801561059657600080fd5b506105b560048036038101908080359060200190929190505050610ef6565b604051808215151515815260200191505060405180910390f35b3480156105db57600080fd5b506105e4610fb7565b6040518082815260200191505060405180910390f35b34801561060657600080fd5b5061060f610fbd565b604051808215151515815260200191505060405180910390f35b34801561063557600080fd5b5061063e6111a2565b005b34801561064c57600080fd5b50610681600480360381019080803573ffffffffffffffffffffffffffffffffffffffff169060200190929190505050611402565b604051808215151515815260200191505060405180910390f35b3480156106a757600080fd5b506106b0611422565b6040518082815260200191505060405180910390f35b3480156106d257600080fd5b50610707600480360381019080803573ffffffffffffffffffffffffffffffffffffffff169060200190929190505050611428565b6040518082815260200191505060405180910390f35b34801561072957600080fd5b50610732611440565b6040518082815260200191505060405180910390f35b34801561075457600080fd5b5061075d611446565b6040518082815260200191505060405180910390f35b34801561077f57600080fd5b506107be60048036038101908080359060200190929190803573ffffffffffffffffffffffffffffffffffffffff16906020019092919050505061144c565b005b3480156107cc57600080fd5b506107d5611518565b005b3480156107e357600080fd5b506107ec611748565b6040518082815260200191505060405180910390f35b34801561080e57600080fd5b5061082d60048036038101908080359060200190929190505050611786565b604051808273ffffffffffffffffffffffffffffffffffffffff1673ffffffffffffffffffffffffffffffffffffffff16815260200191505060405180910390f35b34801561087b57600080fd5b506108846117c4565b6040518082815260200191505060405180910390f35b3480156108a657600080fd5b506108af6117ca565b6040518082815260200191505060405180910390f35b3480156108d157600080fd5b506108da6117d0565b6040518082815260200191505060405180910390f35b3480156108fc57600080fd5b50610931600480360381019080803573ffffffffffffffffffffffffffffffffffffffff16906020019092919050505061180e565b005b34801561093f57600080fd5b506109486118c5565b6040518082815260200191505060405180910390f35b610992600480360381019080803573ffffffffffffffffffffffffffffffffffffffff169060200190929190505050610a2e565b005b3480156109a057600080fd5b506109d5600480360381019080803573ffffffffffffffffffffffffffffffffffffffff1690602001909291905050506118cb565b005b3480156109e357600080fd5b506109ec611a23565b604051808273ffffffffffffffffffffffffffffffffffffffff1673ffffffffffffffffffffffffffffffffffffffff16815260200191505060405180910390f35b600080349150610a3e8383611a48565b610a4782611d26565b9050610a5e82600354611dd690919063ffffffff16565b600381905550610a6e8382611df2565b8273ffffffffffffffffffffffffffffffffffffffff163373ffffffffffffffffffffffffffffffffffffffff167f623b3804fa71d67900d064613da8f94b9617215ee90799290593e1745087ad188484604051808381526020018281526020019250505060405180910390a3610ae58383611e00565b610aed611ead565b610af78383611f2c565b505050565b60125481565b60025481565b600460009054906101000a900473ffffffffffffffffffffffffffffffffffffffff1673ffffffffffffffffffffffffffffffffffffffff163373ffffffffffffffffffffffffffffffffffffffff16141515610b6457600080fd5b600660009054906101000a900460ff161515610b7f57600080fd5b6000600660006101000a81548160ff0219169083151502179055507f7805862f689e2f13df9f062ff482ad3ad112aca9e0847911ed832e158c525b3360405160405180910390a1565b60035481565b60096020528060005260406000206000915090505481565b60185481565b600160009054906101000a900473ffffffffffffffffffffffffffffffffffffffff1681565b60175481565b60165481565b600a60009054906101000a900460ff1681565b600660009054906101000a900460ff1681565b60135481565b60105481565b600460009054906101000a900473ffffffffffffffffffffffffffffffffffffffff1673ffffffffffffffffffffffffffffffffffffffff163373ffffffffffffffffffffffffffffffffffffffff16141515610cac57600080fd5b600660009054906101000a900460ff16151515610cc857600080fd5b6001600660006101000a81548160ff0219169083151502179055507f6985a02210a168e66602d3235cb6db0e70f92b3ba4d376a33c0f3d9434bff62560405160405180910390a1565b600460009054906101000a900473ffffffffffffffffffffffffffffffffffffffff1673ffffffffffffffffffffffffffffffffffffffff163373ffffffffffffffffffffffffffffffffffffffff16141515610d6d57600080fd5b6000600560008373ffffffffffffffffffffffffffffffffffffffff1673ffffffffffffffffffffffffffffffffffffffff16815260200190815260200160002060006101000a81548160ff02191690831515021790555050565b60115481565b6000600460009054906101000a900473ffffffffffffffffffffffffffffffffffffffff1673ffffffffffffffffffffffffffffffffffffffff163373ffffffffffffffffffffffffffffffffffffffff16141515610e2c57600080fd5b600090505b82829050811015610ecb576001600560008585858181101515610e5057fe5b9050602002013573ffffffffffffffffffffffffffffffffffffffff1673ffffffffffffffffffffffffffffffffffffffff1673ffffffffffffffffffffffffffffffffffffffff16815260200190815260200160002060006101000a81548160ff0219169083151502179055508080600101915050610e31565b505050565b600460009054906101000a900473ffffffffffffffffffffffffffffffffffffffff1681565b6000806000809150600090505b600780549050811015610faa57610f9b60086000600784815481101515610f2657fe5b9060005260206000200160009054906101000a900473ffffffffffffffffffffffffffffffffffffffff1673ffffffffffffffffffffffffffffffffffffffff1673ffffffffffffffffffffffffffffffffffffffff1681526020019081526020016000205483611dd690919063ffffffff16565b91508080600101915050610f03565b8382111592505050919050565b600b5481565b600060016005811115610fcc57fe5b600a60009054906101000a900460ff166005811115610fe757fe5b148015610ff65750600d544210155b15611020576002600a60006101000a81548160ff0219169083600581111561101a57fe5b02179055505b6002600581111561102d57fe5b600a60009054906101000a900460ff16600581111561104857fe5b1480156110565750600e5442115b15611064576110636120d0565b5b6003600581111561107157fe5b600a60009054906101000a900460ff16600581111561108c57fe5b14801561109f5750620d2f00600e540142115b156110c9576004600a60006101000a81548160ff021916908360058111156110c357fe5b02179055505b600460058111156110d657fe5b600a60009054906101000a900460ff1660058111156110f157fe5b1480156110ff575060145442115b1561110d5761110c6121c5565b5b600d5442101580156111215750600e544211155b8061113c5750601354421015801561113b57506014544211155b5b801561119d57506002600581111561115057fe5b600a60009054906101000a900460ff16600581111561116b57fe5b148061119c57506004600581111561117f57fe5b600a60009054906101000a900460ff16600581111561119a57fe5b145b5b905090565b6000806000600460009054906101000a900473ffffffffffffffffffffffffffffffffffffffff1673ffffffffffffffffffffffffffffffffffffffff163373ffffffffffffffffffffffffffffffffffffffff1614151561120357600080fd5b600580600581111561121157fe5b600a60009054906101000a900460ff16600581111561122c57fe5b14151561123857600080fd5b6112426028610ef6565b151561124d57600080fd5b61128a600661127c600a61126e601754601154611dd690919063ffffffff16565b61230390919063ffffffff16565b61233b90919063ffffffff16565b9350600092505b6007805490508310156113fc5761133c606461132e86600860006007898154811015156112ba57fe5b9060005260206000200160009054906101000a900473ffffffffffffffffffffffffffffffffffffffff1673ffffffffffffffffffffffffffffffffffffffff1673ffffffffffffffffffffffffffffffffffffffff1681526020019081526020016000205461230390919063ffffffff16565b61233b90919063ffffffff16565b91507fc49f4577d82551ff1f72bc82d04f946a8f1be62ed7ce98cdee33856f82435026836040518082815260200191505060405180910390a17fc49f4577d82551ff1f72bc82d04f946a8f1be62ed7ce98cdee33856f82435026826040518082815260200191505060405180910390a16113ef6007848154811015156113be57fe5b9060005260206000200160009054906101000a900473ffffffffffffffffffffffffffffffffffffffff1683612351565b8280600101935050611291565b50505050565b60056020528060005260406000206000915054906101000a900460ff1681565b600c5481565b60086020528060005260406000206000915090505481565b600f5481565b600d5481565b600460009054906101000a900473ffffffffffffffffffffffffffffffffffffffff1673ffffffffffffffffffffffffffffffffffffffff163373ffffffffffffffffffffffffffffffffffffffff161415156114a857600080fd5b60008060058111156114b657fe5b600a60009054906101000a900460ff1660058111156114d157fe5b1415156114dd57600080fd5b6114e68261245f565b6114ef83612675565b6001600a60006101000a81548160ff0219169083600581111561150e57fe5b0217905550505050565b6001600581111561152557fe5b600a60009054906101000a900460ff16600581111561154057fe5b14801561154f5750600d544210155b15611579576002600a60006101000a81548160ff0219169083600581111561157357fe5b02179055505b6002600581111561158657fe5b600a60009054906101000a900460ff1660058111156115a157fe5b1480156115af5750600e5442115b156115bd576115bc6120d0565b5b600360058111156115ca57fe5b600a60009054906101000a900460ff1660058111156115e557fe5b1480156115f85750620d2f00600e540142115b15611622576004600a60006101000a81548160ff0219169083600581111561161c57fe5b02179055505b6004600581111561162f57fe5b600a60009054906101000a900460ff16600581111561164a57fe5b148015611658575060145442115b15611666576116656121c5565b5b6002600581111561167357fe5b600a60009054906101000a900460ff16600581111561168e57fe5b14156116be57600b546116ae600354600f5461271f90919063ffffffff16565b10156116bd576116bc6120d0565b5b5b600460058111156116cb57fe5b600a60009054906101000a900460ff1660058111156116e657fe5b141561174657600b5461171a60035461170c600f54601554611dd690919063ffffffff16565b61271f90919063ffffffff16565b1015611745576005600a60006101000a81548160ff0219169083600581111561173f57fe5b02179055505b5b565b600060125490506004600581111561175c57fe5b600a60009054906101000a900460ff16600581111561177757fe5b14156117835760185490505b90565b60078181548110151561179557fe5b906000526020600020016000915054906101000a900473ffffffffffffffffffffffffffffffffffffffff1681565b600e5481565b60155481565b6000600f549050600460058111156117e457fe5b600a60009054906101000a900460ff1660058111156117ff57fe5b141561180b5760155490505b90565b600460009054906101000a900473ffffffffffffffffffffffffffffffffffffffff1673ffffffffffffffffffffffffffffffffffffffff163373ffffffffffffffffffffffffffffffffffffffff1614151561186a57600080fd5b6001600560008373ffffffffffffffffffffffffffffffffffffffff1673ffffffffffffffffffffffffffffffffffffffff16815260200190815260200160002060006101000a81548160ff02191690831515021790555050565b60145481565b600460009054906101000a900473ffffffffffffffffffffffffffffffffffffffff1673ffffffffffffffffffffffffffffffffffffffff163373ffffffffffffffffffffffffffffffffffffffff1614151561192757600080fd5b600073ffffffffffffffffffffffffffffffffffffffff168173ffffffffffffffffffffffffffffffffffffffff161415151561196357600080fd5b8073ffffffffffffffffffffffffffffffffffffffff16600460009054906101000a900473ffffffffffffffffffffffffffffffffffffffff1673ffffffffffffffffffffffffffffffffffffffff167f8be0079c531659141344cd1fd0a4f28419497f9722a3daafe3b4186f6b6457e060405160405180910390a380600460006101000a81548173ffffffffffffffffffffffffffffffffffffffff021916908373ffffffffffffffffffffffffffffffffffffffff16021790555050565b6000809054906101000a900473ffffffffffffffffffffffffffffffffffffffff1681565b600080600084600560008273ffffffffffffffffffffffffffffffffffffffff1673ffffffffffffffffffffffffffffffffffffffff16815260200190815260200160002060009054906101000a900460ff161515611aa657600080fd5b611aae610fbd565b1515611b22576040517f08c379a000000000000000000000000000000000000000000000000000000000815260040180806020018281038252600e8152602001807f53616c6520697320436c6f73656400000000000000000000000000000000000081525060200191505060405180910390fd5b849350600c54611b7a85600960008a73ffffffffffffffffffffffffffffffffffffffff1673ffffffffffffffffffffffffffffffffffffffff16815260200190815260200160002054611dd690919063ffffffff16565b1115611c0457611be6600c54611bd886600960008b73ffffffffffffffffffffffffffffffffffffffff1673ffffffffffffffffffffffffffffffffffffffff16815260200190815260200160002054611dd690919063ffffffff16565b61271f90919063ffffffff16565b601981905550611c016019548561271f90919063ffffffff16565b93505b611c0c6117d0565b9250611c16611748565b915082611c2c8584611dd690919063ffffffff16565b1115611ca457611c6b611c5a84611c4c8786611dd690919063ffffffff16565b61271f90919063ffffffff16565b601954611dd690919063ffffffff16565b601981905550611c866019548661271f90919063ffffffff16565b93506001601a60006101000a81548160ff0219169083151502179055505b600b548410151515611d1e576040517f08c379a000000000000000000000000000000000000000000000000000000000815260040180806020018281038252601a8152602001807f436f6e747269627574696f6e2062656c6f77206d696e696d756d00000000000081525060200191505060405180910390fd5b505050505050565b6000611d65600254611d576103e8611d496019548761271f90919063ffffffff16565b61230390919063ffffffff16565b61233b90919063ffffffff16565b905060026005811115611d7457fe5b600a60009054906101000a900460ff166005811115611d8f57fe5b1415611dd157611dce611dbf6064611db160198561230390919063ffffffff16565b61233b90919063ffffffff16565b82611dd690919063ffffffff16565b90505b919050565b60008183019050828110151515611de957fe5b80905092915050565b611dfc8282612351565b5050565b611e66601954611e5883600960008773ffffffffffffffffffffffffffffffffffffffff1673ffffffffffffffffffffffffffffffffffffffff16815260200190815260200160002054611dd690919063ffffffff16565b61271f90919063ffffffff16565b600960008473ffffffffffffffffffffffffffffffffffffffff1673ffffffffffffffffffffffffffffffffffffffff168152602001908152602001600020819055505050565b600160009054906101000a900473ffffffffffffffffffffffffffffffffffffffff1673ffffffffffffffffffffffffffffffffffffffff166108fc611efe6019543461271f90919063ffffffff16565b9081150290604051600060405180830381858888f19350505050158015611f29573d6000803e3d6000fd5b50565b600080611f3883611d26565b915060026005811115611f4757fe5b600a60009054906101000a900460ff166005811115611f6257fe5b1415611fd557611f7d82601154611dd690919063ffffffff16565b601181905550611fac611f9b6019548561271f90919063ffffffff16565b601254611dd690919063ffffffff16565b601281905550601a60009054906101000a900460ff1615611fd057611fcf6120d0565b5b61203e565b611fea82601754611dd690919063ffffffff16565b6017819055506120196120086019548561271f90919063ffffffff16565b601854611dd690919063ffffffff16565b601881905550601a60009054906101000a900460ff161561203d5761203c6121c5565b5b5b61205560195460035461271f90919063ffffffff16565b600381905550601954905060006019819055506000601a60006101000a81548160ff0219169083151502179055508373ffffffffffffffffffffffffffffffffffffffff166108fc829081150290604051600060405180830381858888f193505050501580156120c9573d6000803e3d6000fd5b5050505050565b60028060058111156120de57fe5b600a60009054906101000a900460ff1660058111156120f957fe5b14151561210557600080fd5b42600e81905550620d2f00600e540160138190555062278d006013540160148190555061215361214260115460105461271f90919063ffffffff16565b601654611dd690919063ffffffff16565b60168190555061219861218761217660195460035461271f90919063ffffffff16565b600f5461271f90919063ffffffff16565b601554611dd690919063ffffffff16565b6015819055506003600a60006101000a81548160ff021916908360058111156121bd57fe5b021790555050565b60048060058111156121d357fe5b600a60009054906101000a900460ff1660058111156121ee57fe5b1415156121fa57600080fd5b426014819055506000809054906101000a900473ffffffffffffffffffffffffffffffffffffffff1673ffffffffffffffffffffffffffffffffffffffff1663728f31e762eff10042016040518263ffffffff167c010000000000000000000000000000000000000000000000000000000002815260040180828152602001915050602060405180830381600087803b15801561229657600080fd5b505af11580156122aa573d6000803e3d6000fd5b505050506040513d60208110156122c057600080fd5b810190808051906020019092919050505015156122dc57600080fd5b6005600a60006101000a81548160ff021916908360058111156122fb57fe5b021790555050565b6000808314156123165760009050612335565b818302905081838281151561232757fe5b0414151561233157fe5b8090505b92915050565b6000818381151561234857fe5b04905092915050565b6000809054906101000a900473ffffffffffffffffffffffffffffffffffffffff1673ffffffffffffffffffffffffffffffffffffffff166340c10f1983836040518363ffffffff167c0100000000000000000000000000000000000000000000000000000000028152600401808373ffffffffffffffffffffffffffffffffffffffff1673ffffffffffffffffffffffffffffffffffffffff16815260200182815260200192505050602060405180830381600087803b15801561241557600080fd5b505af1158015612429573d6000803e3d6000fd5b505050506040513d602081101561243f57600080fd5b8101908080519060200190929190505050151561245b57600080fd5b5050565b600460009054906101000a900473ffffffffffffffffffffffffffffffffffffffff1673ffffffffffffffffffffffffffffffffffffffff163373ffffffffffffffffffffffffffffffffffffffff161415156124bb57600080fd5b60008060058111156124c957fe5b600a60009054906101000a900460ff1660058111156124e457fe5b1415156124f057600080fd5b816000806101000a81548173ffffffffffffffffffffffffffffffffffffffff021916908373ffffffffffffffffffffffffffffffffffffffff1602179055503073ffffffffffffffffffffffffffffffffffffffff168273ffffffffffffffffffffffffffffffffffffffff16638da5cb5b6040518163ffffffff167c0100000000000000000000000000000000000000000000000000000000028152600401602060405180830381600087803b1580156125ab57600080fd5b505af11580156125bf573d6000803e3d6000fd5b505050506040513d60208110156125d557600080fd5b810190808051906020019092919050505073ffffffffffffffffffffffffffffffffffffffff16141515612671576040517f08c379a00000000000000000000000000000000000000000000000000000000081526004018080602001828103825260168152602001807f4973737565207769746820746f6b656e2073657475700000000000000000000081525060200191505060405180910390fd5b5050565b600460009054906101000a900473ffffffffffffffffffffffffffffffffffffffff1673ffffffffffffffffffffffffffffffffffffffff163373ffffffffffffffffffffffffffffffffffffffff161415156126d157600080fd5b60008060058111156126df57fe5b600a60009054906101000a900460ff1660058111156126fa57fe5b14151561270657600080fd5b81600d819055506276a700600d5401600e819055505050565b600082821115151561272d57fe5b8183039050929150505600a165627a7a723058205143f29b737eb04c931cb0f66b4e502cce840f885d3f8ca0fc83ddadd88b73d40029",
  "source": "pragma solidity 0.4.24;\n\nimport 'openzeppelin-solidity/contracts/crowdsale/emission/MintedCrowdsale.sol';\nimport 'openzeppelin-solidity/contracts/crowdsale/validation/WhitelistedCrowdsale.sol';\nimport './SolidToken.sol';\nimport './Distributable.sol';\nimport 'openzeppelin-solidity/contracts/lifecycle/Pausable.sol';\n\ncontract TokenSale is MintedCrowdsale, WhitelistedCrowdsale, Pausable, Distributable {\n\n  //TO BE REMOVED\n  event DEBUG(uint256 value);\n\n  enum Stages{\n    SETUP,\n    READY,\n    PRESALE,\n    BREAK,\n    PUBLICSALE,\n    FINALAIZED\n  }\n\n  //Global Variables\n  mapping(address => uint) public contributions;\n  Stages public currentStage;\n  uint256 public minimumContribution;\n  uint256 public maximumContribution;\n\n  //PRESALE VARIABLES\n  uint256 public presale_StartDate;\n  uint256 public presale_EndDate;\n  uint256 public presale_Cap;\n  uint256 public presale_TokenCap;\n  uint256 public presale_TokesSold;\n  uint256 public presale_WeiRaised;\n\n  //PUBLICSALE VARIABLES\n  uint256 public publicSale_StartDate;\n  uint256 public publicSale_EndDate;\n  uint256 public publicSale_Cap;\n  uint256 public publicSale_TokenCap;\n  uint256 public publicSale_TokesSold;\n  uint256 public publicSale_WeiRaised;\n\n\n  //TEMP VARIABLE - USED TO NOT OVERRIDE MORE OZ FUNCTIONS\n  uint256 changeDue;\n  bool capReached;\n\n  constructor(uint256 _rate, address _wallet, ERC20 _token, uint256 presaleCap, uint256 publicCap) public Crowdsale(_rate,_wallet,_token) {\n    presale_TokenCap = 1600000 ether;\n    publicSale_TokenCap = 800000 ether;\n    presale_Cap = presaleCap;\n    publicSale_Cap = publicCap;\n    minimumContribution = 0.5 ether;\n    maximumContribution = 100 ether;\n  }\n\n  modifier atStage(Stages _currentStage){\n    require(currentStage == _currentStage);\n    _;\n  }\n\n  modifier timedTransition(){\n    if(currentStage == Stages.READY && now >= presale_StartDate){\n      currentStage = Stages.PRESALE;\n    }\n    if(currentStage == Stages.PRESALE && now > presale_EndDate){\n      finalizePresale();\n    }\n    if(currentStage == Stages.BREAK && now > presale_EndDate + 10 days){\n      currentStage = Stages.PUBLICSALE;\n    }\n    if(currentStage == Stages.PUBLICSALE && now > publicSale_EndDate){\n      finalizeSale();\n    }\n    _;\n  }\n\n  function updateStage() timedTransition {\n    //Satge Conversions not covered by timed Transitions\n    if(currentStage == Stages.PRESALE){\n      if(presale_Cap.sub(weiRaised) < minimumContribution)\n        finalizePresale();\n    }\n    if(currentStage == Stages.PUBLICSALE){\n      if((publicSale_Cap.add(presale_Cap)).sub(weiRaised) < minimumContribution)\n        currentStage = Stages.FINALAIZED;\n    }\n  }\n\n  function setupSale(uint256 initialDate, address tokenAddress) onlyOwner atStage(Stages.SETUP) public {\n    setUpToken(tokenAddress);\n    setDates(initialDate);\n    currentStage = Stages.READY;\n  }\n\n  /**\n   * @dev Sets tha dates and durations of the different sale stages\n   * @param _presaleSartDate A timestamp representing the start of the presale\n   */\n  function setDates(uint256 _presaleSartDate) onlyOwner atStage(Stages.SETUP) internal {\n    presale_StartDate = _presaleSartDate;\n    presale_EndDate = presale_StartDate + 90 days;\n  }\n\n  function setUpToken(address _token) onlyOwner atStage(Stages.SETUP) internal {\n    token = ERC20(_token);\n    require(SolidToken(_token).owner() == address(this), \"Issue with token setup\");\n  }\n\n  /**\n   * @dev Returns de ETH cap of the current currentStage\n   * @return uint256 representing the cap\n   */\n  function getCurrentCap() public returns(uint256 cap){\n    cap = presale_Cap;\n    if(currentStage == Stages.PUBLICSALE){\n      cap = publicSale_Cap;\n    }\n  }\n\n  /**\n   * @dev Returns de ETH cap of the current currentStage\n   * @return uint256 representing the cap\n   */\n  function getRaisedForCurrentStage() public returns(uint256 raised){\n    raised = presale_WeiRaised;\n    if(currentStage == Stages.PUBLICSALE)\n      raised = publicSale_WeiRaised;\n  }\n\n  function saleOpen() public timedTransition returns(bool open) {\n    open = ((now >= presale_StartDate && now <= presale_EndDate) ||\n           (now >= publicSale_StartDate && now <= publicSale_EndDate)) &&\n           (currentStage == Stages.PRESALE || currentStage == Stages.PUBLICSALE);\n  }\n\n  function distributeTokens() public onlyOwner atStage(Stages.FINALAIZED) {\n    require(checkPercentages(40));//Magic number -> Only 60% will be sold, therefore all other % must be less than 40%\n    uint256 totalTokens = (presale_TokesSold.add(publicSale_TokesSold)).mul(10).div(6);\n    for(uint i = 0; i < partners.length; i++){\n      uint256 amount = percentages[partners[i]].mul(totalTokens).div(100);\n      DEBUG(i);\n      DEBUG(amount);\n      _deliverTokens(partners[i], amount);\n    }\n  }\n\n  function finalizePresale() atStage(Stages.PRESALE) internal{\n    presale_EndDate = now;\n    publicSale_StartDate = presale_EndDate + 10 days;\n    publicSale_EndDate = publicSale_StartDate + 30 days;\n    publicSale_TokenCap = publicSale_TokenCap.add(presale_TokenCap.sub(presale_TokesSold));\n    publicSale_Cap = publicSale_Cap.add(presale_Cap.sub(weiRaised.sub(changeDue)));\n    currentStage = Stages.BREAK;\n  }\n\n  function finalizeSale() atStage(Stages.PUBLICSALE) internal {\n    publicSale_EndDate = now;\n    require(SolidToken(token).setTransferEnablingDate(now + 182 days));\n    currentStage = Stages.FINALAIZED;\n  }\n\n\n  //OVERRIDES\n\n  /**\n   * @dev Validation of an incoming purchase. Use require statements to revert state when conditions are not met. Use super to concatenate validations.\n   * @param _beneficiary Address performing the token purchase\n   * @param _weiAmount Value in wei involved in the purchase\n   */\n  function _preValidatePurchase(address _beneficiary, uint256 _weiAmount) isWhitelisted(_beneficiary) internal {\n    require(saleOpen(), \"Sale is Closed\");\n\n    // Check for edge cases\n    uint256 acceptedValue = _weiAmount;\n    if(contributions[_beneficiary].add(acceptedValue) > maximumContribution){\n      changeDue = (contributions[_beneficiary].add(acceptedValue)).sub(maximumContribution);\n      acceptedValue = acceptedValue.sub(changeDue);\n    }\n    uint256 currentCap = getCurrentCap();\n    uint256 raised = getRaisedForCurrentStage();\n    if(raised.add(acceptedValue) > currentCap){\n      changeDue = changeDue.add(raised.add(acceptedValue).sub(currentCap));\n      acceptedValue = _weiAmount.sub(changeDue);\n      capReached = true;\n    }\n    require(acceptedValue >= minimumContribution, \"Contribution below minimum\");\n  }\n\n  /**\n   * @dev Override to extend the way in which ether is converted to tokens.\n   * @param _weiAmount Value in wei to be converted into tokens\n   * @return Number of tokens that can be purchased with the specified _weiAmount\n   */\n  function _getTokenAmount(uint256 _weiAmount) internal view returns (uint256 amount) {\n    amount = (_weiAmount.sub(changeDue)).mul(1000).div(rate); // Multiplication to account for the decimal cases in the rate\n    if(currentStage == Stages.PRESALE){\n      amount = amount.add(amount.mul(25).div(100)); //Add bonus\n    }\n  }\n\n  /**\n   * @dev Validation of an executed purchase. Observe state and use revert statements to undo rollback when valid conditions are not met.\n   * @param _beneficiary Address performing the token purchase\n   * @param _weiAmount Value in wei involved in the purchase\n   */\n  function _postValidatePurchase(address _beneficiary, uint256 _weiAmount) internal {\n    uint256 tokenAmount = _getTokenAmount(_weiAmount);\n\n    if(currentStage == Stages.PRESALE){\n      presale_TokesSold = presale_TokesSold.add(tokenAmount);\n      presale_WeiRaised = presale_WeiRaised.add(_weiAmount.sub(changeDue));\n      if(capReached)\n        finalizePresale();\n    } else{\n      publicSale_TokesSold = publicSale_TokesSold.add(tokenAmount);\n      publicSale_WeiRaised = publicSale_WeiRaised.add(_weiAmount.sub(changeDue));\n      if(capReached)\n        finalizeSale();\n    }\n\n    //Triggers for reaching cap\n    weiRaised = weiRaised.sub(changeDue);\n    uint256 change = changeDue;\n    changeDue = 0;\n    capReached = false;\n    _beneficiary.transfer(change);\n  }\n\n  /**\n   * @dev Override for extensions that require an internal state to check for validity (current user contributions, etc.)\n   * @param _beneficiary Address receiving the tokens\n   * @param _weiAmount Value in wei involved in the purchase\n   */\n  function _updatePurchasingState(address _beneficiary, uint256 _weiAmount) internal {\n    contributions[_beneficiary] = contributions[_beneficiary].add(_weiAmount).sub(changeDue);\n  }\n\n  /**\n   * @dev Determines how ETH is stored/forwarded on purchases.\n   */\n  function _forwardFunds() internal {\n    wallet.transfer(msg.value.sub(changeDue));\n  }\n\n\n}\n// Rate, wallet, token, presalecap, publicSaleCap\n// 15, \"0xca35b7d915458ef540ade6068dfe2f44e8fa733c\", \"0xbbf289d846208c16edc8474705c748aff07732db\", \"19200000000000000000\", \"120000000000000000\"\n",
  "sourcePath": "/home/jgcarv/Dev/Ethereum/Solidified/Crowdsale/Smart-Contracts/contracts/TokenSale.sol",
  "compiler": {
    "name": "solc",
    "version": "0.4.24+commit.e67f0147.Emscripten.clang"
  },
  "schemaVersion": "2.0.0",
  "updatedAt": "2018-06-06T03:22:59.050Z"
}