{
  "contractName": "TokenSale",
  "abi": [
    {
      "constant": true,
      "inputs": [],
      "name": "rate",
      "outputs": [
        {
          "name": "",
          "type": "uint256"
        }
      ],
      "payable": false,
      "stateMutability": "view",
      "type": "function"
    },
    {
      "constant": false,
      "inputs": [],
      "name": "unpause",
      "outputs": [],
      "payable": false,
      "stateMutability": "nonpayable",
      "type": "function"
    },
    {
      "constant": true,
      "inputs": [],
      "name": "weiRaised",
      "outputs": [
        {
          "name": "",
          "type": "uint256"
        }
      ],
      "payable": false,
      "stateMutability": "view",
      "type": "function"
    },
    {
      "constant": true,
      "inputs": [],
      "name": "wallet",
      "outputs": [
        {
          "name": "",
          "type": "address"
        }
      ],
      "payable": false,
      "stateMutability": "view",
      "type": "function"
    },
    {
      "constant": true,
      "inputs": [],
      "name": "publicSale_TokesSold",
      "outputs": [
        {
          "name": "",
          "type": "uint256"
        }
      ],
      "payable": false,
      "stateMutability": "view",
      "type": "function"
    },
    {
      "constant": true,
      "inputs": [],
      "name": "publicSale_TokenCap",
      "outputs": [
        {
          "name": "",
          "type": "uint256"
        }
      ],
      "payable": false,
      "stateMutability": "view",
      "type": "function"
    },
    {
      "constant": true,
      "inputs": [],
      "name": "currentStage",
      "outputs": [
        {
          "name": "",
          "type": "uint8"
        }
      ],
      "payable": false,
      "stateMutability": "view",
      "type": "function"
    },
    {
      "constant": true,
      "inputs": [],
      "name": "paused",
      "outputs": [
        {
          "name": "",
          "type": "bool"
        }
      ],
      "payable": false,
      "stateMutability": "view",
      "type": "function"
    },
    {
      "constant": true,
      "inputs": [],
      "name": "publicSale_StartDate",
      "outputs": [
        {
          "name": "",
          "type": "uint256"
        }
      ],
      "payable": false,
      "stateMutability": "view",
      "type": "function"
    },
    {
      "constant": true,
      "inputs": [],
      "name": "presale_TokenCap",
      "outputs": [
        {
          "name": "",
          "type": "uint256"
        }
      ],
      "payable": false,
      "stateMutability": "view",
      "type": "function"
    },
    {
      "constant": false,
      "inputs": [],
      "name": "pause",
      "outputs": [],
      "payable": false,
      "stateMutability": "nonpayable",
      "type": "function"
    },
    {
      "constant": false,
      "inputs": [
        {
          "name": "_beneficiary",
          "type": "address"
        }
      ],
      "name": "removeFromWhitelist",
      "outputs": [],
      "payable": false,
      "stateMutability": "nonpayable",
      "type": "function"
    },
    {
      "constant": true,
      "inputs": [],
      "name": "presale_TokesSold",
      "outputs": [
        {
          "name": "",
          "type": "uint256"
        }
      ],
      "payable": false,
      "stateMutability": "view",
      "type": "function"
    },
    {
      "constant": false,
      "inputs": [
        {
          "name": "_beneficiaries",
          "type": "address[]"
        }
      ],
      "name": "addManyToWhitelist",
      "outputs": [],
      "payable": false,
      "stateMutability": "nonpayable",
      "type": "function"
    },
    {
      "constant": true,
      "inputs": [],
      "name": "owner",
      "outputs": [
        {
          "name": "",
          "type": "address"
        }
      ],
      "payable": false,
      "stateMutability": "view",
      "type": "function"
    },
    {
      "constant": true,
      "inputs": [],
      "name": "minimumContribution",
      "outputs": [
        {
          "name": "",
          "type": "uint256"
        }
      ],
      "payable": false,
      "stateMutability": "view",
      "type": "function"
    },
    {
      "constant": true,
      "inputs": [
        {
          "name": "",
          "type": "address"
        }
      ],
      "name": "whitelist",
      "outputs": [
        {
          "name": "",
          "type": "bool"
        }
      ],
      "payable": false,
      "stateMutability": "view",
      "type": "function"
    },
    {
      "constant": true,
      "inputs": [],
      "name": "maximumContribution",
      "outputs": [
        {
          "name": "",
          "type": "uint256"
        }
      ],
      "payable": false,
      "stateMutability": "view",
      "type": "function"
    },
    {
      "constant": true,
      "inputs": [],
      "name": "presale_Cap",
      "outputs": [
        {
          "name": "",
          "type": "uint256"
        }
      ],
      "payable": false,
      "stateMutability": "view",
      "type": "function"
    },
    {
      "constant": true,
      "inputs": [],
      "name": "presale_StartDate",
      "outputs": [
        {
          "name": "",
          "type": "uint256"
        }
      ],
      "payable": false,
      "stateMutability": "view",
      "type": "function"
    },
    {
      "constant": true,
      "inputs": [],
      "name": "presale_EndDate",
      "outputs": [
        {
          "name": "",
          "type": "uint256"
        }
      ],
      "payable": false,
      "stateMutability": "view",
      "type": "function"
    },
    {
      "constant": true,
      "inputs": [],
      "name": "publicSale_Cap",
      "outputs": [
        {
          "name": "",
          "type": "uint256"
        }
      ],
      "payable": false,
      "stateMutability": "view",
      "type": "function"
    },
    {
      "constant": false,
      "inputs": [
        {
          "name": "_beneficiary",
          "type": "address"
        }
      ],
      "name": "addToWhitelist",
      "outputs": [],
      "payable": false,
      "stateMutability": "nonpayable",
      "type": "function"
    },
    {
      "constant": true,
      "inputs": [],
      "name": "publicSale_EndDate",
      "outputs": [
        {
          "name": "",
          "type": "uint256"
        }
      ],
      "payable": false,
      "stateMutability": "view",
      "type": "function"
    },
    {
      "constant": false,
      "inputs": [
        {
          "name": "_beneficiary",
          "type": "address"
        }
      ],
      "name": "buyTokens",
      "outputs": [],
      "payable": true,
      "stateMutability": "payable",
      "type": "function"
    },
    {
      "constant": false,
      "inputs": [
        {
          "name": "newOwner",
          "type": "address"
        }
      ],
      "name": "transferOwnership",
      "outputs": [],
      "payable": false,
      "stateMutability": "nonpayable",
      "type": "function"
    },
    {
      "constant": true,
      "inputs": [],
      "name": "token",
      "outputs": [
        {
          "name": "",
          "type": "address"
        }
      ],
      "payable": false,
      "stateMutability": "view",
      "type": "function"
    },
    {
      "inputs": [
        {
          "name": "_rate",
          "type": "uint256"
        },
        {
          "name": "_wallet",
          "type": "address"
        },
        {
          "name": "_token",
          "type": "address"
        },
        {
          "name": "presaleTokenCap",
          "type": "uint256"
        },
        {
          "name": "publicSaleTokenCap",
          "type": "uint256"
        }
      ],
      "payable": false,
      "stateMutability": "nonpayable",
      "type": "constructor"
    },
    {
      "payable": true,
      "stateMutability": "payable",
      "type": "fallback"
    },
    {
      "anonymous": false,
      "inputs": [],
      "name": "Pause",
      "type": "event"
    },
    {
      "anonymous": false,
      "inputs": [],
      "name": "Unpause",
      "type": "event"
    },
    {
      "anonymous": false,
      "inputs": [
        {
          "indexed": true,
          "name": "previousOwner",
          "type": "address"
        },
        {
          "indexed": true,
          "name": "newOwner",
          "type": "address"
        }
      ],
      "name": "OwnershipTransferred",
      "type": "event"
    },
    {
      "anonymous": false,
      "inputs": [
        {
          "indexed": true,
          "name": "purchaser",
          "type": "address"
        },
        {
          "indexed": true,
          "name": "beneficiary",
          "type": "address"
        },
        {
          "indexed": false,
          "name": "value",
          "type": "uint256"
        },
        {
          "indexed": false,
          "name": "amount",
          "type": "uint256"
        }
      ],
      "name": "TokenPurchase",
      "type": "event"
    },
    {
      "constant": false,
      "inputs": [],
      "name": "updateStage",
      "outputs": [],
      "payable": false,
      "stateMutability": "nonpayable",
      "type": "function"
    },
    {
      "constant": false,
      "inputs": [
        {
          "name": "initialDate",
          "type": "uint256"
        },
        {
          "name": "tokenAddress",
          "type": "address"
        }
      ],
      "name": "setupSale",
      "outputs": [],
      "payable": false,
      "stateMutability": "nonpayable",
      "type": "function"
    },
    {
      "constant": false,
      "inputs": [],
      "name": "getCurrentCap",
      "outputs": [
        {
          "name": "cap",
          "type": "uint256"
        }
      ],
      "payable": false,
      "stateMutability": "nonpayable",
      "type": "function"
    },
    {
      "constant": false,
      "inputs": [],
      "name": "saleOpen",
      "outputs": [
        {
          "name": "open",
          "type": "bool"
        }
      ],
      "payable": false,
      "stateMutability": "nonpayable",
      "type": "function"
    },
    {
      "constant": false,
      "inputs": [],
      "name": "finalizePresale",
      "outputs": [],
      "payable": false,
      "stateMutability": "nonpayable",
      "type": "function"
    },
    {
      "constant": false,
      "inputs": [],
      "name": "finalizeSale",
      "outputs": [],
      "payable": false,
      "stateMutability": "nonpayable",
      "type": "function"
    }
  ],
  "bytecode": "0x60806040526000600660006101000a81548160ff02191690831515021790555034801561002b57600080fd5b5060405160a08061232a833981018060405281019080805190602001909291908051906020019092919080519060200190929190805190602001909291908051906020019092919050505084848460008311151561008857600080fd5b600073ffffffffffffffffffffffffffffffffffffffff168273ffffffffffffffffffffffffffffffffffffffff16141515156100c457600080fd5b600073ffffffffffffffffffffffffffffffffffffffff168173ffffffffffffffffffffffffffffffffffffffff161415151561010057600080fd5b8260028190555081600160006101000a81548173ffffffffffffffffffffffffffffffffffffffff021916908373ffffffffffffffffffffffffffffffffffffffff160217905550806000806101000a81548173ffffffffffffffffffffffffffffffffffffffff021916908373ffffffffffffffffffffffffffffffffffffffff16021790555050505033600460006101000a81548173ffffffffffffffffffffffffffffffffffffffff021916908373ffffffffffffffffffffffffffffffffffffffff16021790555081600e8190555080601381905550690410d586a20a4c000000600d8190555069028a857425466f8000006012819055506706f05b59d3b2000060098190555068056bc75e2d63100000600a8190555050505050506120fb8061022f6000396000f3006080604052600436106101a1576000357c0100000000000000000000000000000000000000000000000000000000900463ffffffff1680632c4e722e146101ac5780633f4ba83a146101d75780634042b66f146101ee578063521eb2731461021957806354d96eff14610270578063570389dc1461029b57806358a687ec146102c65780635bf5d54c146102dd5780635c975abb1461031657806368436f15146103455780638293cff7146103705780638456cb591461039b5780638ab1d681146103b25780638b369cdb146103f55780638c10671c146104205780638da5cb5b1461045b578063937e09b1146104b257806399288dbb146104dd5780639b19251a1461050c5780639c2fcd4514610567578063a0a6e94014610592578063aa72f651146105a9578063b683b96b146105d4578063bd3e7401146105ff578063c062f5781461064c578063c8af3bd614610663578063d79448451461068e578063d8c30700146106b9578063e43252d7146106e4578063ea334e2714610727578063ec8ac4d814610752578063f2fde38b14610788578063fc0c546a146107cb575b6101aa33610822565b005b3480156101b857600080fd5b506101c16108f0565b6040518082815260200191505060405180910390f35b3480156101e357600080fd5b506101ec6108f6565b005b3480156101fa57600080fd5b506102036109b6565b6040518082815260200191505060405180910390f35b34801561022557600080fd5b5061022e6109bc565b604051808273ffffffffffffffffffffffffffffffffffffffff1673ffffffffffffffffffffffffffffffffffffffff16815260200191505060405180910390f35b34801561027c57600080fd5b506102856109e2565b6040518082815260200191505060405180910390f35b3480156102a757600080fd5b506102b06109e8565b6040518082815260200191505060405180910390f35b3480156102d257600080fd5b506102db6109ee565b005b3480156102e957600080fd5b506102f26109f0565b6040518082600581111561030257fe5b60ff16815260200191505060405180910390f35b34801561032257600080fd5b5061032b610a03565b604051808215151515815260200191505060405180910390f35b34801561035157600080fd5b5061035a610a16565b6040518082815260200191505060405180910390f35b34801561037c57600080fd5b50610385610a1c565b6040518082815260200191505060405180910390f35b3480156103a757600080fd5b506103b0610a22565b005b3480156103be57600080fd5b506103f3600480360381019080803573ffffffffffffffffffffffffffffffffffffffff169060200190929190505050610ae3565b005b34801561040157600080fd5b5061040a610b9a565b6040518082815260200191505060405180910390f35b34801561042c57600080fd5b50610459600480360381019080803590602001908201803590602001919091929391929390505050610ba0565b005b34801561046757600080fd5b50610470610ca2565b604051808273ffffffffffffffffffffffffffffffffffffffff1673ffffffffffffffffffffffffffffffffffffffff16815260200191505060405180910390f35b3480156104be57600080fd5b506104c7610cc8565b6040518082815260200191505060405180910390f35b3480156104e957600080fd5b506104f2610cce565b604051808215151515815260200191505060405180910390f35b34801561051857600080fd5b5061054d600480360381019080803573ffffffffffffffffffffffffffffffffffffffff169060200190929190505050610eb6565b604051808215151515815260200191505060405180910390f35b34801561057357600080fd5b5061057c610ed6565b6040518082815260200191505060405180910390f35b34801561059e57600080fd5b506105a7610edc565b005b3480156105b557600080fd5b506105be610fd1565b6040518082815260200191505060405180910390f35b3480156105e057600080fd5b506105e9610fd7565b6040518082815260200191505060405180910390f35b34801561060b57600080fd5b5061064a60048036038101908080359060200190929190803573ffffffffffffffffffffffffffffffffffffffff169060200190929190505050610fdd565b005b34801561065857600080fd5b506106616110a9565b005b34801561066f57600080fd5b506106786112cf565b6040518082815260200191505060405180910390f35b34801561069a57600080fd5b506106a36112d5565b6040518082815260200191505060405180910390f35b3480156106c557600080fd5b506106ce6112db565b6040518082815260200191505060405180910390f35b3480156106f057600080fd5b50610725600480360381019080803573ffffffffffffffffffffffffffffffffffffffff169060200190929190505050611319565b005b34801561073357600080fd5b5061073c6113d0565b6040518082815260200191505060405180910390f35b610786600480360381019080803573ffffffffffffffffffffffffffffffffffffffff169060200190929190505050610822565b005b34801561079457600080fd5b506107c9600480360381019080803573ffffffffffffffffffffffffffffffffffffffff1690602001909291905050506113d6565b005b3480156107d757600080fd5b506107e061152e565b604051808273ffffffffffffffffffffffffffffffffffffffff1673ffffffffffffffffffffffffffffffffffffffff16815260200191505060405180910390f35b6000803491506108328383611553565b61083b82611976565b905061085282600354611a1290919063ffffffff16565b6003819055506108628382611a2e565b8273ffffffffffffffffffffffffffffffffffffffff163373ffffffffffffffffffffffffffffffffffffffff167f623b3804fa71d67900d064613da8f94b9617215ee90799290593e1745087ad188484604051808381526020018281526020019250505060405180910390a36108d98383611a3c565b6108e1611ae9565b6108eb8383611b54565b505050565b60025481565b600460009054906101000a900473ffffffffffffffffffffffffffffffffffffffff1673ffffffffffffffffffffffffffffffffffffffff163373ffffffffffffffffffffffffffffffffffffffff1614151561095257600080fd5b600660009054906101000a900460ff16151561096d57600080fd5b6000600660006101000a81548160ff0219169083151502179055507f7805862f689e2f13df9f062ff482ad3ad112aca9e0847911ed832e158c525b3360405160405180910390a1565b60035481565b600160009054906101000a900473ffffffffffffffffffffffffffffffffffffffff1681565b60145481565b60135481565b565b600860009054906101000a900460ff1681565b600660009054906101000a900460ff1681565b60105481565b600e5481565b600460009054906101000a900473ffffffffffffffffffffffffffffffffffffffff1673ffffffffffffffffffffffffffffffffffffffff163373ffffffffffffffffffffffffffffffffffffffff16141515610a7e57600080fd5b600660009054906101000a900460ff16151515610a9a57600080fd5b6001600660006101000a81548160ff0219169083151502179055507f6985a02210a168e66602d3235cb6db0e70f92b3ba4d376a33c0f3d9434bff62560405160405180910390a1565b600460009054906101000a900473ffffffffffffffffffffffffffffffffffffffff1673ffffffffffffffffffffffffffffffffffffffff163373ffffffffffffffffffffffffffffffffffffffff16141515610b3f57600080fd5b6000600560008373ffffffffffffffffffffffffffffffffffffffff1673ffffffffffffffffffffffffffffffffffffffff16815260200190815260200160002060006101000a81548160ff02191690831515021790555050565b600f5481565b6000600460009054906101000a900473ffffffffffffffffffffffffffffffffffffffff1673ffffffffffffffffffffffffffffffffffffffff163373ffffffffffffffffffffffffffffffffffffffff16141515610bfe57600080fd5b600090505b82829050811015610c9d576001600560008585858181101515610c2257fe5b9050602002013573ffffffffffffffffffffffffffffffffffffffff1673ffffffffffffffffffffffffffffffffffffffff1673ffffffffffffffffffffffffffffffffffffffff16815260200190815260200160002060006101000a81548160ff0219169083151502179055508080600101915050610c03565b505050565b600460009054906101000a900473ffffffffffffffffffffffffffffffffffffffff1681565b60095481565b600060016005811115610cdd57fe5b600860009054906101000a900460ff166005811115610cf857fe5b148015610d075750600b544210155b15610d31576002600860006101000a81548160ff02191690836005811115610d2b57fe5b02179055505b60026005811115610d3e57fe5b600860009054906101000a900460ff166005811115610d5957fe5b148015610d675750600c5442115b15610d7557610d74610edc565b5b60036005811115610d8257fe5b600860009054906101000a900460ff166005811115610d9d57fe5b148015610db05750620d2f00600c540142115b15610dda576004600860006101000a81548160ff02191690836005811115610dd457fe5b02179055505b60046005811115610de757fe5b600860009054906101000a900460ff166005811115610e0257fe5b148015610e10575060115442115b15610e1e57610e1d6109ee565b5b600b544210158015610e325750600c544211155b80610e4d57506011544210158015610e4c57506011544211155b5b8015610eae575060026005811115610e6157fe5b600860009054906101000a900460ff166005811115610e7c57fe5b1480610ead575060046005811115610e9057fe5b600860009054906101000a900460ff166005811115610eab57fe5b145b5b905080905090565b60056020528060005260406000206000915054906101000a900460ff1681565b600a5481565b6002806005811115610eea57fe5b600860009054906101000a900460ff166005811115610f0557fe5b141515610f1157600080fd5b42600c81905550620d2f00600c540160108190555062278d0060105401601181905550610f5f610f4e600f54600e54611c9a90919063ffffffff16565b601354611a1290919063ffffffff16565b601381905550610fa4610f93601554610f85600354600d54611c9a90919063ffffffff16565b611c9a90919063ffffffff16565b601254611a1290919063ffffffff16565b6012819055506003600860006101000a81548160ff02191690836005811115610fc957fe5b021790555050565b600d5481565b600b5481565b600460009054906101000a900473ffffffffffffffffffffffffffffffffffffffff1673ffffffffffffffffffffffffffffffffffffffff163373ffffffffffffffffffffffffffffffffffffffff1614151561103957600080fd5b600080600581111561104757fe5b600860009054906101000a900460ff16600581111561106257fe5b14151561106e57600080fd5b61107782611cb3565b61108083611ec9565b6001600860006101000a81548160ff0219169083600581111561109f57fe5b0217905550505050565b600160058111156110b657fe5b600860009054906101000a900460ff1660058111156110d157fe5b1480156110e05750600b544210155b1561110a576002600860006101000a81548160ff0219169083600581111561110457fe5b02179055505b6002600581111561111757fe5b600860009054906101000a900460ff16600581111561113257fe5b1480156111405750600c5442115b1561114e5761114d610edc565b5b6003600581111561115b57fe5b600860009054906101000a900460ff16600581111561117657fe5b1480156111895750620d2f00600c540142115b156111b3576004600860006101000a81548160ff021916908360058111156111ad57fe5b02179055505b600460058111156111c057fe5b600860009054906101000a900460ff1660058111156111db57fe5b1480156111e9575060115442115b156111f7576111f66109ee565b5b6002600581111561120457fe5b600860009054906101000a900460ff16600581111561121f57fe5b14156112545760095461123f600f54600d54611c9a90919063ffffffff16565b10151561124b57600080fd5b611253610edc565b5b6004600581111561126157fe5b600860009054906101000a900460ff16600581111561127c57fe5b14156112cd5760095461129c601454601254611c9a90919063ffffffff16565b1015156112a857600080fd5b6005600860006101000a81548160ff021916908360058111156112c757fe5b02179055505b565b600c5481565b60125481565b6000600d549050600460058111156112ef57fe5b600860009054906101000a900460ff16600581111561130a57fe5b14156113165760125490505b90565b600460009054906101000a900473ffffffffffffffffffffffffffffffffffffffff1673ffffffffffffffffffffffffffffffffffffffff163373ffffffffffffffffffffffffffffffffffffffff1614151561137557600080fd5b6001600560008373ffffffffffffffffffffffffffffffffffffffff1673ffffffffffffffffffffffffffffffffffffffff16815260200190815260200160002060006101000a81548160ff02191690831515021790555050565b60115481565b600460009054906101000a900473ffffffffffffffffffffffffffffffffffffffff1673ffffffffffffffffffffffffffffffffffffffff163373ffffffffffffffffffffffffffffffffffffffff1614151561143257600080fd5b600073ffffffffffffffffffffffffffffffffffffffff168173ffffffffffffffffffffffffffffffffffffffff161415151561146e57600080fd5b8073ffffffffffffffffffffffffffffffffffffffff16600460009054906101000a900473ffffffffffffffffffffffffffffffffffffffff1673ffffffffffffffffffffffffffffffffffffffff167f8be0079c531659141344cd1fd0a4f28419497f9722a3daafe3b4186f6b6457e060405160405180910390a380600460006101000a81548173ffffffffffffffffffffffffffffffffffffffff021916908373ffffffffffffffffffffffffffffffffffffffff16021790555050565b6000809054906101000a900473ffffffffffffffffffffffffffffffffffffffff1681565b6000806001600581111561156357fe5b600860009054906101000a900460ff16600581111561157e57fe5b14801561158d5750600b544210155b156115b7576002600860006101000a81548160ff021916908360058111156115b157fe5b02179055505b600260058111156115c457fe5b600860009054906101000a900460ff1660058111156115df57fe5b1480156115ed5750600c5442115b156115fb576115fa610edc565b5b6003600581111561160857fe5b600860009054906101000a900460ff16600581111561162357fe5b1480156116365750620d2f00600c540142115b15611660576004600860006101000a81548160ff0219169083600581111561165a57fe5b02179055505b6004600581111561166d57fe5b600860009054906101000a900460ff16600581111561168857fe5b148015611696575060115442115b156116a4576116a36109ee565b5b83600560008273ffffffffffffffffffffffffffffffffffffffff1673ffffffffffffffffffffffffffffffffffffffff16815260200190815260200160002060009054906101000a900460ff1615156116fd57600080fd5b611705610cce565b1515611779576040517f08c379a000000000000000000000000000000000000000000000000000000000815260040180806020018281038252600e8152602001807f53616c6520697320436c6f73656400000000000000000000000000000000000081525060200191505060405180910390fd5b839250600a546117d184600760003373ffffffffffffffffffffffffffffffffffffffff1673ffffffffffffffffffffffffffffffffffffffff16815260200190815260200160002054611a1290919063ffffffff16565b111561185b5761183d600a5461182f85600760003373ffffffffffffffffffffffffffffffffffffffff1673ffffffffffffffffffffffffffffffffffffffff16815260200190815260200160002054611a1290919063ffffffff16565b611c9a90919063ffffffff16565b60158190555061185860155484611c9a90919063ffffffff16565b92505b6118636112db565b91508161187b84600354611a1290919063ffffffff16565b11156118f5576118bc6118ab8361189d86600354611a1290919063ffffffff16565b611c9a90919063ffffffff16565b601554611a1290919063ffffffff16565b6015819055506118d760155485611c9a90919063ffffffff16565b92506001601660006101000a81548160ff0219169083151502179055505b600954831015151561196f576040517f08c379a000000000000000000000000000000000000000000000000000000000815260040180806020018281038252601a8152602001807f436f6e747269627574696f6e2062656c6f77206d696e696d756d00000000000081525060200191505060405180910390fd5b5050505050565b60006119a160025461199360155485611c9a90919063ffffffff16565b611f7390919063ffffffff16565b9050600260058111156119b057fe5b600860009054906101000a900460ff1660058111156119cb57fe5b1415611a0d57611a0a6119fb60646119ed601485611f7390919063ffffffff16565b611fab90919063ffffffff16565b82611a1290919063ffffffff16565b90505b919050565b60008183019050828110151515611a2557fe5b80905092915050565b611a388282611fc1565b5050565b611aa2611a5460155483611c9a90919063ffffffff16565b600760008573ffffffffffffffffffffffffffffffffffffffff1673ffffffffffffffffffffffffffffffffffffffff16815260200190815260200160002054611a1290919063ffffffff16565b600760008473ffffffffffffffffffffffffffffffffffffffff1673ffffffffffffffffffffffffffffffffffffffff168152602001908152602001600020819055505050565b600160009054906101000a900473ffffffffffffffffffffffffffffffffffffffff1673ffffffffffffffffffffffffffffffffffffffff166108fc349081150290604051600060405180830381858888f19350505050158015611b51573d6000803e3d6000fd5b50565b600080611b6083611976565b915060026005811115611b6f57fe5b600860009054906101000a900460ff166005811115611b8a57fe5b1415611bce57611ba582600f54611a1290919063ffffffff16565b600f81905550601660009054906101000a900460ff1615611bc957611bc8610edc565b5b611c08565b611be382601454611a1290919063ffffffff16565b601481905550601660009054906101000a900460ff1615611c0757611c066109ee565b5b5b611c1f601554600354611c9a90919063ffffffff16565b600381905550601554905060006015819055506000601660006101000a81548160ff0219169083151502179055508373ffffffffffffffffffffffffffffffffffffffff166108fc829081150290604051600060405180830381858888f19350505050158015611c93573d6000803e3d6000fd5b5050505050565b6000828211151515611ca857fe5b818303905092915050565b600460009054906101000a900473ffffffffffffffffffffffffffffffffffffffff1673ffffffffffffffffffffffffffffffffffffffff163373ffffffffffffffffffffffffffffffffffffffff16141515611d0f57600080fd5b6000806005811115611d1d57fe5b600860009054906101000a900460ff166005811115611d3857fe5b141515611d4457600080fd5b816000806101000a81548173ffffffffffffffffffffffffffffffffffffffff021916908373ffffffffffffffffffffffffffffffffffffffff1602179055503073ffffffffffffffffffffffffffffffffffffffff168273ffffffffffffffffffffffffffffffffffffffff16638da5cb5b6040518163ffffffff167c0100000000000000000000000000000000000000000000000000000000028152600401602060405180830381600087803b158015611dff57600080fd5b505af1158015611e13573d6000803e3d6000fd5b505050506040513d6020811015611e2957600080fd5b810190808051906020019092919050505073ffffffffffffffffffffffffffffffffffffffff16141515611ec5576040517f08c379a00000000000000000000000000000000000000000000000000000000081526004018080602001828103825260168152602001807f4973737565207769746820746f6b656e2073657475700000000000000000000081525060200191505060405180910390fd5b5050565b600460009054906101000a900473ffffffffffffffffffffffffffffffffffffffff1673ffffffffffffffffffffffffffffffffffffffff163373ffffffffffffffffffffffffffffffffffffffff16141515611f2557600080fd5b6000806005811115611f3357fe5b600860009054906101000a900460ff166005811115611f4e57fe5b141515611f5a57600080fd5b81600b819055506276a700600b5401600c819055505050565b600080831415611f865760009050611fa5565b8183029050818382811515611f9757fe5b04141515611fa157fe5b8090505b92915050565b60008183811515611fb857fe5b04905092915050565b6000809054906101000a900473ffffffffffffffffffffffffffffffffffffffff1673ffffffffffffffffffffffffffffffffffffffff166340c10f1983836040518363ffffffff167c0100000000000000000000000000000000000000000000000000000000028152600401808373ffffffffffffffffffffffffffffffffffffffff1673ffffffffffffffffffffffffffffffffffffffff16815260200182815260200192505050602060405180830381600087803b15801561208557600080fd5b505af1158015612099573d6000803e3d6000fd5b505050506040513d60208110156120af57600080fd5b810190808051906020019092919050505015156120cb57600080fd5b50505600a165627a7a723058207f1c4871ad4c88ce3c0549273ee10fa2d2125a398485675589099cab19910e9f0029",
  "source": "pragma solidity 0.4.24;\n\nimport 'openzeppelin-solidity/contracts/crowdsale/emission/MintedCrowdsale.sol';\nimport 'openzeppelin-solidity/contracts/crowdsale/validation/WhitelistedCrowdsale.sol';\nimport './SolidifiedToken.sol';\nimport 'openzeppelin-solidity/contracts/lifecycle/Pausable.sol';\n\ncontract TokenSale is MintedCrowdsale, WhitelistedCrowdsale, Pausable {\n\n  enum Stages{\n    SETUP,\n    READY,\n    PRESALE,\n    BREAK,\n    PUBLICSALE,\n    FINALAIZED\n  }\n\n  //Global Variables\n  mapping(address => uint) contributions;\n  Stages public currentStage;\n  uint256 public minimumContribution;\n  uint256 public maximumContribution;\n\n  //PRESALE VARIABLES\n  uint256 public presale_StartDate;\n  uint256 public presale_EndDate;\n  uint256 public presale_Cap;\n  uint256 public presale_TokenCap;\n  uint256 public presale_TokesSold;\n\n  //PUBLICSALE VARIABLES\n  uint256 public publicSale_StartDate;\n  uint256 public publicSale_EndDate;\n  uint256 public publicSale_Cap;\n  uint256 public publicSale_TokenCap;\n  uint256 public publicSale_TokesSold;\n\n\n  //TEMP VARIABLE - USED TO NOT OVERRIDE MORE OZ FUNCTIONS\n  uint256 changeDue;\n  bool capReached;\n\n\n  constructor(uint256 _rate, address _wallet, ERC20 _token, uint256 presaleTokenCap, uint256 publicSaleTokenCap) public Crowdsale(_rate,_wallet,_token) {\n    presale_TokenCap = presaleTokenCap;\n    publicSale_TokenCap = publicSaleTokenCap;\n    presale_Cap = 19200 ether;\n    publicSale_Cap = 12000 ether;\n    minimumContribution = 0.5 ether;\n    maximumContribution = 100 ether;\n  }\n\n  modifier atStage(Stages _currentStage){\n    require(currentStage == _currentStage);\n    _;\n  }\n\n  modifier timedTransition(){\n    if(currentStage == Stages.READY && now >= presale_StartDate){\n      currentStage = Stages.PRESALE;\n    }\n    if(currentStage == Stages.PRESALE && now > presale_EndDate){\n      finalizePresale();\n    }\n    if(currentStage == Stages.BREAK && now > presale_EndDate + 10 days){\n      currentStage = Stages.PUBLICSALE;\n    }\n    if(currentStage == Stages.PUBLICSALE && now > publicSale_EndDate){\n      finalizeSale();\n    }\n    _;\n  }\n\n  function updateStage() timedTransition {\n    //Satge Conversions not covered by times Transitions\n    if(currentStage == Stages.PRESALE){\n      require(presale_Cap.sub(presale_TokesSold) < minimumContribution);\n      finalizePresale();\n    }\n    if(currentStage == Stages.PUBLICSALE){\n      require(publicSale_Cap.sub(publicSale_TokesSold) < minimumContribution);\n      currentStage = Stages.FINALAIZED;\n    }\n  }\n\n  function setupSale(uint256 initialDate, address tokenAddress) onlyOwner atStage(Stages.SETUP) public {\n    setUpToken(tokenAddress);\n    setDates(initialDate);\n    currentStage = Stages.READY;\n  }\n\n  /**\n   * @dev Sets tha dates and durations of the different sale stages\n   * @param _presaleSartDate A timestamp representing the start of the presale\n   */\n  function setDates(uint256 _presaleSartDate) onlyOwner atStage(Stages.SETUP) internal {\n    presale_StartDate = _presaleSartDate;\n    presale_EndDate = presale_StartDate + 90 days;\n  }\n\n  function setUpToken(address _token) onlyOwner atStage(Stages.SETUP) internal {\n    token = ERC20(_token);\n    require(SolidifiedToken(_token).owner() == address(this), \"Issue with token setup\");\n  }\n\n  /**\n   * @dev Returns de ETH cap of the current currentStage\n   * @return uint256 representing the cap\n   */\n  function getCurrentCap() public returns(uint256 cap){\n    cap = presale_Cap;\n    if(currentStage == Stages.PUBLICSALE){\n      cap = publicSale_Cap;\n    }\n  }\n\n  function saleOpen() public timedTransition returns(bool open) {\n    /* if((now >= presale_StartDate && now <= presale_EndDate) ||\n       (now >= publicSale_EndDate && now <= publicSale_EndDate)) {\n         open = true;\n    } */\n    open = ((now >= presale_StartDate && now <= presale_EndDate) ||\n           (now >= publicSale_EndDate && now <= publicSale_EndDate)) &&\n           (currentStage == Stages.PRESALE || currentStage == Stages.PUBLICSALE);\n\n    return open;\n  }\n\n  /* function distributeTokens(address[] beneficiaries, uint256[] amounts) public onlyOwner atStage(Stages.FINALAIZED) {\n    for(uint i = 0; i < beneficiaries.length; i++){\n      _deliverTokens(beneficiaries[i], amounts[i]);\n    }\n  } */\n\n  function finalizePresale() atStage(Stages.PRESALE) public{\n    presale_EndDate = now;\n    publicSale_StartDate = presale_EndDate + 10 days;\n    publicSale_EndDate = publicSale_StartDate + 30 days;\n    publicSale_TokenCap = publicSale_TokenCap.add(presale_TokenCap.sub(presale_TokesSold));\n    publicSale_Cap = publicSale_Cap.add(presale_Cap.sub(weiRaised).sub(changeDue));\n    currentStage = Stages.BREAK;\n  }\n\n  function finalizeSale() public {\n    // Mint tokens to founders and partnes\n    //distributeTokens();\n    // Enable token transfer\n    // Finish token minting\n    //require(MintableToken(token).finishMinting());\n    // Set token timelock\n  }\n\n\n  //OVERRIDES\n\n  /**\n   * @dev Validation of an incoming purchase. Use require statements to revert state when conditions are not met. Use super to concatenate validations.\n   * @param _beneficiary Address performing the token purchase\n   * @param _weiAmount Value in wei involved in the purchase\n   */\n  function _preValidatePurchase(address _beneficiary, uint256 _weiAmount) timedTransition isWhitelisted(_beneficiary) internal {\n    require(saleOpen(), \"Sale is Closed\");\n    //require(_weiAmount >= minimumContribution, \"Contribution below minimum\");\n\n    // Check for edge cases\n    uint256 acceptedValue = _weiAmount;\n    if(contributions[msg.sender].add(acceptedValue) > maximumContribution){\n      changeDue = contributions[msg.sender].add(acceptedValue).sub(maximumContribution);\n      acceptedValue = acceptedValue.sub(changeDue);\n    }\n    uint256 currentCap = getCurrentCap();\n    if(weiRaised.add(acceptedValue) > currentCap){\n      changeDue = changeDue.add(weiRaised.add(acceptedValue).sub(currentCap));\n      acceptedValue = _weiAmount.sub(changeDue);\n      capReached = true;\n    }\n    require(acceptedValue >= minimumContribution, \"Contribution below minimum\");\n  }\n\n  /**\n   * @dev Override to extend the way in which ether is converted to tokens.\n   * @param _weiAmount Value in wei to be converted into tokens\n   * @return Number of tokens that can be purchased with the specified _weiAmount\n   */\n  function _getTokenAmount(uint256 _weiAmount) internal view returns (uint256 amount) {\n    amount = (_weiAmount.sub(changeDue)).mul(rate);\n    if(currentStage == Stages.PRESALE){\n      amount = amount.add(amount.mul(20).div(100));\n    }\n  }\n\n  /**\n   * @dev Validation of an executed purchase. Observe state and use revert statements to undo rollback when valid conditions are not met.\n   * @param _beneficiary Address performing the token purchase\n   * @param _weiAmount Value in wei involved in the purchase\n   */\n  function _postValidatePurchase(address _beneficiary, uint256 _weiAmount) internal {\n    uint256 tokenAmount = _getTokenAmount(_weiAmount);\n\n    if(currentStage == Stages.PRESALE){\n      presale_TokesSold = presale_TokesSold.add(tokenAmount);\n      if(capReached)\n        finalizePresale();\n    } else{\n      publicSale_TokesSold = publicSale_TokesSold.add(tokenAmount);\n      if(capReached)\n        finalizeSale();\n    }\n\n    //Triggers for reaching cap\n    weiRaised = weiRaised.sub(changeDue);\n    uint256 change = changeDue;\n    changeDue = 0;\n    capReached = false;\n    _beneficiary.transfer(change);\n  }\n\n  /**\n   * @dev Override for extensions that require an internal state to check for validity (current user contributions, etc.)\n   * @param _beneficiary Address receiving the tokens\n   * @param _weiAmount Value in wei involved in the purchase\n   */\n  function _updatePurchasingState(address _beneficiary, uint256 _weiAmount) internal {\n    contributions[_beneficiary] = contributions[_beneficiary].add(_weiAmount.sub(changeDue));\n  }\n\n\n}\n",
  "sourcePath": "/home/jgcarv/Dev/Ethereum/Solidified/Crowdsale/Smart-Contracts/contracts/TokenSale.sol",
  "compiler": {
    "name": "solc",
    "version": "0.4.24+commit.e67f0147.Emscripten.clang"
  },
  "schemaVersion": "2.0.0",
  "updatedAt": "2018-06-04T18:02:36.449Z"
}