{
  "contractName": "TokenSale",
  "abi": [
    {
      "constant": true,
      "inputs": [],
      "name": "mainSale_Cap",
      "outputs": [
        {
          "name": "",
          "type": "uint256"
        }
      ],
      "payable": false,
      "stateMutability": "view",
      "type": "function"
    },
    {
      "constant": true,
      "inputs": [],
      "name": "presale_WeiRaised",
      "outputs": [
        {
          "name": "",
          "type": "uint256"
        }
      ],
      "payable": false,
      "stateMutability": "view",
      "type": "function"
    },
    {
      "constant": true,
      "inputs": [],
      "name": "mainSale_TokenCap",
      "outputs": [
        {
          "name": "",
          "type": "uint256"
        }
      ],
      "payable": false,
      "stateMutability": "view",
      "type": "function"
    },
    {
      "constant": true,
      "inputs": [],
      "name": "rate",
      "outputs": [
        {
          "name": "",
          "type": "uint256"
        }
      ],
      "payable": false,
      "stateMutability": "view",
      "type": "function"
    },
    {
      "constant": false,
      "inputs": [],
      "name": "unpause",
      "outputs": [],
      "payable": false,
      "stateMutability": "nonpayable",
      "type": "function"
    },
    {
      "constant": true,
      "inputs": [],
      "name": "weiRaised",
      "outputs": [
        {
          "name": "",
          "type": "uint256"
        }
      ],
      "payable": false,
      "stateMutability": "view",
      "type": "function"
    },
    {
      "constant": true,
      "inputs": [
        {
          "name": "",
          "type": "address"
        }
      ],
      "name": "contributions",
      "outputs": [
        {
          "name": "",
          "type": "uint256"
        }
      ],
      "payable": false,
      "stateMutability": "view",
      "type": "function"
    },
    {
      "constant": true,
      "inputs": [],
      "name": "wallet",
      "outputs": [
        {
          "name": "",
          "type": "address"
        }
      ],
      "payable": false,
      "stateMutability": "view",
      "type": "function"
    },
    {
      "constant": true,
      "inputs": [],
      "name": "currentStage",
      "outputs": [
        {
          "name": "",
          "type": "uint8"
        }
      ],
      "payable": false,
      "stateMutability": "view",
      "type": "function"
    },
    {
      "constant": true,
      "inputs": [],
      "name": "paused",
      "outputs": [
        {
          "name": "",
          "type": "bool"
        }
      ],
      "payable": false,
      "stateMutability": "view",
      "type": "function"
    },
    {
      "constant": true,
      "inputs": [],
      "name": "presale_TokenCap",
      "outputs": [
        {
          "name": "",
          "type": "uint256"
        }
      ],
      "payable": false,
      "stateMutability": "view",
      "type": "function"
    },
    {
      "constant": false,
      "inputs": [],
      "name": "pause",
      "outputs": [],
      "payable": false,
      "stateMutability": "nonpayable",
      "type": "function"
    },
    {
      "constant": true,
      "inputs": [],
      "name": "mainSale_EndDate",
      "outputs": [
        {
          "name": "",
          "type": "uint256"
        }
      ],
      "payable": false,
      "stateMutability": "view",
      "type": "function"
    },
    {
      "constant": false,
      "inputs": [
        {
          "name": "_beneficiary",
          "type": "address"
        }
      ],
      "name": "removeFromWhitelist",
      "outputs": [],
      "payable": false,
      "stateMutability": "nonpayable",
      "type": "function"
    },
    {
      "constant": true,
      "inputs": [],
      "name": "presale_TokesSold",
      "outputs": [
        {
          "name": "",
          "type": "uint256"
        }
      ],
      "payable": false,
      "stateMutability": "view",
      "type": "function"
    },
    {
      "constant": false,
      "inputs": [
        {
          "name": "_beneficiaries",
          "type": "address[]"
        }
      ],
      "name": "addManyToWhitelist",
      "outputs": [],
      "payable": false,
      "stateMutability": "nonpayable",
      "type": "function"
    },
    {
      "constant": true,
      "inputs": [],
      "name": "owner",
      "outputs": [
        {
          "name": "",
          "type": "address"
        }
      ],
      "payable": false,
      "stateMutability": "view",
      "type": "function"
    },
    {
      "constant": true,
      "inputs": [
        {
          "name": "maxPercentage",
          "type": "uint256"
        }
      ],
      "name": "checkPercentages",
      "outputs": [
        {
          "name": "check",
          "type": "bool"
        }
      ],
      "payable": false,
      "stateMutability": "view",
      "type": "function"
    },
    {
      "constant": true,
      "inputs": [],
      "name": "minimumContribution",
      "outputs": [
        {
          "name": "",
          "type": "uint256"
        }
      ],
      "payable": false,
      "stateMutability": "view",
      "type": "function"
    },
    {
      "constant": true,
      "inputs": [
        {
          "name": "",
          "type": "address"
        }
      ],
      "name": "whitelist",
      "outputs": [
        {
          "name": "",
          "type": "bool"
        }
      ],
      "payable": false,
      "stateMutability": "view",
      "type": "function"
    },
    {
      "constant": true,
      "inputs": [],
      "name": "mainSale_TokesSold",
      "outputs": [
        {
          "name": "",
          "type": "uint256"
        }
      ],
      "payable": false,
      "stateMutability": "view",
      "type": "function"
    },
    {
      "constant": true,
      "inputs": [],
      "name": "maximumContribution",
      "outputs": [
        {
          "name": "",
          "type": "uint256"
        }
      ],
      "payable": false,
      "stateMutability": "view",
      "type": "function"
    },
    {
      "constant": true,
      "inputs": [
        {
          "name": "",
          "type": "address"
        }
      ],
      "name": "percentages",
      "outputs": [
        {
          "name": "",
          "type": "uint256"
        }
      ],
      "payable": false,
      "stateMutability": "view",
      "type": "function"
    },
    {
      "constant": true,
      "inputs": [],
      "name": "presale_Cap",
      "outputs": [
        {
          "name": "",
          "type": "uint256"
        }
      ],
      "payable": false,
      "stateMutability": "view",
      "type": "function"
    },
    {
      "constant": true,
      "inputs": [],
      "name": "mainSale_WeiRaised",
      "outputs": [
        {
          "name": "",
          "type": "uint256"
        }
      ],
      "payable": false,
      "stateMutability": "view",
      "type": "function"
    },
    {
      "constant": true,
      "inputs": [],
      "name": "presale_StartDate",
      "outputs": [
        {
          "name": "",
          "type": "uint256"
        }
      ],
      "payable": false,
      "stateMutability": "view",
      "type": "function"
    },
    {
      "constant": true,
      "inputs": [],
      "name": "mainSale_StartDate",
      "outputs": [
        {
          "name": "",
          "type": "uint256"
        }
      ],
      "payable": false,
      "stateMutability": "view",
      "type": "function"
    },
    {
      "constant": true,
      "inputs": [
        {
          "name": "",
          "type": "uint256"
        }
      ],
      "name": "partners",
      "outputs": [
        {
          "name": "",
          "type": "address"
        }
      ],
      "payable": false,
      "stateMutability": "view",
      "type": "function"
    },
    {
      "constant": true,
      "inputs": [],
      "name": "presale_EndDate",
      "outputs": [
        {
          "name": "",
          "type": "uint256"
        }
      ],
      "payable": false,
      "stateMutability": "view",
      "type": "function"
    },
    {
      "constant": false,
      "inputs": [
        {
          "name": "_beneficiary",
          "type": "address"
        }
      ],
      "name": "addToWhitelist",
      "outputs": [],
      "payable": false,
      "stateMutability": "nonpayable",
      "type": "function"
    },
    {
      "constant": false,
      "inputs": [
        {
          "name": "_beneficiary",
          "type": "address"
        }
      ],
      "name": "buyTokens",
      "outputs": [],
      "payable": true,
      "stateMutability": "payable",
      "type": "function"
    },
    {
      "constant": false,
      "inputs": [
        {
          "name": "newOwner",
          "type": "address"
        }
      ],
      "name": "transferOwnership",
      "outputs": [],
      "payable": false,
      "stateMutability": "nonpayable",
      "type": "function"
    },
    {
      "constant": true,
      "inputs": [],
      "name": "token",
      "outputs": [
        {
          "name": "",
          "type": "address"
        }
      ],
      "payable": false,
      "stateMutability": "view",
      "type": "function"
    },
    {
      "inputs": [
        {
          "name": "_rate",
          "type": "uint256"
        },
        {
          "name": "_wallet",
          "type": "address"
        },
        {
          "name": "_token",
          "type": "address"
        },
        {
          "name": "_presaleCap",
          "type": "uint256"
        },
        {
          "name": "_mainCap",
          "type": "uint256"
        }
      ],
      "payable": false,
      "stateMutability": "nonpayable",
      "type": "constructor"
    },
    {
      "payable": true,
      "stateMutability": "payable",
      "type": "fallback"
    },
    {
      "anonymous": false,
      "inputs": [],
      "name": "Pause",
      "type": "event"
    },
    {
      "anonymous": false,
      "inputs": [],
      "name": "Unpause",
      "type": "event"
    },
    {
      "anonymous": false,
      "inputs": [
        {
          "indexed": true,
          "name": "previousOwner",
          "type": "address"
        },
        {
          "indexed": true,
          "name": "newOwner",
          "type": "address"
        }
      ],
      "name": "OwnershipTransferred",
      "type": "event"
    },
    {
      "anonymous": false,
      "inputs": [
        {
          "indexed": true,
          "name": "purchaser",
          "type": "address"
        },
        {
          "indexed": true,
          "name": "beneficiary",
          "type": "address"
        },
        {
          "indexed": false,
          "name": "value",
          "type": "uint256"
        },
        {
          "indexed": false,
          "name": "amount",
          "type": "uint256"
        }
      ],
      "name": "TokenPurchase",
      "type": "event"
    },
    {
      "constant": false,
      "inputs": [
        {
          "name": "initialDate",
          "type": "uint256"
        },
        {
          "name": "tokenAddress",
          "type": "address"
        }
      ],
      "name": "setupSale",
      "outputs": [],
      "payable": false,
      "stateMutability": "nonpayable",
      "type": "function"
    },
    {
      "constant": false,
      "inputs": [],
      "name": "updateStage",
      "outputs": [],
      "payable": false,
      "stateMutability": "nonpayable",
      "type": "function"
    },
    {
      "constant": true,
      "inputs": [],
      "name": "getCurrentCap",
      "outputs": [
        {
          "name": "cap",
          "type": "uint256"
        }
      ],
      "payable": false,
      "stateMutability": "view",
      "type": "function"
    },
    {
      "constant": true,
      "inputs": [],
      "name": "getRaisedForCurrentStage",
      "outputs": [
        {
          "name": "raised",
          "type": "uint256"
        }
      ],
      "payable": false,
      "stateMutability": "view",
      "type": "function"
    },
    {
      "constant": false,
      "inputs": [],
      "name": "saleOpen",
      "outputs": [
        {
          "name": "open",
          "type": "bool"
        }
      ],
      "payable": false,
      "stateMutability": "nonpayable",
      "type": "function"
    },
    {
      "constant": false,
      "inputs": [],
      "name": "distributeTokens",
      "outputs": [],
      "payable": false,
      "stateMutability": "nonpayable",
      "type": "function"
    }
  ],
  "bytecode": "0x60806040526000600660006101000a81548160ff02191690831515021790555061014060405190810160405280600160ff168152602001600260ff168152602001600360ff168152602001600460ff168152602001600560ff168152602001600660ff168152602001600760ff168152602001600860ff168152602001600960ff168152602001601060ff16815250600790600a620000a09291906200055b565b50348015620000ae57600080fd5b5060405160a08062002e3983398101806040528101908080519060200190929190805190602001909291908051906020019092919080519060200190929190805190602001909291905050508484846000831115156200010d57600080fd5b600073ffffffffffffffffffffffffffffffffffffffff168273ffffffffffffffffffffffffffffffffffffffff16141515156200014a57600080fd5b600073ffffffffffffffffffffffffffffffffffffffff168173ffffffffffffffffffffffffffffffffffffffff16141515156200018757600080fd5b8260028190555081600160006101000a81548173ffffffffffffffffffffffffffffffffffffffff021916908373ffffffffffffffffffffffffffffffffffffffff160217905550806000806101000a81548173ffffffffffffffffffffffffffffffffffffffff021916908373ffffffffffffffffffffffffffffffffffffffff16021790555050505033600460006101000a81548173ffffffffffffffffffffffffffffffffffffffff021916908373ffffffffffffffffffffffffffffffffffffffff160217905550600160086000600173ffffffffffffffffffffffffffffffffffffffff16815260200190815260200160002081905550600260086000600273ffffffffffffffffffffffffffffffffffffffff16815260200190815260200160002081905550600360086000600373ffffffffffffffffffffffffffffffffffffffff16815260200190815260200160002081905550600460086000600473ffffffffffffffffffffffffffffffffffffffff16815260200190815260200160002081905550600560086000600573ffffffffffffffffffffffffffffffffffffffff16815260200190815260200160002081905550600660086000600673ffffffffffffffffffffffffffffffffffffffff16815260200190815260200160002081905550600760086000600773ffffffffffffffffffffffffffffffffffffffff168152602001908152602001600020819055506008806000600873ffffffffffffffffffffffffffffffffffffffff16815260200190815260200160002081905550600960086000600973ffffffffffffffffffffffffffffffffffffffff16815260200190815260200160002081905550600a60086000601073ffffffffffffffffffffffffffffffffffffffff168152602001908152602001600020819055506200047b6104e26200045e600254856200050864010000000002620026a3179091906401000000009004565b6200051f6401000000000262002438179091906401000000009004565b601081905550620004ca6103e8620004ad600254846200050864010000000002620026a3179091906401000000009004565b6200051f6401000000000262002438179091906401000000009004565b60168190555081600f81905550806015819055506706f05b59d3b20000600b8190555068056bc75e2d63100000600c8190555050505050506200061d565b600081838115156200051657fe5b04905092915050565b60008083141562000534576000905062000555565b81830290508183828115156200054657fe5b041415156200055157fe5b8090505b92915050565b828054828255906000526020600020908101928215620005c4579160200282015b82811115620005c35782518260006101000a81548173ffffffffffffffffffffffffffffffffffffffff021916908360ff160217905550916020019190600101906200057c565b5b509050620005d39190620005d7565b5090565b6200061a91905b808211156200061657600081816101000a81549073ffffffffffffffffffffffffffffffffffffffff021916905550600101620005de565b5090565b90565b61280c806200062d6000396000f3006080604052600436106101e3576000357c0100000000000000000000000000000000000000000000000000000000900463ffffffff168063010b66de146101ee57806313922fc314610219578063213671bf146102445780632c4e722e1461026f5780633f4ba83a1461029a5780634042b66f146102b157806342e94c90146102dc578063521eb273146103335780635bf5d54c1461038a5780635c975abb146103c35780638293cff7146103f25780638456cb591461041d5780638a0904da146104345780638ab1d6811461045f5780638b369cdb146104a25780638c10671c146104cd5780638da5cb5b14610508578063923a53411461055f578063937e09b1146105a457806399288dbb146105cf5780639ab1b484146105fe5780639b19251a146106155780639b9be9cb146106705780639c2fcd451461069b5780639d592c66146106c6578063aa72f6511461071d578063ae1f14ca14610748578063b683b96b14610773578063b87884531461079e578063bd3e7401146107c9578063c062f57814610816578063c11efcdc1461082d578063c3b49d0414610858578063c8af3bd6146108c5578063d8c30700146108f0578063e43252d71461091b578063ec8ac4d81461095e578063f2fde38b14610994578063fc0c546a146109d7575b6101ec33610a2e565b005b3480156101fa57600080fd5b50610203610afc565b6040518082815260200191505060405180910390f35b34801561022557600080fd5b5061022e610b02565b6040518082815260200191505060405180910390f35b34801561025057600080fd5b50610259610b08565b6040518082815260200191505060405180910390f35b34801561027b57600080fd5b50610284610b0e565b6040518082815260200191505060405180910390f35b3480156102a657600080fd5b506102af610b14565b005b3480156102bd57600080fd5b506102c6610bd4565b6040518082815260200191505060405180910390f35b3480156102e857600080fd5b5061031d600480360381019080803573ffffffffffffffffffffffffffffffffffffffff169060200190929190505050610bda565b6040518082815260200191505060405180910390f35b34801561033f57600080fd5b50610348610bf2565b604051808273ffffffffffffffffffffffffffffffffffffffff1673ffffffffffffffffffffffffffffffffffffffff16815260200191505060405180910390f35b34801561039657600080fd5b5061039f610c18565b604051808260058111156103af57fe5b60ff16815260200191505060405180910390f35b3480156103cf57600080fd5b506103d8610c2b565b604051808215151515815260200191505060405180910390f35b3480156103fe57600080fd5b50610407610c3e565b6040518082815260200191505060405180910390f35b34801561042957600080fd5b50610432610c44565b005b34801561044057600080fd5b50610449610d05565b6040518082815260200191505060405180910390f35b34801561046b57600080fd5b506104a0600480360381019080803573ffffffffffffffffffffffffffffffffffffffff169060200190929190505050610d0b565b005b3480156104ae57600080fd5b506104b7610dc2565b6040518082815260200191505060405180910390f35b3480156104d957600080fd5b50610506600480360381019080803590602001908201803590602001919091929391929390505050610dc8565b005b34801561051457600080fd5b5061051d610eca565b604051808273ffffffffffffffffffffffffffffffffffffffff1673ffffffffffffffffffffffffffffffffffffffff16815260200191505060405180910390f35b34801561056b57600080fd5b5061058a60048036038101908080359060200190929190505050610ef0565b604051808215151515815260200191505060405180910390f35b3480156105b057600080fd5b506105b9610fc4565b6040518082815260200191505060405180910390f35b3480156105db57600080fd5b506105e4610fca565b604051808215151515815260200191505060405180910390f35b34801561060a57600080fd5b506106136111af565b005b34801561062157600080fd5b50610656600480360381019080803573ffffffffffffffffffffffffffffffffffffffff1690602001909291905050506114a4565b604051808215151515815260200191505060405180910390f35b34801561067c57600080fd5b506106856114c4565b6040518082815260200191505060405180910390f35b3480156106a757600080fd5b506106b06114ca565b6040518082815260200191505060405180910390f35b3480156106d257600080fd5b50610707600480360381019080803573ffffffffffffffffffffffffffffffffffffffff1690602001909291905050506114d0565b6040518082815260200191505060405180910390f35b34801561072957600080fd5b506107326114e8565b6040518082815260200191505060405180910390f35b34801561075457600080fd5b5061075d6114ee565b6040518082815260200191505060405180910390f35b34801561077f57600080fd5b506107886114f4565b6040518082815260200191505060405180910390f35b3480156107aa57600080fd5b506107b36114fa565b6040518082815260200191505060405180910390f35b3480156107d557600080fd5b5061081460048036038101908080359060200190929190803573ffffffffffffffffffffffffffffffffffffffff169060200190929190505050611500565b005b34801561082257600080fd5b5061082b61188c565b005b34801561083957600080fd5b50610842611abc565b6040518082815260200191505060405180910390f35b34801561086457600080fd5b5061088360048036038101908080359060200190929190505050611afa565b604051808273ffffffffffffffffffffffffffffffffffffffff1673ffffffffffffffffffffffffffffffffffffffff16815260200191505060405180910390f35b3480156108d157600080fd5b506108da611b38565b6040518082815260200191505060405180910390f35b3480156108fc57600080fd5b50610905611b3e565b6040518082815260200191505060405180910390f35b34801561092757600080fd5b5061095c600480360381019080803573ffffffffffffffffffffffffffffffffffffffff169060200190929190505050611b7c565b005b610992600480360381019080803573ffffffffffffffffffffffffffffffffffffffff169060200190929190505050610a2e565b005b3480156109a057600080fd5b506109d5600480360381019080803573ffffffffffffffffffffffffffffffffffffffff169060200190929190505050611c33565b005b3480156109e357600080fd5b506109ec611d8b565b604051808273ffffffffffffffffffffffffffffffffffffffff1673ffffffffffffffffffffffffffffffffffffffff16815260200191505060405180910390f35b600080349150610a3e8383611db0565b610a478261208e565b9050610a5e8260035461213e90919063ffffffff16565b600381905550610a6e838261215a565b8273ffffffffffffffffffffffffffffffffffffffff163373ffffffffffffffffffffffffffffffffffffffff167f623b3804fa71d67900d064613da8f94b9617215ee90799290593e1745087ad188484604051808381526020018281526020019250505060405180910390a3610ae58383612168565b610aed612215565b610af78383612294565b505050565b60155481565b60125481565b60165481565b60025481565b600460009054906101000a900473ffffffffffffffffffffffffffffffffffffffff1673ffffffffffffffffffffffffffffffffffffffff163373ffffffffffffffffffffffffffffffffffffffff16141515610b7057600080fd5b600660009054906101000a900460ff161515610b8b57600080fd5b6000600660006101000a81548160ff0219169083151502179055507f7805862f689e2f13df9f062ff482ad3ad112aca9e0847911ed832e158c525b3360405160405180910390a1565b60035481565b60096020528060005260406000206000915090505481565b600160009054906101000a900473ffffffffffffffffffffffffffffffffffffffff1681565b600a60009054906101000a900460ff1681565b600660009054906101000a900460ff1681565b60105481565b600460009054906101000a900473ffffffffffffffffffffffffffffffffffffffff1673ffffffffffffffffffffffffffffffffffffffff163373ffffffffffffffffffffffffffffffffffffffff16141515610ca057600080fd5b600660009054906101000a900460ff16151515610cbc57600080fd5b6001600660006101000a81548160ff0219169083151502179055507f6985a02210a168e66602d3235cb6db0e70f92b3ba4d376a33c0f3d9434bff62560405160405180910390a1565b60145481565b600460009054906101000a900473ffffffffffffffffffffffffffffffffffffffff1673ffffffffffffffffffffffffffffffffffffffff163373ffffffffffffffffffffffffffffffffffffffff16141515610d6757600080fd5b6000600560008373ffffffffffffffffffffffffffffffffffffffff1673ffffffffffffffffffffffffffffffffffffffff16815260200190815260200160002060006101000a81548160ff02191690831515021790555050565b60115481565b6000600460009054906101000a900473ffffffffffffffffffffffffffffffffffffffff1673ffffffffffffffffffffffffffffffffffffffff163373ffffffffffffffffffffffffffffffffffffffff16141515610e2657600080fd5b600090505b82829050811015610ec5576001600560008585858181101515610e4a57fe5b9050602002013573ffffffffffffffffffffffffffffffffffffffff1673ffffffffffffffffffffffffffffffffffffffff1673ffffffffffffffffffffffffffffffffffffffff16815260200190815260200160002060006101000a81548160ff0219169083151502179055508080600101915050610e2b565b505050565b600460009054906101000a900473ffffffffffffffffffffffffffffffffffffffff1681565b6000806000809150600090505b600780549050811015610fa457610f9560086000600784815481101515610f2057fe5b9060005260206000200160009054906101000a900473ffffffffffffffffffffffffffffffffffffffff1673ffffffffffffffffffffffffffffffffffffffff1673ffffffffffffffffffffffffffffffffffffffff168152602001908152602001600020548361213e90919063ffffffff16565b91508080600101915050610efd565b610fb8600a8561243890919063ffffffff16565b82111592505050919050565b600b5481565b600060016005811115610fd957fe5b600a60009054906101000a900460ff166005811115610ff457fe5b1480156110035750600d544210155b1561102d576002600a60006101000a81548160ff0219169083600581111561102757fe5b02179055505b6002600581111561103a57fe5b600a60009054906101000a900460ff16600581111561105557fe5b1480156110635750600e5442115b1561107157611070612470565b5b6003600581111561107e57fe5b600a60009054906101000a900460ff16600581111561109957fe5b1480156110ac5750620d2f00600e540142115b156110d6576004600a60006101000a81548160ff021916908360058111156110d057fe5b02179055505b600460058111156110e357fe5b600a60009054906101000a900460ff1660058111156110fe57fe5b14801561110c575060145442115b1561111a57611119612565565b5b600d54421015801561112e5750600e544211155b806111495750601354421015801561114857506014544211155b5b80156111aa57506002600581111561115d57fe5b600a60009054906101000a900460ff16600581111561117857fe5b14806111a957506004600581111561118c57fe5b600a60009054906101000a900460ff1660058111156111a757fe5b145b5b905090565b6000806000600460009054906101000a900473ffffffffffffffffffffffffffffffffffffffff1673ffffffffffffffffffffffffffffffffffffffff163373ffffffffffffffffffffffffffffffffffffffff1614151561121057600080fd5b600580600581111561121e57fe5b600a60009054906101000a900460ff16600581111561123957fe5b14151561124557600080fd5b600660019054906101000a900460ff1615151561126157600080fd5b61126b6028610ef0565b151561127657600080fd5b6112b360066112a5600a61129760175460115461213e90919063ffffffff16565b61243890919063ffffffff16565b6126a390919063ffffffff16565b9350600092505b6007805490508310156113b8576113666103e861135886600860006007898154811015156112e457fe5b9060005260206000200160009054906101000a900473ffffffffffffffffffffffffffffffffffffffff1673ffffffffffffffffffffffffffffffffffffffff1673ffffffffffffffffffffffffffffffffffffffff1681526020019081526020016000205461243890919063ffffffff16565b6126a390919063ffffffff16565b91506113ab60078481548110151561137a57fe5b9060005260206000200160009054906101000a900473ffffffffffffffffffffffffffffffffffffffff16836126b9565b82806001019350506112ba565b6000809054906101000a900473ffffffffffffffffffffffffffffffffffffffff1673ffffffffffffffffffffffffffffffffffffffff16637d64bcb46040518163ffffffff167c0100000000000000000000000000000000000000000000000000000000028152600401602060405180830381600087803b15801561143d57600080fd5b505af1158015611451573d6000803e3d6000fd5b505050506040513d602081101561146757600080fd5b8101908080519060200190929190505050151561148357600080fd5b6001600660016101000a81548160ff02191690831515021790555050505050565b60056020528060005260406000206000915054906101000a900460ff1681565b60175481565b600c5481565b60086020528060005260406000206000915090505481565b600f5481565b60185481565b600d5481565b60135481565b600460009054906101000a900473ffffffffffffffffffffffffffffffffffffffff1673ffffffffffffffffffffffffffffffffffffffff163373ffffffffffffffffffffffffffffffffffffffff1614151561155c57600080fd5b600080600581111561156a57fe5b600a60009054906101000a900460ff16600581111561158557fe5b14151561159157600080fd5b82600d819055506276a700600d5401600e81905550816000806101000a81548173ffffffffffffffffffffffffffffffffffffffff021916908373ffffffffffffffffffffffffffffffffffffffff16021790555060008273ffffffffffffffffffffffffffffffffffffffff166318160ddd6040518163ffffffff167c0100000000000000000000000000000000000000000000000000000000028152600401602060405180830381600087803b15801561164c57600080fd5b505af1158015611660573d6000803e3d6000fd5b505050506040513d602081101561167657600080fd5b8101908080519060200190929190505050141515611722576040517f08c379a00000000000000000000000000000000000000000000000000000000081526004018080602001828103825260248152602001807f546f6b656e73206861766520616c7265616479206265656e206469737472696281526020017f757465640000000000000000000000000000000000000000000000000000000081525060400191505060405180910390fd5b3073ffffffffffffffffffffffffffffffffffffffff168273ffffffffffffffffffffffffffffffffffffffff16638da5cb5b6040518163ffffffff167c0100000000000000000000000000000000000000000000000000000000028152600401602060405180830381600087803b15801561179d57600080fd5b505af11580156117b1573d6000803e3d6000fd5b505050506040513d60208110156117c757600080fd5b810190808051906020019092919050505073ffffffffffffffffffffffffffffffffffffffff16141515611863576040517f08c379a000000000000000000000000000000000000000000000000000000000815260040180806020018281038252601d8152602001807f546f6b656e20686173207468652077726f6e67206f776e65727368697000000081525060200191505060405180910390fd5b6001600a60006101000a81548160ff0219169083600581111561188257fe5b0217905550505050565b6001600581111561189957fe5b600a60009054906101000a900460ff1660058111156118b457fe5b1480156118c35750600d544210155b156118ed576002600a60006101000a81548160ff021916908360058111156118e757fe5b02179055505b600260058111156118fa57fe5b600a60009054906101000a900460ff16600581111561191557fe5b1480156119235750600e5442115b1561193157611930612470565b5b6003600581111561193e57fe5b600a60009054906101000a900460ff16600581111561195957fe5b14801561196c5750620d2f00600e540142115b15611996576004600a60006101000a81548160ff0219169083600581111561199057fe5b02179055505b600460058111156119a357fe5b600a60009054906101000a900460ff1660058111156119be57fe5b1480156119cc575060145442115b156119da576119d9612565565b5b600260058111156119e757fe5b600a60009054906101000a900460ff166005811115611a0257fe5b1415611a3257600b54611a22600354600f546127c790919063ffffffff16565b1015611a3157611a30612470565b5b5b60046005811115611a3f57fe5b600a60009054906101000a900460ff166005811115611a5a57fe5b1415611aba57600b54611a8e600354611a80600f5460155461213e90919063ffffffff16565b6127c790919063ffffffff16565b1015611ab9576005600a60006101000a81548160ff02191690836005811115611ab357fe5b02179055505b5b565b6000601254905060046005811115611ad057fe5b600a60009054906101000a900460ff166005811115611aeb57fe5b1415611af75760185490505b90565b600781815481101515611b0957fe5b906000526020600020016000915054906101000a900473ffffffffffffffffffffffffffffffffffffffff1681565b600e5481565b6000600f54905060046005811115611b5257fe5b600a60009054906101000a900460ff166005811115611b6d57fe5b1415611b795760155490505b90565b600460009054906101000a900473ffffffffffffffffffffffffffffffffffffffff1673ffffffffffffffffffffffffffffffffffffffff163373ffffffffffffffffffffffffffffffffffffffff16141515611bd857600080fd5b6001600560008373ffffffffffffffffffffffffffffffffffffffff1673ffffffffffffffffffffffffffffffffffffffff16815260200190815260200160002060006101000a81548160ff02191690831515021790555050565b600460009054906101000a900473ffffffffffffffffffffffffffffffffffffffff1673ffffffffffffffffffffffffffffffffffffffff163373ffffffffffffffffffffffffffffffffffffffff16141515611c8f57600080fd5b600073ffffffffffffffffffffffffffffffffffffffff168173ffffffffffffffffffffffffffffffffffffffff1614151515611ccb57600080fd5b8073ffffffffffffffffffffffffffffffffffffffff16600460009054906101000a900473ffffffffffffffffffffffffffffffffffffffff1673ffffffffffffffffffffffffffffffffffffffff167f8be0079c531659141344cd1fd0a4f28419497f9722a3daafe3b4186f6b6457e060405160405180910390a380600460006101000a81548173ffffffffffffffffffffffffffffffffffffffff021916908373ffffffffffffffffffffffffffffffffffffffff16021790555050565b6000809054906101000a900473ffffffffffffffffffffffffffffffffffffffff1681565b600080600084600560008273ffffffffffffffffffffffffffffffffffffffff1673ffffffffffffffffffffffffffffffffffffffff16815260200190815260200160002060009054906101000a900460ff161515611e0e57600080fd5b611e16610fca565b1515611e8a576040517f08c379a000000000000000000000000000000000000000000000000000000000815260040180806020018281038252600e8152602001807f53616c6520697320436c6f73656400000000000000000000000000000000000081525060200191505060405180910390fd5b849350600c54611ee285600960008a73ffffffffffffffffffffffffffffffffffffffff1673ffffffffffffffffffffffffffffffffffffffff1681526020019081526020016000205461213e90919063ffffffff16565b1115611f6c57611f4e600c54611f4086600960008b73ffffffffffffffffffffffffffffffffffffffff1673ffffffffffffffffffffffffffffffffffffffff1681526020019081526020016000205461213e90919063ffffffff16565b6127c790919063ffffffff16565b601981905550611f69601954856127c790919063ffffffff16565b93505b611f74611b3e565b9250611f7e611abc565b915082611f94858461213e90919063ffffffff16565b111561200c57611fd3611fc284611fb4878661213e90919063ffffffff16565b6127c790919063ffffffff16565b60195461213e90919063ffffffff16565b601981905550611fee601954866127c790919063ffffffff16565b93506001601a60006101000a81548160ff0219169083151502179055505b600b548410151515612086576040517f08c379a000000000000000000000000000000000000000000000000000000000815260040180806020018281038252601a8152602001807f436f6e747269627574696f6e2062656c6f77206d696e696d756d00000000000081525060200191505060405180910390fd5b505050505050565b60006120cd6002546120bf6103e86120b1601954876127c790919063ffffffff16565b61243890919063ffffffff16565b6126a390919063ffffffff16565b9050600260058111156120dc57fe5b600a60009054906101000a900460ff1660058111156120f757fe5b141561213957612136612127606461211960198561243890919063ffffffff16565b6126a390919063ffffffff16565b8261213e90919063ffffffff16565b90505b919050565b6000818301905082811015151561215157fe5b80905092915050565b61216482826126b9565b5050565b6121ce6019546121c083600960008773ffffffffffffffffffffffffffffffffffffffff1673ffffffffffffffffffffffffffffffffffffffff1681526020019081526020016000205461213e90919063ffffffff16565b6127c790919063ffffffff16565b600960008473ffffffffffffffffffffffffffffffffffffffff1673ffffffffffffffffffffffffffffffffffffffff168152602001908152602001600020819055505050565b600160009054906101000a900473ffffffffffffffffffffffffffffffffffffffff1673ffffffffffffffffffffffffffffffffffffffff166108fc612266601954346127c790919063ffffffff16565b9081150290604051600060405180830381858888f19350505050158015612291573d6000803e3d6000fd5b50565b6000806122a08361208e565b9150600260058111156122af57fe5b600a60009054906101000a900460ff1660058111156122ca57fe5b141561233d576122e58260115461213e90919063ffffffff16565b601181905550612314612303601954856127c790919063ffffffff16565b60125461213e90919063ffffffff16565b601281905550601a60009054906101000a900460ff161561233857612337612470565b5b6123a6565b6123528260175461213e90919063ffffffff16565b601781905550612381612370601954856127c790919063ffffffff16565b60185461213e90919063ffffffff16565b601881905550601a60009054906101000a900460ff16156123a5576123a4612565565b5b5b6123bd6019546003546127c790919063ffffffff16565b600381905550601954905060006019819055506000601a60006101000a81548160ff0219169083151502179055508373ffffffffffffffffffffffffffffffffffffffff166108fc829081150290604051600060405180830381858888f19350505050158015612431573d6000803e3d6000fd5b5050505050565b60008083141561244b576000905061246a565b818302905081838281151561245c57fe5b0414151561246657fe5b8090505b92915050565b600280600581111561247e57fe5b600a60009054906101000a900460ff16600581111561249957fe5b1415156124a557600080fd5b42600e81905550620d2f00600e540160138190555062278d00601354016014819055506124f36124e26011546010546127c790919063ffffffff16565b60165461213e90919063ffffffff16565b6016819055506125386125276125166019546003546127c790919063ffffffff16565b600f546127c790919063ffffffff16565b60155461213e90919063ffffffff16565b6015819055506003600a60006101000a81548160ff0219169083600581111561255d57fe5b021790555050565b600480600581111561257357fe5b600a60009054906101000a900460ff16600581111561258e57fe5b14151561259a57600080fd5b426014819055506000809054906101000a900473ffffffffffffffffffffffffffffffffffffffff1673ffffffffffffffffffffffffffffffffffffffff1663728f31e762eff10042016040518263ffffffff167c010000000000000000000000000000000000000000000000000000000002815260040180828152602001915050602060405180830381600087803b15801561263657600080fd5b505af115801561264a573d6000803e3d6000fd5b505050506040513d602081101561266057600080fd5b8101908080519060200190929190505050151561267c57600080fd5b6005600a60006101000a81548160ff0219169083600581111561269b57fe5b021790555050565b600081838115156126b057fe5b04905092915050565b6000809054906101000a900473ffffffffffffffffffffffffffffffffffffffff1673ffffffffffffffffffffffffffffffffffffffff166340c10f1983836040518363ffffffff167c0100000000000000000000000000000000000000000000000000000000028152600401808373ffffffffffffffffffffffffffffffffffffffff1673ffffffffffffffffffffffffffffffffffffffff16815260200182815260200192505050602060405180830381600087803b15801561277d57600080fd5b505af1158015612791573d6000803e3d6000fd5b505050506040513d60208110156127a757600080fd5b810190808051906020019092919050505015156127c357600080fd5b5050565b60008282111515156127d557fe5b8183039050929150505600a165627a7a72305820845790f531996aa5ba1b0473b1e8472a1b8a1e7f13a4d8d06268f5bd521164ff0029",
  "source": "pragma solidity 0.4.24;\n\nimport 'openzeppelin-solidity/contracts/crowdsale/emission/MintedCrowdsale.sol';\nimport 'openzeppelin-solidity/contracts/crowdsale/validation/WhitelistedCrowdsale.sol';\nimport './SolidToken.sol';\nimport './Distributable.sol';\nimport 'openzeppelin-solidity/contracts/lifecycle/Pausable.sol';\n\ncontract TokenSale is MintedCrowdsale, WhitelistedCrowdsale, Pausable, Distributable {\n\n  //Global Variables\n  mapping(address => uint) public contributions;\n  Stages public currentStage;\n  uint256 public minimumContribution;\n  uint256 public maximumContribution;\n\n  //PRESALE VARIABLES\n  uint256 public presale_StartDate;\n  uint256 public presale_EndDate;\n  uint256 public presale_Cap;\n  uint256 public presale_TokenCap;\n  uint256 public presale_TokesSold;\n  uint256 public presale_WeiRaised;\n\n  //MAINSALE VARIABLES\n  uint256 public mainSale_StartDate;\n  uint256 public mainSale_EndDate;\n  uint256 public mainSale_Cap;\n  uint256 public mainSale_TokenCap;\n  uint256 public mainSale_TokesSold;\n  uint256 public mainSale_WeiRaised;\n\n\n  //TEMPORARY VARIABLES - USED TO AVOID OVERRIDING MORE OPEN ZEPPELING FUNCTIONS\n  uint256 changeDue;\n  bool capReached;\n\n  enum Stages{\n    SETUP,\n    READY,\n    PRESALE,\n    BREAK,\n    MAINSALE,\n    FINALAIZED\n  }\n\n\n\n  /**\n      MODIFIERS\n  **/\n\n  /**\n    @dev Garantee that contract has the desired satge\n  **/\n  modifier atStage(Stages _currentStage){\n      require(currentStage == _currentStage);\n      _;\n  }\n  /**\n    @dev Execute automatically transitions between different Stages\n    based on time only\n  **/\n  modifier timedTransition(){\n    if(currentStage == Stages.READY && now >= presale_StartDate){\n      currentStage = Stages.PRESALE;\n    }\n    if(currentStage == Stages.PRESALE && now > presale_EndDate){\n      finalizePresale();\n    }\n    if(currentStage == Stages.BREAK && now > presale_EndDate + 10 days){\n      currentStage = Stages.MAINSALE;\n    }\n    if(currentStage == Stages.MAINSALE && now > mainSale_EndDate){\n      finalizeSale();\n    }\n    _;\n  }\n\n\n  /**\n      CONSTRUCTOR\n  **/\n\n  /**\n    @param _rate The exchange rate(multiplied by 1000) of tokens to eth(1 token = rate * ETH)\n    @param _wallet The address that recieves _forwardFunds\n    @param _token A token contract. Will be overriden later(needed fot OZ constructor)\n    @param _presaleCap the ETH cap of the presale.\n    @param _mainCap the ETH cap of the public sale.\n  **/\n  constructor(uint256 _rate, address _wallet, ERC20 _token, uint256 _presaleCap, uint256 _mainCap) public Crowdsale(_rate,_wallet,_token) {\n    presale_TokenCap = _presaleCap.div(rate).mul(1250); // shorthand for (cap / rate * 1000) * 1.25\n    mainSale_TokenCap = _mainCap.div(rate).mul(1000);\n    presale_Cap = _presaleCap;\n    mainSale_Cap = _mainCap;\n\n    minimumContribution = 0.5 ether;\n    maximumContribution = 100 ether;\n  }\n\n\n  /**\n      SETUP RELATED FUNCTIONS\n  **/\n\n  /**\n   * @dev Sets the initial date and token.\n   * @param initialDate A timestamp representing the start of the presale\n    @param tokenAddress  The address of the deployed SolidToken\n   */\n  function setupSale(uint256 initialDate, address tokenAddress) onlyOwner atStage(Stages.SETUP) public {\n    presale_StartDate = initialDate;\n    presale_EndDate = presale_StartDate + 90 days;\n    token = ERC20(tokenAddress);\n    require(SolidToken(tokenAddress).totalSupply() == 0, \"Tokens have already been distributed\");\n    require(SolidToken(tokenAddress).owner() == address(this), \"Token has the wrong ownership\");\n    currentStage = Stages.READY;\n  }\n\n\n  /**\n      STAGE RELATED FUNCTIONS\n  **/\n\n  /**\n    @dev Executes the timed transition and check for edge cases. Needed for when a stage transition makes\n    the transaction fail.\n  **/\n  function updateStage() timedTransition {\n    //Satge Conversions not covered by timed Transitions\n    if(currentStage == Stages.PRESALE){\n      if(presale_Cap.sub(weiRaised) < minimumContribution)\n        finalizePresale();\n    }\n    if(currentStage == Stages.MAINSALE){\n      if((mainSale_Cap.add(presale_Cap)).sub(weiRaised) < minimumContribution)\n        currentStage = Stages.FINALAIZED;\n    }\n  }\n\n  /**\n   * @dev Returns de ETH cap of the current currentStage\n   * @return uint256 representing the cap\n   */\n  function getCurrentCap() public  view returns(uint256 cap){\n    cap = presale_Cap;\n    if(currentStage == Stages.MAINSALE){\n      cap = mainSale_Cap;\n    }\n  }\n\n  /**\n   * @dev Returns de ETH cap of the current currentStage\n   * @return uint256 representing the raised amount in the stage\n   */\n  function getRaisedForCurrentStage() public view returns(uint256 raised){\n    raised = presale_WeiRaised;\n    if(currentStage == Stages.MAINSALE)\n      raised = mainSale_WeiRaised;\n  }\n\n  /**\n   * @dev Returns the sale status.\n   * @return True if open, false if closed\n   */\n  function saleOpen() public timedTransition returns(bool open) {\n    open = ((now >= presale_StartDate && now <= presale_EndDate) ||\n           (now >= mainSale_StartDate && now <= mainSale_EndDate)) &&\n           (currentStage == Stages.PRESALE || currentStage == Stages.MAINSALE);\n  }\n\n\n\n  /**\n    FINALIZATION RELATES FUNCTIONS\n  **/\n\n  /**\n   * @dev Checks and distribute the remaining tokens. Finish minting afterwards\n   * @return uint256 representing the cap\n   */\n  function distributeTokens() public onlyOwner atStage(Stages.FINALAIZED) {\n    require(!distributed);\n    require(checkPercentages(40));//Magic number -> Only 60% will be sold, therefore all other % must be less than 40%\n    uint256 totalTokens = (presale_TokesSold.add(mainSale_TokesSold)).mul(10).div(6);\n    for(uint i = 0; i < partners.length; i++){\n      uint256 amount = percentages[partners[i]].mul(totalTokens).div(1000);\n      _deliverTokens(partners[i], amount);\n    }\n    require(SolidToken(token).finishMinting());\n    distributed = true;\n  }\n\n  /**\n   * @dev Finalizes the presale and sets up the break and public sales\n   *\n   */\n  function finalizePresale() atStage(Stages.PRESALE) internal{\n    presale_EndDate = now;\n    mainSale_StartDate = presale_EndDate + 10 days;\n    mainSale_EndDate = mainSale_StartDate + 30 days;\n    mainSale_TokenCap = mainSale_TokenCap.add(presale_TokenCap.sub(presale_TokesSold));\n    mainSale_Cap = mainSale_Cap.add(presale_Cap.sub(weiRaised.sub(changeDue)));\n    currentStage = Stages.BREAK;\n  }\n\n  /**\n   * @dev Finalizes the public sale\n   *\n   */\n  function finalizeSale() atStage(Stages.MAINSALE) internal {\n    mainSale_EndDate = now;\n    require(SolidToken(token).setTransferEnablingDate(now + 182 days));\n    currentStage = Stages.FINALAIZED;\n  }\n\n\n  /**\n      OPEN ZEPPELIN OVERRIDES\n  **/\n\n  /**\n   * @dev Validation of an incoming purchase. Use require statements to revert state when conditions are not met. Use super to concatenate validations.\n   * @param _beneficiary Address performing the token purchase\n   * @param _weiAmount Value in wei involved in the purchase\n   */\n  function _preValidatePurchase(address _beneficiary, uint256 _weiAmount) isWhitelisted(_beneficiary) internal {\n    require(saleOpen(), \"Sale is Closed\");\n\n    // Check for edge cases\n    uint256 acceptedValue = _weiAmount;\n    if(contributions[_beneficiary].add(acceptedValue) > maximumContribution){\n      changeDue = (contributions[_beneficiary].add(acceptedValue)).sub(maximumContribution);\n      acceptedValue = acceptedValue.sub(changeDue);\n    }\n    uint256 currentCap = getCurrentCap();\n    uint256 raised = getRaisedForCurrentStage();\n    if(raised.add(acceptedValue) > currentCap){\n      changeDue = changeDue.add(raised.add(acceptedValue).sub(currentCap));\n      acceptedValue = _weiAmount.sub(changeDue);\n      capReached = true;\n    }\n    require(acceptedValue >= minimumContribution, \"Contribution below minimum\");\n  }\n\n  /**\n   * @dev Override to extend the way in which ether is converted to tokens.\n   * @param _weiAmount Value in wei to be converted into tokens\n   * @return Number of tokens that can be purchased with the specified _weiAmount\n   */\n  function _getTokenAmount(uint256 _weiAmount) internal view returns (uint256 amount) {\n    amount = (_weiAmount.sub(changeDue)).mul(1000).div(rate); // Multiplication to account for the decimal cases in the rate\n    if(currentStage == Stages.PRESALE){\n      amount = amount.add(amount.mul(25).div(100)); //Add bonus\n    }\n  }\n\n  /**\n   * @dev Validation of an executed purchase. Observe state and use revert statements to undo rollback when valid conditions are not met.\n   * @param _beneficiary Address performing the token purchase\n   * @param _weiAmount Value in wei involved in the purchase\n   */\n  function _postValidatePurchase(address _beneficiary, uint256 _weiAmount) internal {\n    uint256 tokenAmount = _getTokenAmount(_weiAmount);\n\n    if(currentStage == Stages.PRESALE){\n      presale_TokesSold = presale_TokesSold.add(tokenAmount);\n      presale_WeiRaised = presale_WeiRaised.add(_weiAmount.sub(changeDue));\n      if(capReached)\n        finalizePresale();\n    } else{\n      mainSale_TokesSold = mainSale_TokesSold.add(tokenAmount);\n      mainSale_WeiRaised = mainSale_WeiRaised.add(_weiAmount.sub(changeDue));\n      if(capReached)\n        finalizeSale();\n    }\n\n    //Triggers for reaching cap\n    weiRaised = weiRaised.sub(changeDue);\n    uint256 change = changeDue;\n    changeDue = 0;\n    capReached = false;\n    _beneficiary.transfer(change);\n  }\n\n  /**\n   * @dev Override for extensions that require an internal state to check for validity (current user contributions, etc.)\n   * @param _beneficiary Address receiving the tokens\n   * @param _weiAmount Value in wei involved in the purchase\n   */\n  function _updatePurchasingState(address _beneficiary, uint256 _weiAmount) internal {\n    contributions[_beneficiary] = contributions[_beneficiary].add(_weiAmount).sub(changeDue);\n  }\n\n  /**\n   * @dev Determines how ETH is stored/forwarded on purchases.\n   */\n  function _forwardFunds() internal {\n    wallet.transfer(msg.value.sub(changeDue));\n  }\n\n}\n",
  "sourcePath": "/home/jgcarv/Dev/Ethereum/Solidified/Crowdsale/Smart-Contracts/contracts/TokenSale.sol",
  "compiler": {
    "name": "solc",
    "version": "0.4.24+commit.e67f0147.Emscripten.clang"
  },
  "schemaVersion": "2.0.0",
  "updatedAt": "2018-06-11T19:15:54.469Z"
}