{
  "contractName": "TokenSale",
  "abi": [
    {
      "constant": true,
      "inputs": [],
      "name": "rate",
      "outputs": [
        {
          "name": "",
          "type": "uint256"
        }
      ],
      "payable": false,
      "stateMutability": "view",
      "type": "function"
    },
    {
      "constant": true,
      "inputs": [],
      "name": "weiRaised",
      "outputs": [
        {
          "name": "",
          "type": "uint256"
        }
      ],
      "payable": false,
      "stateMutability": "view",
      "type": "function"
    },
    {
      "constant": true,
      "inputs": [],
      "name": "wallet",
      "outputs": [
        {
          "name": "",
          "type": "address"
        }
      ],
      "payable": false,
      "stateMutability": "view",
      "type": "function"
    },
    {
      "constant": true,
      "inputs": [],
      "name": "minimumContribution",
      "outputs": [
        {
          "name": "",
          "type": "uint256"
        }
      ],
      "payable": false,
      "stateMutability": "view",
      "type": "function"
    },
    {
      "constant": true,
      "inputs": [],
      "name": "maximumContribution",
      "outputs": [
        {
          "name": "",
          "type": "uint256"
        }
      ],
      "payable": false,
      "stateMutability": "view",
      "type": "function"
    },
    {
      "constant": true,
      "inputs": [],
      "name": "stage",
      "outputs": [
        {
          "name": "",
          "type": "uint8"
        }
      ],
      "payable": false,
      "stateMutability": "view",
      "type": "function"
    },
    {
      "constant": false,
      "inputs": [
        {
          "name": "_beneficiary",
          "type": "address"
        }
      ],
      "name": "buyTokens",
      "outputs": [],
      "payable": true,
      "stateMutability": "payable",
      "type": "function"
    },
    {
      "constant": true,
      "inputs": [],
      "name": "token",
      "outputs": [
        {
          "name": "",
          "type": "address"
        }
      ],
      "payable": false,
      "stateMutability": "view",
      "type": "function"
    },
    {
      "inputs": [
        {
          "name": "_rate",
          "type": "uint256"
        },
        {
          "name": "_wallet",
          "type": "address"
        },
        {
          "name": "_token",
          "type": "address"
        },
        {
          "name": "PresaleCap",
          "type": "uint256"
        },
        {
          "name": "PublicSaleCap",
          "type": "uint256"
        }
      ],
      "payable": false,
      "stateMutability": "nonpayable",
      "type": "constructor"
    },
    {
      "payable": true,
      "stateMutability": "payable",
      "type": "fallback"
    },
    {
      "anonymous": false,
      "inputs": [
        {
          "indexed": true,
          "name": "purchaser",
          "type": "address"
        },
        {
          "indexed": true,
          "name": "beneficiary",
          "type": "address"
        },
        {
          "indexed": false,
          "name": "value",
          "type": "uint256"
        },
        {
          "indexed": false,
          "name": "amount",
          "type": "uint256"
        }
      ],
      "name": "TokenPurchase",
      "type": "event"
    },
    {
      "constant": false,
      "inputs": [],
      "name": "getCurrentCap",
      "outputs": [
        {
          "name": "cap",
          "type": "uint256"
        }
      ],
      "payable": false,
      "stateMutability": "nonpayable",
      "type": "function"
    },
    {
      "constant": false,
      "inputs": [],
      "name": "saleOpen",
      "outputs": [
        {
          "name": "open",
          "type": "bool"
        }
      ],
      "payable": false,
      "stateMutability": "nonpayable",
      "type": "function"
    },
    {
      "constant": false,
      "inputs": [],
      "name": "moveToPublicSale",
      "outputs": [],
      "payable": false,
      "stateMutability": "nonpayable",
      "type": "function"
    },
    {
      "constant": false,
      "inputs": [],
      "name": "finalizeSale",
      "outputs": [],
      "payable": false,
      "stateMutability": "nonpayable",
      "type": "function"
    }
  ],
  "bytecode": "0x608060405234801561001057600080fd5b5060405160a080610eae833981018060405281019080805190602001909291908051906020019092919080519060200190929190805190602001909291908051906020019092919050505084848460008311151561006d57600080fd5b600073ffffffffffffffffffffffffffffffffffffffff168273ffffffffffffffffffffffffffffffffffffffff16141515156100a957600080fd5b600073ffffffffffffffffffffffffffffffffffffffff168173ffffffffffffffffffffffffffffffffffffffff16141515156100e557600080fd5b8260028190555081600160006101000a81548173ffffffffffffffffffffffffffffffffffffffff021916908373ffffffffffffffffffffffffffffffffffffffff160217905550806000806101000a81548173ffffffffffffffffffffffffffffffffffffffff021916908373ffffffffffffffffffffffffffffffffffffffff1602179055505050505050505050610d2a806101846000396000f3006080604052600436106100ba576000357c0100000000000000000000000000000000000000000000000000000000900463ffffffff1680632c4e722e146100c55780634042b66f146100f0578063521eb2731461011b57806358a687ec14610172578063937e09b11461018957806399288dbb146101b45780639c2fcd45146101e3578063c040e6b81461020e578063d8c3070014610247578063ebdfdfb814610272578063ec8ac4d814610289578063fc0c546a146102bf575b6100c333610316565b005b3480156100d157600080fd5b506100da6103e4565b6040518082815260200191505060405180910390f35b3480156100fc57600080fd5b506101056103ea565b6040518082815260200191505060405180910390f35b34801561012757600080fd5b506101306103f0565b604051808273ffffffffffffffffffffffffffffffffffffffff1673ffffffffffffffffffffffffffffffffffffffff16815260200191505060405180910390f35b34801561017e57600080fd5b50610187610416565b005b34801561019557600080fd5b5061019e610418565b6040518082815260200191505060405180910390f35b3480156101c057600080fd5b506101c961041e565b604051808215151515815260200191505060405180910390f35b3480156101ef57600080fd5b506101f86104b5565b6040518082815260200191505060405180910390f35b34801561021a57600080fd5b506102236104bb565b6040518082600381111561023357fe5b60ff16815260200191505060405180910390f35b34801561025357600080fd5b5061025c6104ce565b6040518082815260200191505060405180910390f35b34801561027e57600080fd5b5061028761050c565b005b6102bd600480360381019080803573ffffffffffffffffffffffffffffffffffffffff169060200190929190505050610316565b005b3480156102cb57600080fd5b506102d4610532565b604051808273ffffffffffffffffffffffffffffffffffffffff1673ffffffffffffffffffffffffffffffffffffffff16815260200191505060405180910390f35b6000803491506103268383610557565b61032f8261087b565b90506103468260035461091790919063ffffffff16565b6003819055506103568382610933565b8273ffffffffffffffffffffffffffffffffffffffff163373ffffffffffffffffffffffffffffffffffffffff167f623b3804fa71d67900d064613da8f94b9617215ee90799290593e1745087ad188484604051808381526020018281526020019250505060405180910390a36103cd8383610941565b6103d56109ee565b6103df8383610a59565b505050565b60025481565b60035481565b600160009054906101000a900473ffffffffffffffffffffffffffffffffffffffff1681565b565b60065481565b6000600854421015801561043457506009544211155b8061044f5750600d54421015801561044e5750600d544211155b5b80156104b057506001600381111561046357fe5b600560009054906101000a900460ff16600381111561047e57fe5b14806104af57506002600381111561049257fe5b600560009054906101000a900460ff1660038111156104ad57fe5b145b5b905090565b60075481565b600560009054906101000a900460ff1681565b6000600a549050600260038111156104e257fe5b600560009054906101000a900460ff1660038111156104fd57fe5b141561050957600e5490505b90565b6002600560006101000a81548160ff0219169083600381111561052b57fe5b0217905550565b6000809054906101000a900473ffffffffffffffffffffffffffffffffffffffff1681565b6000806001600381111561056757fe5b600560009054906101000a900460ff16600381111561058257fe5b148015610590575060095442115b156105ba576002600560006101000a81548160ff021916908360038111156105b457fe5b02179055505b600260038111156105c757fe5b600560009054906101000a900460ff1660038111156105e257fe5b1480156105f05750600d5442115b1561061a576003600560006101000a81548160ff0219169083600381111561061457fe5b02179055505b61062261041e565b1515610696576040517f08c379a000000000000000000000000000000000000000000000000000000000815260040180806020018281038252600e8152602001807f53616c6520697320436c6f73656400000000000000000000000000000000000081525060200191505060405180910390fd5b6006548310151515610710576040517f08c379a000000000000000000000000000000000000000000000000000000000815260040180806020018281038252601a8152602001807f436f6e747269627574696f6e2062656c6f77206d696e696d756d00000000000081525060200191505060405180910390fd5b82915060075461076883600460003373ffffffffffffffffffffffffffffffffffffffff1673ffffffffffffffffffffffffffffffffffffffff1681526020019081526020016000205461091790919063ffffffff16565b11156107f2576107d46007546107c684600460003373ffffffffffffffffffffffffffffffffffffffff1673ffffffffffffffffffffffffffffffffffffffff1681526020019081526020016000205461091790919063ffffffff16565b610b8990919063ffffffff16565b6010819055506107ef60105483610b8990919063ffffffff16565b91505b6107fa6104ce565b9050806108128360035461091790919063ffffffff16565b111561087557610853610842826108348560035461091790919063ffffffff16565b610b8990919063ffffffff16565b60105461091790919063ffffffff16565b6010819055506001601160006101000a81548160ff0219169083151502179055505b50505050565b60006108a660025461089860105485610b8990919063ffffffff16565b610ba290919063ffffffff16565b9050600160038111156108b557fe5b600560009054906101000a900460ff1660038111156108d057fe5b14156109125761090f61090060646108f2601485610ba290919063ffffffff16565b610bda90919063ffffffff16565b8261091790919063ffffffff16565b90505b919050565b6000818301905082811015151561092a57fe5b80905092915050565b61093d8282610bf0565b5050565b6109a761095960105483610b8990919063ffffffff16565b600460008573ffffffffffffffffffffffffffffffffffffffff1673ffffffffffffffffffffffffffffffffffffffff1681526020019081526020016000205461091790919063ffffffff16565b600460008473ffffffffffffffffffffffffffffffffffffffff1673ffffffffffffffffffffffffffffffffffffffff168152602001908152602001600020819055505050565b600160009054906101000a900473ffffffffffffffffffffffffffffffffffffffff1673ffffffffffffffffffffffffffffffffffffffff166108fc349081150290604051600060405180830381858888f19350505050158015610a56573d6000803e3d6000fd5b50565b601160009054906101000a900460ff168015610a9a575060016003811115610a7d57fe5b600560009054906101000a900460ff166003811115610a9857fe5b145b15610aac57610aa761050c565b610afc565b601160009054906101000a900460ff168015610aed575060026003811115610ad057fe5b600560009054906101000a900460ff166003811115610aeb57fe5b145b15610afb57610afa610416565b5b5b610b13601054600354610b8990919063ffffffff16565b6003819055508173ffffffffffffffffffffffffffffffffffffffff166108fc6010549081150290604051600060405180830381858888f19350505050158015610b61573d6000803e3d6000fd5b5060006010819055506000601160006101000a81548160ff0219169083151502179055505050565b6000828211151515610b9757fe5b818303905092915050565b600080831415610bb55760009050610bd4565b8183029050818382811515610bc657fe5b04141515610bd057fe5b8090505b92915050565b60008183811515610be757fe5b04905092915050565b6000809054906101000a900473ffffffffffffffffffffffffffffffffffffffff1673ffffffffffffffffffffffffffffffffffffffff166340c10f1983836040518363ffffffff167c0100000000000000000000000000000000000000000000000000000000028152600401808373ffffffffffffffffffffffffffffffffffffffff1673ffffffffffffffffffffffffffffffffffffffff16815260200182815260200192505050602060405180830381600087803b158015610cb457600080fd5b505af1158015610cc8573d6000803e3d6000fd5b505050506040513d6020811015610cde57600080fd5b81019080805190602001909291905050501515610cfa57600080fd5b50505600a165627a7a7230582043a313923adc937a0e2e0fbcfd7561d0ba22d036bd5e0c4b4396451ddaaede5a0029",
  "source": "pragma solidity 0.4.24;\n\nimport 'openzeppelin-solidity/contracts/crowdsale/emission/MintedCrowdsale.sol';\n\ncontract TokenSale is MintedCrowdsale {\n\n  enum Stages{\n    Setup,\n    Presale,\n    PublicSale,\n    Finalized\n  }\n\n  //Global Variables\n  mapping(address => uint) contributions;\n  Stages public stage;\n  uint public minimumContribution;\n  uint public maximumContribution;\n\n  //PRESALE VARIABLES\n  uint presalestartDate;\n  uint presaleendDate;\n  uint presaleCap;\n  uint presaletokesSold;\n\n  //PUBLICSALE VARIABLES\n  uint mainSalestartDate;\n  uint mainSaleendDate;\n  uint publicSaleCap;\n  uint maintokesSold;\n\n\n  //TEMP VARIABLE - USED TO NOT OVERRIDE MORE OZ FUNCTIONS\n  uint changeDue;\n  bool capReached;\n\n\n  constructor(uint256 _rate, address _wallet, ERC20 _token, uint PresaleCap, uint PublicSaleCap) Crowdsale(_rate,_wallet,_token) {\n\n  }\n\n\n  modifier atStage(Stages _stage){\n    require(stage == _stage);\n    _;\n  }\n\n  modifier timedTransition(){\n    if(stage == Stages.Presale && now > presaleendDate){\n      stage = Stages.PublicSale;\n    }\n    if(stage == Stages.PublicSale && now > mainSaleendDate){\n      stage = Stages.Finalized;\n    }\n    _;\n  }\n\n  /**\n   * @dev Returns de ETH cap of the current stage\n   * @return uint representing the cap\n   */\n  function getCurrentCap() public returns(uint256 cap){\n    cap = presaleCap;\n    if(stage == Stages.PublicSale){\n      cap = publicSaleCap;\n    }\n  }\n\n  function saleOpen() public returns(bool open){\n    /* if((now >= presalestartDate && now <= presaleendDate) ||\n       (now >= mainSaleendDate && now <= mainSaleendDate)) {\n         open = true;\n    } */\n    open = ((now >= presalestartDate && now <= presaleendDate) ||\n           (now >= mainSaleendDate && now <= mainSaleendDate)) &&\n           (stage == Stages.Presale || stage == Stages.PublicSale);\n  }\n\n  function moveToPublicSale() public{\n    stage = Stages.PublicSale;\n  }\n\n  function finalizeSale() public {\n    // Mint tokens to founders and partnes\n    // Enable token transfer\n    // Finish token minting\n    // Token ownership?\n  }\n\n\n  //OVERRIDES\n\n  /**\n   * @dev Validation of an incoming purchase. Use require statements to revert state when conditions are not met. Use super to concatenate validations.\n   * @param _beneficiary Address performing the token purchase\n   * @param _weiAmount Value in wei involved in the purchase\n   */\n  function _preValidatePurchase(address _beneficiary, uint256 _weiAmount) timedTransition internal {\n    //require(_beneficiary != address(0)); - CHECK FOR WHITELIST INSTEAD\n\n    require(saleOpen(), \"Sale is Closed\");\n    require(_weiAmount >= minimumContribution, \"Contribution below minimum\");\n\n    // Check for edge cases\n    uint acceptedValue = _weiAmount;\n    if(contributions[msg.sender].add(acceptedValue) > maximumContribution){\n      changeDue = contributions[msg.sender].add(acceptedValue).sub(maximumContribution);\n      acceptedValue = acceptedValue.sub(changeDue);\n    }\n    uint256 currentCap = getCurrentCap();\n    if(weiRaised.add(acceptedValue) > currentCap){\n      changeDue = changeDue.add(weiRaised.add(acceptedValue).sub(currentCap));\n      capReached = true;\n    }\n  }\n\n  /**\n   * @dev Override to extend the way in which ether is converted to tokens.\n   * @param _weiAmount Value in wei to be converted into tokens\n   * @return Number of tokens that can be purchased with the specified _weiAmount\n   */\n  function _getTokenAmount(uint256 _weiAmount) internal view returns (uint256 amount) {\n    amount = (_weiAmount.sub(changeDue)).mul(rate);\n    if(stage == Stages.Presale){\n      amount = amount.add(amount.mul(20).div(100));\n    }\n  }\n\n  /**\n   * @dev Validation of an executed purchase. Observe state and use revert statements to undo rollback when valid conditions are not met.\n   * @param _beneficiary Address performing the token purchase\n   * @param _weiAmount Value in wei involved in the purchase\n   */\n  function _postValidatePurchase(address _beneficiary, uint256 _weiAmount) internal {\n    if(capReached && stage == Stages.Presale){\n      moveToPublicSale();\n    } else if(capReached && stage == Stages.PublicSale){\n      finalizeSale();\n    }\n    //Triggers for reaching cap\n    weiRaised = weiRaised.sub(changeDue);\n    _beneficiary.transfer(changeDue);\n    changeDue = 0; //TODO check for reentrancy\n    capReached = false;\n  }\n\n  /**\n   * @dev Override for extensions that require an internal state to check for validity (current user contributions, etc.)\n   * @param _beneficiary Address receiving the tokens\n   * @param _weiAmount Value in wei involved in the purchase\n   */\n  function _updatePurchasingState(address _beneficiary, uint256 _weiAmount) internal {\n    contributions[_beneficiary] = contributions[_beneficiary].add(_weiAmount.sub(changeDue));\n  }\n\n\n}\n",
  "sourcePath": "/home/jgcarv/Dev/Ethereum/Solidified/Crowdsale/Smart-Contracts/contracts/TokenSale.sol",
  "compiler": {
    "name": "solc",
    "version": "0.4.24+commit.e67f0147.Emscripten.clang"
  },
  "schemaVersion": "2.0.0",
  "updatedAt": "2018-05-29T16:44:46.631Z"
}