{
  "contractName": "TokenSale",
  "abi": [
    {
      "constant": true,
      "inputs": [],
      "name": "rate",
      "outputs": [
        {
          "name": "",
          "type": "uint256"
        }
      ],
      "payable": false,
      "stateMutability": "view",
      "type": "function"
    },
    {
      "constant": false,
      "inputs": [],
      "name": "unpause",
      "outputs": [],
      "payable": false,
      "stateMutability": "nonpayable",
      "type": "function"
    },
    {
      "constant": true,
      "inputs": [],
      "name": "weiRaised",
      "outputs": [
        {
          "name": "",
          "type": "uint256"
        }
      ],
      "payable": false,
      "stateMutability": "view",
      "type": "function"
    },
    {
      "constant": true,
      "inputs": [],
      "name": "wallet",
      "outputs": [
        {
          "name": "",
          "type": "address"
        }
      ],
      "payable": false,
      "stateMutability": "view",
      "type": "function"
    },
    {
      "constant": true,
      "inputs": [],
      "name": "currentStage",
      "outputs": [
        {
          "name": "",
          "type": "uint8"
        }
      ],
      "payable": false,
      "stateMutability": "view",
      "type": "function"
    },
    {
      "constant": true,
      "inputs": [],
      "name": "paused",
      "outputs": [
        {
          "name": "",
          "type": "bool"
        }
      ],
      "payable": false,
      "stateMutability": "view",
      "type": "function"
    },
    {
      "constant": false,
      "inputs": [],
      "name": "pause",
      "outputs": [],
      "payable": false,
      "stateMutability": "nonpayable",
      "type": "function"
    },
    {
      "constant": true,
      "inputs": [],
      "name": "owner",
      "outputs": [
        {
          "name": "",
          "type": "address"
        }
      ],
      "payable": false,
      "stateMutability": "view",
      "type": "function"
    },
    {
      "constant": true,
      "inputs": [],
      "name": "minimumContribution",
      "outputs": [
        {
          "name": "",
          "type": "uint256"
        }
      ],
      "payable": false,
      "stateMutability": "view",
      "type": "function"
    },
    {
      "constant": true,
      "inputs": [],
      "name": "maximumContribution",
      "outputs": [
        {
          "name": "",
          "type": "uint256"
        }
      ],
      "payable": false,
      "stateMutability": "view",
      "type": "function"
    },
    {
      "constant": false,
      "inputs": [
        {
          "name": "_beneficiary",
          "type": "address"
        }
      ],
      "name": "buyTokens",
      "outputs": [],
      "payable": true,
      "stateMutability": "payable",
      "type": "function"
    },
    {
      "constant": false,
      "inputs": [
        {
          "name": "newOwner",
          "type": "address"
        }
      ],
      "name": "transferOwnership",
      "outputs": [],
      "payable": false,
      "stateMutability": "nonpayable",
      "type": "function"
    },
    {
      "constant": true,
      "inputs": [],
      "name": "token",
      "outputs": [
        {
          "name": "",
          "type": "address"
        }
      ],
      "payable": false,
      "stateMutability": "view",
      "type": "function"
    },
    {
      "inputs": [
        {
          "name": "_rate",
          "type": "uint256"
        },
        {
          "name": "_wallet",
          "type": "address"
        },
        {
          "name": "_token",
          "type": "address"
        },
        {
          "name": "PresaleCap",
          "type": "uint256"
        },
        {
          "name": "PublicSaleCap",
          "type": "uint256"
        }
      ],
      "payable": false,
      "stateMutability": "nonpayable",
      "type": "constructor"
    },
    {
      "payable": true,
      "stateMutability": "payable",
      "type": "fallback"
    },
    {
      "anonymous": false,
      "inputs": [],
      "name": "Pause",
      "type": "event"
    },
    {
      "anonymous": false,
      "inputs": [],
      "name": "Unpause",
      "type": "event"
    },
    {
      "anonymous": false,
      "inputs": [
        {
          "indexed": true,
          "name": "previousOwner",
          "type": "address"
        },
        {
          "indexed": true,
          "name": "newOwner",
          "type": "address"
        }
      ],
      "name": "OwnershipTransferred",
      "type": "event"
    },
    {
      "anonymous": false,
      "inputs": [
        {
          "indexed": true,
          "name": "purchaser",
          "type": "address"
        },
        {
          "indexed": true,
          "name": "beneficiary",
          "type": "address"
        },
        {
          "indexed": false,
          "name": "value",
          "type": "uint256"
        },
        {
          "indexed": false,
          "name": "amount",
          "type": "uint256"
        }
      ],
      "name": "TokenPurchase",
      "type": "event"
    },
    {
      "constant": false,
      "inputs": [],
      "name": "updateStage",
      "outputs": [],
      "payable": false,
      "stateMutability": "nonpayable",
      "type": "function"
    },
    {
      "constant": false,
      "inputs": [
        {
          "name": "initialDate",
          "type": "uint256"
        }
      ],
      "name": "setupSale",
      "outputs": [],
      "payable": false,
      "stateMutability": "nonpayable",
      "type": "function"
    },
    {
      "constant": false,
      "inputs": [
        {
          "name": "_presaleSartDate",
          "type": "uint256"
        }
      ],
      "name": "setDates",
      "outputs": [],
      "payable": false,
      "stateMutability": "nonpayable",
      "type": "function"
    },
    {
      "constant": false,
      "inputs": [
        {
          "name": "_token",
          "type": "address"
        }
      ],
      "name": "setUpToken",
      "outputs": [],
      "payable": false,
      "stateMutability": "nonpayable",
      "type": "function"
    },
    {
      "constant": false,
      "inputs": [],
      "name": "getCurrentCap",
      "outputs": [
        {
          "name": "cap",
          "type": "uint256"
        }
      ],
      "payable": false,
      "stateMutability": "nonpayable",
      "type": "function"
    },
    {
      "constant": false,
      "inputs": [],
      "name": "saleOpen",
      "outputs": [
        {
          "name": "open",
          "type": "bool"
        }
      ],
      "payable": false,
      "stateMutability": "nonpayable",
      "type": "function"
    },
    {
      "constant": false,
      "inputs": [
        {
          "name": "beneficiaries",
          "type": "address[]"
        },
        {
          "name": "amounts",
          "type": "uint256[]"
        }
      ],
      "name": "distributeTokens",
      "outputs": [],
      "payable": false,
      "stateMutability": "nonpayable",
      "type": "function"
    },
    {
      "constant": false,
      "inputs": [],
      "name": "finalizeSale",
      "outputs": [],
      "payable": false,
      "stateMutability": "nonpayable",
      "type": "function"
    }
  ],
  "bytecode": "0x60806040526000600460146101000a81548160ff02191690831515021790555034801561002b57600080fd5b5060405160a080611c73833981018060405281019080805190602001909291908051906020019092919080519060200190929190805190602001909291908051906020019092919050505084848460008311151561008857600080fd5b600073ffffffffffffffffffffffffffffffffffffffff168273ffffffffffffffffffffffffffffffffffffffff16141515156100c457600080fd5b600073ffffffffffffffffffffffffffffffffffffffff168173ffffffffffffffffffffffffffffffffffffffff161415151561010057600080fd5b8260028190555081600160006101000a81548173ffffffffffffffffffffffffffffffffffffffff021916908373ffffffffffffffffffffffffffffffffffffffff160217905550806000806101000a81548173ffffffffffffffffffffffffffffffffffffffff021916908373ffffffffffffffffffffffffffffffffffffffff16021790555050505033600460006101000a81548173ffffffffffffffffffffffffffffffffffffffff021916908373ffffffffffffffffffffffffffffffffffffffff1602179055505050505050611a93806101e06000396000f30060806040526004361061011d576000357c0100000000000000000000000000000000000000000000000000000000900463ffffffff168063081cf40c146101285780632c4e722e146101555780633f4ba83a146101805780634042b66f146101975780634bd09c2a146101c2578063521eb2731461026b57806358a687ec146102c25780635bf5d54c146102d95780635c975abb1461031257806368039cbf146103415780638456cb59146103845780638da5cb5b1461039b578063937e09b1146103f257806399288dbb1461041d5780639c2fcd451461044c578063b61c2b1014610477578063c062f578146104a4578063d8c30700146104bb578063ec8ac4d8146104e6578063f2fde38b1461051c578063fc0c546a1461055f575b610126336105b6565b005b34801561013457600080fd5b5061015360048036038101908080359060200190929190505050610684565b005b34801561016157600080fd5b5061016a61074a565b6040518082815260200191505060405180910390f35b34801561018c57600080fd5b50610195610750565b005b3480156101a357600080fd5b506101ac610810565b6040518082815260200191505060405180910390f35b3480156101ce57600080fd5b506102696004803603810190808035906020019082018035906020019080806020026020016040519081016040528093929190818152602001838360200280828437820191505050505050919291929080359060200190820180359060200190808060200260200160405190810160405280939291908181526020018383602002808284378201915050505050509192919290505050610816565b005b34801561027757600080fd5b50610280610902565b604051808273ffffffffffffffffffffffffffffffffffffffff1673ffffffffffffffffffffffffffffffffffffffff16815260200191505060405180910390f35b3480156102ce57600080fd5b506102d7610928565b005b3480156102e557600080fd5b506102ee6109f5565b604051808260048111156102fe57fe5b60ff16815260200191505060405180910390f35b34801561031e57600080fd5b50610327610a08565b604051808215151515815260200191505060405180910390f35b34801561034d57600080fd5b50610382600480360381019080803573ffffffffffffffffffffffffffffffffffffffff169060200190929190505050610a1b565b005b34801561039057600080fd5b50610399610bf1565b005b3480156103a757600080fd5b506103b0610cb2565b604051808273ffffffffffffffffffffffffffffffffffffffff1673ffffffffffffffffffffffffffffffffffffffff16815260200191505060405180910390f35b3480156103fe57600080fd5b50610407610cd8565b6040518082815260200191505060405180910390f35b34801561042957600080fd5b50610432610cde565b604051808215151515815260200191505060405180910390f35b34801561045857600080fd5b50610461610d75565b6040518082815260200191505060405180910390f35b34801561048357600080fd5b506104a260048036038101908080359060200190929190505050610d7b565b005b3480156104b057600080fd5b506104b9610e29565b005b3480156104c757600080fd5b506104d061102a565b6040518082815260200191505060405180910390f35b61051a600480360381019080803573ffffffffffffffffffffffffffffffffffffffff1690602001909291905050506105b6565b005b34801561052857600080fd5b5061055d600480360381019080803573ffffffffffffffffffffffffffffffffffffffff169060200190929190505050611068565b005b34801561056b57600080fd5b506105746111c0565b604051808273ffffffffffffffffffffffffffffffffffffffff1673ffffffffffffffffffffffffffffffffffffffff16815260200191505060405180910390f35b6000803491506105c683836111e5565b6105cf826115e6565b90506105e68260035461168290919063ffffffff16565b6003819055506105f6838261169e565b8273ffffffffffffffffffffffffffffffffffffffff163373ffffffffffffffffffffffffffffffffffffffff167f623b3804fa71d67900d064613da8f94b9617215ee90799290593e1745087ad188484604051808381526020018281526020019250505060405180910390a361066d83836116ac565b610675611759565b61067f83836117c4565b505050565b600460009054906101000a900473ffffffffffffffffffffffffffffffffffffffff1673ffffffffffffffffffffffffffffffffffffffff163373ffffffffffffffffffffffffffffffffffffffff161415156106e057600080fd5b60008060048111156106ee57fe5b600660009054906101000a900460ff16600481111561070957fe5b14151561071557600080fd5b816009819055506276a70060095401600a81905550620d2f00600a5401600d8190555062278d00600d5401600e819055505050565b60025481565b600460009054906101000a900473ffffffffffffffffffffffffffffffffffffffff1673ffffffffffffffffffffffffffffffffffffffff163373ffffffffffffffffffffffffffffffffffffffff161415156107ac57600080fd5b600460149054906101000a900460ff1615156107c757600080fd5b6000600460146101000a81548160ff0219169083151502179055507f7805862f689e2f13df9f062ff482ad3ad112aca9e0847911ed832e158c525b3360405160405180910390a1565b60035481565b6000600460009054906101000a900473ffffffffffffffffffffffffffffffffffffffff1673ffffffffffffffffffffffffffffffffffffffff163373ffffffffffffffffffffffffffffffffffffffff1614151561087457600080fd5b600480600481111561088257fe5b600660009054906101000a900460ff16600481111561089d57fe5b1415156108a957600080fd5b600091505b83518210156108fc576108ef84838151811015156108c857fe5b9060200190602002015184848151811015156108e057fe5b906020019060200201516118f2565b81806001019250506108ae565b50505050565b600160009054906101000a900473ffffffffffffffffffffffffffffffffffffffff1681565b6000809054906101000a900473ffffffffffffffffffffffffffffffffffffffff1673ffffffffffffffffffffffffffffffffffffffff16637d64bcb46040518163ffffffff167c0100000000000000000000000000000000000000000000000000000000028152600401602060405180830381600087803b1580156109ad57600080fd5b505af11580156109c1573d6000803e3d6000fd5b505050506040513d60208110156109d757600080fd5b810190808051906020019092919050505015156109f357600080fd5b565b600660009054906101000a900460ff1681565b600460149054906101000a900460ff1681565b600460009054906101000a900473ffffffffffffffffffffffffffffffffffffffff1673ffffffffffffffffffffffffffffffffffffffff163373ffffffffffffffffffffffffffffffffffffffff16141515610a7757600080fd5b6000806004811115610a8557fe5b600660009054906101000a900460ff166004811115610aa057fe5b141515610aac57600080fd5b3073ffffffffffffffffffffffffffffffffffffffff168273ffffffffffffffffffffffffffffffffffffffff16638da5cb5b6040518163ffffffff167c0100000000000000000000000000000000000000000000000000000000028152600401602060405180830381600087803b158015610b2757600080fd5b505af1158015610b3b573d6000803e3d6000fd5b505050506040513d6020811015610b5157600080fd5b810190808051906020019092919050505073ffffffffffffffffffffffffffffffffffffffff16141515610bed576040517f08c379a00000000000000000000000000000000000000000000000000000000081526004018080602001828103825260168152602001807f4973737565207769746820746f6b656e2073657475700000000000000000000081525060200191505060405180910390fd5b5050565b600460009054906101000a900473ffffffffffffffffffffffffffffffffffffffff1673ffffffffffffffffffffffffffffffffffffffff163373ffffffffffffffffffffffffffffffffffffffff16141515610c4d57600080fd5b600460149054906101000a900460ff16151515610c6957600080fd5b6001600460146101000a81548160ff0219169083151502179055507f6985a02210a168e66602d3235cb6db0e70f92b3ba4d376a33c0f3d9434bff62560405160405180910390a1565b600460009054906101000a900473ffffffffffffffffffffffffffffffffffffffff1681565b60075481565b60006009544210158015610cf45750600a544211155b80610d0f5750600e544210158015610d0e5750600e544211155b5b8015610d70575060016004811115610d2357fe5b600660009054906101000a900460ff166004811115610d3e57fe5b1480610d6f575060036004811115610d5257fe5b600660009054906101000a900460ff166004811115610d6d57fe5b145b5b905090565b60085481565b600460009054906101000a900473ffffffffffffffffffffffffffffffffffffffff1673ffffffffffffffffffffffffffffffffffffffff163373ffffffffffffffffffffffffffffffffffffffff16141515610dd757600080fd5b6000806004811115610de557fe5b600660009054906101000a900460ff166004811115610e0057fe5b141515610e0c57600080fd5b6001600b819055506002600f81905550610e2582610684565b5050565b60006004811115610e3657fe5b600660009054906101000a900460ff166004811115610e5157fe5b148015610e6057506009544210155b15610e8a576001600660006101000a81548160ff02191690836004811115610e8457fe5b02179055505b60016004811115610e9757fe5b600660009054906101000a900460ff166004811115610eb257fe5b148015610ec05750600a5442115b15610eea576002600660006101000a81548160ff02191690836004811115610ee457fe5b02179055505b60026004811115610ef757fe5b600660009054906101000a900460ff166004811115610f1257fe5b148015610f255750620d2f00600a540142115b15610f4f576003600660006101000a81548160ff02191690836004811115610f4957fe5b02179055505b60036004811115610f5c57fe5b600660009054906101000a900460ff166004811115610f7757fe5b148015610f855750600e5442115b15610faf576004600660006101000a81548160ff02191690836004811115610fa957fe5b02179055505b60016004811115610fbc57fe5b600660009054906101000a900460ff166004811115610fd757fe5b141561102857600754610ff7600c54600b54611a0090919063ffffffff16565b10151561100357600080fd5b6002600660006101000a81548160ff0219169083600481111561102257fe5b02179055505b565b6000600b5490506003600481111561103e57fe5b600660009054906101000a900460ff16600481111561105957fe5b141561106557600f5490505b90565b600460009054906101000a900473ffffffffffffffffffffffffffffffffffffffff1673ffffffffffffffffffffffffffffffffffffffff163373ffffffffffffffffffffffffffffffffffffffff161415156110c457600080fd5b600073ffffffffffffffffffffffffffffffffffffffff168173ffffffffffffffffffffffffffffffffffffffff161415151561110057600080fd5b8073ffffffffffffffffffffffffffffffffffffffff16600460009054906101000a900473ffffffffffffffffffffffffffffffffffffffff1673ffffffffffffffffffffffffffffffffffffffff167f8be0079c531659141344cd1fd0a4f28419497f9722a3daafe3b4186f6b6457e060405160405180910390a380600460006101000a81548173ffffffffffffffffffffffffffffffffffffffff021916908373ffffffffffffffffffffffffffffffffffffffff16021790555050565b6000809054906101000a900473ffffffffffffffffffffffffffffffffffffffff1681565b600080600060048111156111f557fe5b600660009054906101000a900460ff16600481111561121057fe5b14801561121f57506009544210155b15611249576001600660006101000a81548160ff0219169083600481111561124357fe5b02179055505b6001600481111561125657fe5b600660009054906101000a900460ff16600481111561127157fe5b14801561127f5750600a5442115b156112a9576002600660006101000a81548160ff021916908360048111156112a357fe5b02179055505b600260048111156112b657fe5b600660009054906101000a900460ff1660048111156112d157fe5b1480156112e45750620d2f00600a540142115b1561130e576003600660006101000a81548160ff0219169083600481111561130857fe5b02179055505b6003600481111561131b57fe5b600660009054906101000a900460ff16600481111561133657fe5b1480156113445750600e5442115b1561136e576004600660006101000a81548160ff0219169083600481111561136857fe5b02179055505b611376610cde565b15156113ea576040517f08c379a000000000000000000000000000000000000000000000000000000000815260040180806020018281038252600e8152602001807f53616c6520697320436c6f73656400000000000000000000000000000000000081525060200191505060405180910390fd5b82915060085461144283600560003373ffffffffffffffffffffffffffffffffffffffff1673ffffffffffffffffffffffffffffffffffffffff1681526020019081526020016000205461168290919063ffffffff16565b11156114cc576114ae6008546114a084600560003373ffffffffffffffffffffffffffffffffffffffff1673ffffffffffffffffffffffffffffffffffffffff1681526020019081526020016000205461168290919063ffffffff16565b611a0090919063ffffffff16565b6011819055506114c960115483611a0090919063ffffffff16565b91505b6114d461102a565b9050806114ec8360035461168290919063ffffffff16565b11156115665761152d61151c8261150e8560035461168290919063ffffffff16565b611a0090919063ffffffff16565b60115461168290919063ffffffff16565b60118190555061154860115484611a0090919063ffffffff16565b91506001601260006101000a81548160ff0219169083151502179055505b60075482101515156115e0576040517f08c379a000000000000000000000000000000000000000000000000000000000815260040180806020018281038252601a8152602001807f436f6e747269627574696f6e2062656c6f77206d696e696d756d00000000000081525060200191505060405180910390fd5b50505050565b600061161160025461160360115485611a0090919063ffffffff16565b611a1990919063ffffffff16565b90506001600481111561162057fe5b600660009054906101000a900460ff16600481111561163b57fe5b141561167d5761167a61166b606461165d601485611a1990919063ffffffff16565b611a5190919063ffffffff16565b8261168290919063ffffffff16565b90505b919050565b6000818301905082811015151561169557fe5b80905092915050565b6116a882826118f2565b5050565b6117126116c460115483611a0090919063ffffffff16565b600560008573ffffffffffffffffffffffffffffffffffffffff1673ffffffffffffffffffffffffffffffffffffffff1681526020019081526020016000205461168290919063ffffffff16565b600560008473ffffffffffffffffffffffffffffffffffffffff1673ffffffffffffffffffffffffffffffffffffffff168152602001908152602001600020819055505050565b600160009054906101000a900473ffffffffffffffffffffffffffffffffffffffff1673ffffffffffffffffffffffffffffffffffffffff166108fc349081150290604051600060405180830381858888f193505050501580156117c1573d6000803e3d6000fd5b50565b6000601260009054906101000a900460ff1680156118075750600160048111156117ea57fe5b600660009054906101000a900460ff16600481111561180557fe5b145b1561181157611861565b601260009054906101000a900460ff16801561185257506003600481111561183557fe5b600660009054906101000a900460ff16600481111561185057fe5b145b156118605761185f610928565b5b5b611878601154600354611a0090919063ffffffff16565b600381905550601154905060006011819055506000601260006101000a81548160ff0219169083151502179055508273ffffffffffffffffffffffffffffffffffffffff166108fc829081150290604051600060405180830381858888f193505050501580156118ec573d6000803e3d6000fd5b50505050565b6000809054906101000a900473ffffffffffffffffffffffffffffffffffffffff1673ffffffffffffffffffffffffffffffffffffffff166340c10f1983836040518363ffffffff167c0100000000000000000000000000000000000000000000000000000000028152600401808373ffffffffffffffffffffffffffffffffffffffff1673ffffffffffffffffffffffffffffffffffffffff16815260200182815260200192505050602060405180830381600087803b1580156119b657600080fd5b505af11580156119ca573d6000803e3d6000fd5b505050506040513d60208110156119e057600080fd5b810190808051906020019092919050505015156119fc57600080fd5b5050565b6000828211151515611a0e57fe5b818303905092915050565b600080831415611a2c5760009050611a4b565b8183029050818382811515611a3d57fe5b04141515611a4757fe5b8090505b92915050565b60008183811515611a5e57fe5b049050929150505600a165627a7a72305820e728f13028d2c9f5297a1f8c1f0bdefb351e63088cde15ab05e3d5b41d01e6ee0029",
  "source": "pragma solidity 0.4.24;\n\nimport 'openzeppelin-solidity/contracts/crowdsale/emission/MintedCrowdsale.sol';\nimport './SolidifiedToken.sol';\nimport 'openzeppelin-solidity/contracts/lifecycle/Pausable.sol';\n\ncontract TokenSale is MintedCrowdsale, Pausable {\n\n  enum Stages{\n    SETUP,\n    PRESALE,\n    BREAK,\n    PUBLICSALE,\n    FINALAIZED\n  }\n\n  //Global Variables\n  mapping(address => uint) contributions;\n  Stages public currentStage;\n  uint256 public minimumContribution;\n  uint256 public maximumContribution;\n\n  //PRESALE VARIABLES\n  uint256 presale_StartDate;\n  uint256 presale_EndDate;\n  uint256 presaleCap;\n  uint256 presale_TokesSold;\n\n  //PUBLICSALE VARIABLES\n  uint256 publicSale_StartDate;\n  uint256 publicSale_EndDate;\n  uint256 publicSaleCap;\n  uint256 publicSale_TokesSold;\n\n\n  //TEMP VARIABLE - USED TO NOT OVERRIDE MORE OZ FUNCTIONS\n  uint256 changeDue;\n  bool capReached;\n\n\n  constructor(uint256 _rate, address _wallet, ERC20 _token, uint256 PresaleCap, uint256 PublicSaleCap) Crowdsale(_rate,_wallet,_token) {\n\n  }\n\n  modifier atStage(Stages _currentStage){\n    require(currentStage == _currentStage);\n    _;\n  }\n\n  modifier timedTransition(){\n    if(currentStage == Stages.SETUP && now >= presale_StartDate){\n      currentStage = Stages.PRESALE;\n    }\n    if(currentStage == Stages.PRESALE && now > presale_EndDate){\n      currentStage = Stages.BREAK;\n    }\n    if(currentStage == Stages.BREAK && now > presale_EndDate + 10 days){\n      currentStage = Stages.PUBLICSALE;\n    }\n    if(currentStage == Stages.PUBLICSALE && now > publicSale_EndDate){\n      currentStage = Stages.FINALAIZED;\n    }\n    _;\n  }\n\n  function updateStage() timedTransition {\n    //Satge Conversions not covered by times Transitions\n    if(currentStage == Stages.PRESALE){\n      require(presaleCap.sub(presale_TokesSold) < minimumContribution);\n      currentStage = Stages.BREAK;\n    }\n  }\n\n  function setupSale(uint256 initialDate) onlyOwner atStage(Stages.SETUP) public {\n    presaleCap = 1;\n    publicSaleCap = 2;\n    setDates(initialDate);\n  }\n\n  /**\n   * @dev Sets tha dates and durations of the different sale stages\n   * @param _presaleSartDate A timestamp representing the start of the presale\n   */\n  function setDates(uint256 _presaleSartDate) onlyOwner atStage(Stages.SETUP) public {\n    presale_StartDate = _presaleSartDate;\n    presale_EndDate = presale_StartDate + 90 days;\n    publicSale_StartDate = presale_EndDate + 10 days;\n    publicSale_EndDate = publicSale_StartDate + 30 days;\n  }\n\n  function setUpToken(address _token) onlyOwner atStage(Stages.SETUP) public {\n    //token = ERC20(_token);\n    require(SolidifiedToken(_token).owner() == address(this), \"Issue with token setup\");\n  }\n\n  /**\n   * @dev Returns de ETH cap of the current currentStage\n   * @return uint256 representing the cap\n   */\n  function getCurrentCap() public returns(uint256 cap){\n    cap = presaleCap;\n    if(currentStage == Stages.PUBLICSALE){\n      cap = publicSaleCap;\n    }\n  }\n\n  function saleOpen() public returns(bool open){\n    /* if((now >= presale_StartDate && now <= presale_EndDate) ||\n       (now >= publicSale_EndDate && now <= publicSale_EndDate)) {\n         open = true;\n    } */\n    open = ((now >= presale_StartDate && now <= presale_EndDate) ||\n           (now >= publicSale_EndDate && now <= publicSale_EndDate)) &&\n           (currentStage == Stages.PRESALE || currentStage == Stages.PUBLICSALE);\n  }\n\n  function distributeTokens(address[] beneficiaries, uint256[] amounts) public onlyOwner atStage(Stages.FINALAIZED) {\n    for(uint i = 0; i < beneficiaries.length; i++){\n      _deliverTokens(beneficiaries[i], amounts[i]);\n    }\n  }\n\n/*\n  function moveToPublicSale() atStage(Stages.BREAK) public{\n    currentStage = Stages.PUBLICSALE;\n  } */\n\n  function finalizeSale() public {\n    // Mint tokens to founders and partnes\n    //distributeTokens();\n    // Enable token transfer\n    // Finish token minting\n    require(MintableToken(token).finishMinting());\n    // Token ownership?\n    //require(MintableToken(token).transferOwnership(owner));\n  }\n\n\n  //OVERRIDES\n\n  /**\n   * @dev Validation of an incoming purchase. Use require statements to revert state when conditions are not met. Use super to concatenate validations.\n   * @param _beneficiary Address performing the token purchase\n   * @param _weiAmount Value in wei involved in the purchase\n   */\n  function _preValidatePurchase(address _beneficiary, uint256 _weiAmount) timedTransition internal {\n    //require(_beneficiary != address(0)); - CHECK FOR WHITELIST INSTEAD\n\n    require(saleOpen(), \"Sale is Closed\");\n    //require(_weiAmount >= minimumContribution, \"Contribution below minimum\");\n\n    // Check for edge cases\n    uint256 acceptedValue = _weiAmount;\n    if(contributions[msg.sender].add(acceptedValue) > maximumContribution){\n      changeDue = contributions[msg.sender].add(acceptedValue).sub(maximumContribution);\n      acceptedValue = acceptedValue.sub(changeDue);\n    }\n    uint256 currentCap = getCurrentCap();\n    if(weiRaised.add(acceptedValue) > currentCap){\n      changeDue = changeDue.add(weiRaised.add(acceptedValue).sub(currentCap));\n      acceptedValue = _weiAmount.sub(changeDue);\n      capReached = true;\n    }\n    require(acceptedValue >= minimumContribution, \"Contribution below minimum\");\n  }\n\n  /**\n   * @dev Override to extend the way in which ether is converted to tokens.\n   * @param _weiAmount Value in wei to be converted into tokens\n   * @return Number of tokens that can be purchased with the specified _weiAmount\n   */\n  function _getTokenAmount(uint256 _weiAmount) internal view returns (uint256 amount) {\n    amount = (_weiAmount.sub(changeDue)).mul(rate);\n    if(currentStage == Stages.PRESALE){\n      amount = amount.add(amount.mul(20).div(100));\n    }\n  }\n\n  /**\n   * @dev Validation of an executed purchase. Observe state and use revert statements to undo rollback when valid conditions are not met.\n   * @param _beneficiary Address performing the token purchase\n   * @param _weiAmount Value in wei involved in the purchase\n   */\n  function _postValidatePurchase(address _beneficiary, uint256 _weiAmount) internal {\n    if(capReached && currentStage == Stages.PRESALE){\n      //moveToPublicSale(); //MoveToBreak\n    } else if(capReached && currentStage == Stages.PUBLICSALE){\n      finalizeSale();\n    }\n    //Triggers for reaching cap\n    weiRaised = weiRaised.sub(changeDue);\n    uint256 change = changeDue;\n    changeDue = 0;\n    capReached = false;\n    _beneficiary.transfer(change);\n  }\n\n  /**\n   * @dev Override for extensions that require an internal state to check for validity (current user contributions, etc.)\n   * @param _beneficiary Address receiving the tokens\n   * @param _weiAmount Value in wei involved in the purchase\n   */\n  function _updatePurchasingState(address _beneficiary, uint256 _weiAmount) internal {\n    contributions[_beneficiary] = contributions[_beneficiary].add(_weiAmount.sub(changeDue));\n  }\n\n\n}\n",
  "sourcePath": "/home/jgcarv/Dev/Ethereum/Solidified/Crowdsale/Smart-Contracts/contracts/TokenSale.sol",
  "compiler": {
    "name": "solc",
    "version": "0.4.24+commit.e67f0147.Emscripten.clang"
  },
  "schemaVersion": "2.0.0",
  "updatedAt": "2018-05-31T16:47:07.824Z"
}