{
  "contractName": "TokenSale",
  "abi": [
    {
      "constant": true,
      "inputs": [],
      "name": "presale_WeiRaised",
      "outputs": [
        {
          "name": "",
          "type": "uint256"
        }
      ],
      "payable": false,
      "stateMutability": "view",
      "type": "function"
    },
    {
      "constant": true,
      "inputs": [],
      "name": "rate",
      "outputs": [
        {
          "name": "",
          "type": "uint256"
        }
      ],
      "payable": false,
      "stateMutability": "view",
      "type": "function"
    },
    {
      "constant": false,
      "inputs": [],
      "name": "unpause",
      "outputs": [],
      "payable": false,
      "stateMutability": "nonpayable",
      "type": "function"
    },
    {
      "constant": true,
      "inputs": [],
      "name": "weiRaised",
      "outputs": [
        {
          "name": "",
          "type": "uint256"
        }
      ],
      "payable": false,
      "stateMutability": "view",
      "type": "function"
    },
    {
      "constant": true,
      "inputs": [
        {
          "name": "",
          "type": "address"
        }
      ],
      "name": "contributions",
      "outputs": [
        {
          "name": "",
          "type": "uint256"
        }
      ],
      "payable": false,
      "stateMutability": "view",
      "type": "function"
    },
    {
      "constant": true,
      "inputs": [],
      "name": "publicSale_WeiRaised",
      "outputs": [
        {
          "name": "",
          "type": "uint256"
        }
      ],
      "payable": false,
      "stateMutability": "view",
      "type": "function"
    },
    {
      "constant": true,
      "inputs": [],
      "name": "wallet",
      "outputs": [
        {
          "name": "",
          "type": "address"
        }
      ],
      "payable": false,
      "stateMutability": "view",
      "type": "function"
    },
    {
      "constant": true,
      "inputs": [],
      "name": "publicSale_TokesSold",
      "outputs": [
        {
          "name": "",
          "type": "uint256"
        }
      ],
      "payable": false,
      "stateMutability": "view",
      "type": "function"
    },
    {
      "constant": true,
      "inputs": [],
      "name": "publicSale_TokenCap",
      "outputs": [
        {
          "name": "",
          "type": "uint256"
        }
      ],
      "payable": false,
      "stateMutability": "view",
      "type": "function"
    },
    {
      "constant": true,
      "inputs": [],
      "name": "currentStage",
      "outputs": [
        {
          "name": "",
          "type": "uint8"
        }
      ],
      "payable": false,
      "stateMutability": "view",
      "type": "function"
    },
    {
      "constant": true,
      "inputs": [],
      "name": "paused",
      "outputs": [
        {
          "name": "",
          "type": "bool"
        }
      ],
      "payable": false,
      "stateMutability": "view",
      "type": "function"
    },
    {
      "constant": true,
      "inputs": [],
      "name": "publicSale_StartDate",
      "outputs": [
        {
          "name": "",
          "type": "uint256"
        }
      ],
      "payable": false,
      "stateMutability": "view",
      "type": "function"
    },
    {
      "constant": true,
      "inputs": [],
      "name": "presale_TokenCap",
      "outputs": [
        {
          "name": "",
          "type": "uint256"
        }
      ],
      "payable": false,
      "stateMutability": "view",
      "type": "function"
    },
    {
      "constant": false,
      "inputs": [],
      "name": "pause",
      "outputs": [],
      "payable": false,
      "stateMutability": "nonpayable",
      "type": "function"
    },
    {
      "constant": false,
      "inputs": [
        {
          "name": "_beneficiary",
          "type": "address"
        }
      ],
      "name": "removeFromWhitelist",
      "outputs": [],
      "payable": false,
      "stateMutability": "nonpayable",
      "type": "function"
    },
    {
      "constant": true,
      "inputs": [],
      "name": "presale_TokesSold",
      "outputs": [
        {
          "name": "",
          "type": "uint256"
        }
      ],
      "payable": false,
      "stateMutability": "view",
      "type": "function"
    },
    {
      "constant": false,
      "inputs": [
        {
          "name": "_beneficiaries",
          "type": "address[]"
        }
      ],
      "name": "addManyToWhitelist",
      "outputs": [],
      "payable": false,
      "stateMutability": "nonpayable",
      "type": "function"
    },
    {
      "constant": true,
      "inputs": [],
      "name": "owner",
      "outputs": [
        {
          "name": "",
          "type": "address"
        }
      ],
      "payable": false,
      "stateMutability": "view",
      "type": "function"
    },
    {
      "constant": true,
      "inputs": [],
      "name": "minimumContribution",
      "outputs": [
        {
          "name": "",
          "type": "uint256"
        }
      ],
      "payable": false,
      "stateMutability": "view",
      "type": "function"
    },
    {
      "constant": true,
      "inputs": [
        {
          "name": "",
          "type": "address"
        }
      ],
      "name": "whitelist",
      "outputs": [
        {
          "name": "",
          "type": "bool"
        }
      ],
      "payable": false,
      "stateMutability": "view",
      "type": "function"
    },
    {
      "constant": true,
      "inputs": [],
      "name": "maximumContribution",
      "outputs": [
        {
          "name": "",
          "type": "uint256"
        }
      ],
      "payable": false,
      "stateMutability": "view",
      "type": "function"
    },
    {
      "constant": true,
      "inputs": [
        {
          "name": "",
          "type": "address"
        }
      ],
      "name": "percentages",
      "outputs": [
        {
          "name": "",
          "type": "uint256"
        }
      ],
      "payable": false,
      "stateMutability": "view",
      "type": "function"
    },
    {
      "constant": true,
      "inputs": [],
      "name": "presale_Cap",
      "outputs": [
        {
          "name": "",
          "type": "uint256"
        }
      ],
      "payable": false,
      "stateMutability": "view",
      "type": "function"
    },
    {
      "constant": true,
      "inputs": [],
      "name": "presale_StartDate",
      "outputs": [
        {
          "name": "",
          "type": "uint256"
        }
      ],
      "payable": false,
      "stateMutability": "view",
      "type": "function"
    },
    {
      "constant": true,
      "inputs": [
        {
          "name": "",
          "type": "uint256"
        }
      ],
      "name": "partners",
      "outputs": [
        {
          "name": "",
          "type": "address"
        }
      ],
      "payable": false,
      "stateMutability": "view",
      "type": "function"
    },
    {
      "constant": true,
      "inputs": [],
      "name": "presale_EndDate",
      "outputs": [
        {
          "name": "",
          "type": "uint256"
        }
      ],
      "payable": false,
      "stateMutability": "view",
      "type": "function"
    },
    {
      "constant": true,
      "inputs": [],
      "name": "publicSale_Cap",
      "outputs": [
        {
          "name": "",
          "type": "uint256"
        }
      ],
      "payable": false,
      "stateMutability": "view",
      "type": "function"
    },
    {
      "constant": false,
      "inputs": [
        {
          "name": "_beneficiary",
          "type": "address"
        }
      ],
      "name": "addToWhitelist",
      "outputs": [],
      "payable": false,
      "stateMutability": "nonpayable",
      "type": "function"
    },
    {
      "constant": true,
      "inputs": [],
      "name": "publicSale_EndDate",
      "outputs": [
        {
          "name": "",
          "type": "uint256"
        }
      ],
      "payable": false,
      "stateMutability": "view",
      "type": "function"
    },
    {
      "constant": false,
      "inputs": [
        {
          "name": "_beneficiary",
          "type": "address"
        }
      ],
      "name": "buyTokens",
      "outputs": [],
      "payable": true,
      "stateMutability": "payable",
      "type": "function"
    },
    {
      "constant": false,
      "inputs": [
        {
          "name": "newOwner",
          "type": "address"
        }
      ],
      "name": "transferOwnership",
      "outputs": [],
      "payable": false,
      "stateMutability": "nonpayable",
      "type": "function"
    },
    {
      "constant": true,
      "inputs": [],
      "name": "token",
      "outputs": [
        {
          "name": "",
          "type": "address"
        }
      ],
      "payable": false,
      "stateMutability": "view",
      "type": "function"
    },
    {
      "inputs": [
        {
          "name": "_rate",
          "type": "uint256"
        },
        {
          "name": "_wallet",
          "type": "address"
        },
        {
          "name": "_token",
          "type": "address"
        },
        {
          "name": "presaleCap",
          "type": "uint256"
        },
        {
          "name": "publicCap",
          "type": "uint256"
        }
      ],
      "payable": false,
      "stateMutability": "nonpayable",
      "type": "constructor"
    },
    {
      "payable": true,
      "stateMutability": "payable",
      "type": "fallback"
    },
    {
      "anonymous": false,
      "inputs": [],
      "name": "Pause",
      "type": "event"
    },
    {
      "anonymous": false,
      "inputs": [],
      "name": "Unpause",
      "type": "event"
    },
    {
      "anonymous": false,
      "inputs": [
        {
          "indexed": true,
          "name": "previousOwner",
          "type": "address"
        },
        {
          "indexed": true,
          "name": "newOwner",
          "type": "address"
        }
      ],
      "name": "OwnershipTransferred",
      "type": "event"
    },
    {
      "anonymous": false,
      "inputs": [
        {
          "indexed": true,
          "name": "purchaser",
          "type": "address"
        },
        {
          "indexed": true,
          "name": "beneficiary",
          "type": "address"
        },
        {
          "indexed": false,
          "name": "value",
          "type": "uint256"
        },
        {
          "indexed": false,
          "name": "amount",
          "type": "uint256"
        }
      ],
      "name": "TokenPurchase",
      "type": "event"
    },
    {
      "constant": false,
      "inputs": [],
      "name": "updateStage",
      "outputs": [],
      "payable": false,
      "stateMutability": "nonpayable",
      "type": "function"
    },
    {
      "constant": false,
      "inputs": [
        {
          "name": "initialDate",
          "type": "uint256"
        },
        {
          "name": "tokenAddress",
          "type": "address"
        }
      ],
      "name": "setupSale",
      "outputs": [],
      "payable": false,
      "stateMutability": "nonpayable",
      "type": "function"
    },
    {
      "constant": false,
      "inputs": [],
      "name": "getCurrentCap",
      "outputs": [
        {
          "name": "cap",
          "type": "uint256"
        }
      ],
      "payable": false,
      "stateMutability": "nonpayable",
      "type": "function"
    },
    {
      "constant": false,
      "inputs": [],
      "name": "getRaisedForCurrentStage",
      "outputs": [
        {
          "name": "raised",
          "type": "uint256"
        }
      ],
      "payable": false,
      "stateMutability": "nonpayable",
      "type": "function"
    },
    {
      "constant": false,
      "inputs": [],
      "name": "saleOpen",
      "outputs": [
        {
          "name": "open",
          "type": "bool"
        }
      ],
      "payable": false,
      "stateMutability": "nonpayable",
      "type": "function"
    },
    {
      "constant": false,
      "inputs": [],
      "name": "distributeTokens",
      "outputs": [],
      "payable": false,
      "stateMutability": "nonpayable",
      "type": "function"
    }
  ],
  "bytecode": "0x60806040526000600660006101000a81548160ff0219169083151502179055506101406040519081016040528073c4d557d795ce16c49624e48045b380f169e0000173ffffffffffffffffffffffffffffffffffffffff168152602001730c4d557d795ce16c49624e48045b380f169e000273ffffffffffffffffffffffffffffffffffffffff16815260200173c4d557d795ce16c49624e48045b380f169e0000373ffffffffffffffffffffffffffffffffffffffff168152602001730c4d557d795ce16c49624e48045b380f169e000473ffffffffffffffffffffffffffffffffffffffff16815260200173c4d557d795ce16c49624e48045b380f169e0000573ffffffffffffffffffffffffffffffffffffffff168152602001730c4d557d795ce16c49624e48045b380f169e000673ffffffffffffffffffffffffffffffffffffffff16815260200173c4d557d795ce16c49624e48045b380f169e0000773ffffffffffffffffffffffffffffffffffffffff168152602001730c4d557d795ce16c49624e48045b380f169e000873ffffffffffffffffffffffffffffffffffffffff16815260200173c4d557d795ce16c49624e48045b380f169e0000973ffffffffffffffffffffffffffffffffffffffff16815260200173c4d557d795ce16c49624e48045b380f169e0001073ffffffffffffffffffffffffffffffffffffffff16815250600790600a6200021c929190620006c8565b503480156200022a57600080fd5b5060405160a08062002d7d83398101806040528101908080519060200190929190805190602001909291908051906020019092919080519060200190929190805190602001909291905050508484846000831115156200028957600080fd5b600073ffffffffffffffffffffffffffffffffffffffff168273ffffffffffffffffffffffffffffffffffffffff1614151515620002c657600080fd5b600073ffffffffffffffffffffffffffffffffffffffff168173ffffffffffffffffffffffffffffffffffffffff16141515156200030357600080fd5b8260028190555081600160006101000a81548173ffffffffffffffffffffffffffffffffffffffff021916908373ffffffffffffffffffffffffffffffffffffffff160217905550806000806101000a81548173ffffffffffffffffffffffffffffffffffffffff021916908373ffffffffffffffffffffffffffffffffffffffff16021790555050505033600460006101000a81548173ffffffffffffffffffffffffffffffffffffffff021916908373ffffffffffffffffffffffffffffffffffffffff16021790555060056008600073c4d557d795ce16c49624e48045b380f169e0000173ffffffffffffffffffffffffffffffffffffffff1681526020019081526020016000208190555060056008600073c4d557d795ce16c49624e48045b380f169e0000273ffffffffffffffffffffffffffffffffffffffff1681526020019081526020016000208190555060056008600073c4d557d795ce16c49624e48045b380f169e0000373ffffffffffffffffffffffffffffffffffffffff1681526020019081526020016000208190555060056008600073c4d557d795ce16c49624e48045b380f169e0000473ffffffffffffffffffffffffffffffffffffffff1681526020019081526020016000208190555060056008600073c4d557d795ce16c49624e48045b380f169e0000573ffffffffffffffffffffffffffffffffffffffff1681526020019081526020016000208190555060056008600073c4d557d795ce16c49624e48045b380f169e0000673ffffffffffffffffffffffffffffffffffffffff1681526020019081526020016000208190555060056008600073c4d557d795ce16c49624e48045b380f169e0000773ffffffffffffffffffffffffffffffffffffffff1681526020019081526020016000208190555060056008600073c4d557d795ce16c49624e48045b380f169e0000873ffffffffffffffffffffffffffffffffffffffff1681526020019081526020016000208190555060056008600073c4d557d795ce16c49624e48045b380f169e0000973ffffffffffffffffffffffffffffffffffffffff1681526020019081526020016000208190555060056008600073c4d557d795ce16c49624e48045b380f169e0001073ffffffffffffffffffffffffffffffffffffffff168152602001908152602001600020819055506a0152d02c7e14af6800000060108190555069a968163f0a57b400000060168190555081600f81905550806015819055506706f05b59d3b20000600b8190555068056bc75e2d63100000600c8190555050505050506200079d565b82805482825590600052602060002090810192821562000744579160200282015b82811115620007435782518260006101000a81548173ffffffffffffffffffffffffffffffffffffffff021916908373ffffffffffffffffffffffffffffffffffffffff16021790555091602001919060010190620006e9565b5b50905062000753919062000757565b5090565b6200079a91905b808211156200079657600081816101000a81549073ffffffffffffffffffffffffffffffffffffffff0219169055506001016200075e565b5090565b90565b6125d080620007ad6000396000f3006080604052600436106101d8576000357c0100000000000000000000000000000000000000000000000000000000900463ffffffff16806313922fc3146101e35780632c4e722e1461020e5780633f4ba83a146102395780634042b66f1461025057806342e94c901461027b5780634423ef18146102d2578063521eb273146102fd57806354d96eff14610354578063570389dc1461037f5780635bf5d54c146103aa5780635c975abb146103e357806368436f15146104125780638293cff71461043d5780638456cb59146104685780638ab1d6811461047f5780638b369cdb146104c25780638c10671c146104ed5780638da5cb5b14610528578063937e09b11461057f57806399288dbb146105aa5780639ab1b484146105d95780639b19251a146105f05780639c2fcd451461064b5780639d592c6614610676578063aa72f651146106cd578063b683b96b146106f8578063bd3e740114610723578063c062f57814610770578063c11efcdc14610787578063c3b49d04146107b2578063c8af3bd61461081f578063d79448451461084a578063d8c3070014610875578063e43252d7146108a0578063ea334e27146108e3578063ec8ac4d81461090e578063f2fde38b14610944578063fc0c546a14610987575b6101e1336109de565b005b3480156101ef57600080fd5b506101f8610aac565b6040518082815260200191505060405180910390f35b34801561021a57600080fd5b50610223610ab2565b6040518082815260200191505060405180910390f35b34801561024557600080fd5b5061024e610ab8565b005b34801561025c57600080fd5b50610265610b78565b6040518082815260200191505060405180910390f35b34801561028757600080fd5b506102bc600480360381019080803573ffffffffffffffffffffffffffffffffffffffff169060200190929190505050610b7e565b6040518082815260200191505060405180910390f35b3480156102de57600080fd5b506102e7610b96565b6040518082815260200191505060405180910390f35b34801561030957600080fd5b50610312610b9c565b604051808273ffffffffffffffffffffffffffffffffffffffff1673ffffffffffffffffffffffffffffffffffffffff16815260200191505060405180910390f35b34801561036057600080fd5b50610369610bc2565b6040518082815260200191505060405180910390f35b34801561038b57600080fd5b50610394610bc8565b6040518082815260200191505060405180910390f35b3480156103b657600080fd5b506103bf610bce565b604051808260058111156103cf57fe5b60ff16815260200191505060405180910390f35b3480156103ef57600080fd5b506103f8610be1565b604051808215151515815260200191505060405180910390f35b34801561041e57600080fd5b50610427610bf4565b6040518082815260200191505060405180910390f35b34801561044957600080fd5b50610452610bfa565b6040518082815260200191505060405180910390f35b34801561047457600080fd5b5061047d610c00565b005b34801561048b57600080fd5b506104c0600480360381019080803573ffffffffffffffffffffffffffffffffffffffff169060200190929190505050610cc1565b005b3480156104ce57600080fd5b506104d7610d78565b6040518082815260200191505060405180910390f35b3480156104f957600080fd5b50610526600480360381019080803590602001908201803590602001919091929391929390505050610d7e565b005b34801561053457600080fd5b5061053d610e80565b604051808273ffffffffffffffffffffffffffffffffffffffff1673ffffffffffffffffffffffffffffffffffffffff16815260200191505060405180910390f35b34801561058b57600080fd5b50610594610ea6565b6040518082815260200191505060405180910390f35b3480156105b657600080fd5b506105bf610eac565b604051808215151515815260200191505060405180910390f35b3480156105e557600080fd5b506105ee611091565b005b3480156105fc57600080fd5b50610631600480360381019080803573ffffffffffffffffffffffffffffffffffffffff16906020019092919050505061126e565b604051808215151515815260200191505060405180910390f35b34801561065757600080fd5b5061066061128e565b6040518082815260200191505060405180910390f35b34801561068257600080fd5b506106b7600480360381019080803573ffffffffffffffffffffffffffffffffffffffff169060200190929190505050611294565b6040518082815260200191505060405180910390f35b3480156106d957600080fd5b506106e26112ac565b6040518082815260200191505060405180910390f35b34801561070457600080fd5b5061070d6112b2565b6040518082815260200191505060405180910390f35b34801561072f57600080fd5b5061076e60048036038101908080359060200190929190803573ffffffffffffffffffffffffffffffffffffffff1690602001909291905050506112b8565b005b34801561077c57600080fd5b50610785611384565b005b34801561079357600080fd5b5061079c6115b4565b6040518082815260200191505060405180910390f35b3480156107be57600080fd5b506107dd600480360381019080803590602001909291905050506115f2565b604051808273ffffffffffffffffffffffffffffffffffffffff1673ffffffffffffffffffffffffffffffffffffffff16815260200191505060405180910390f35b34801561082b57600080fd5b50610834611630565b6040518082815260200191505060405180910390f35b34801561085657600080fd5b5061085f611636565b6040518082815260200191505060405180910390f35b34801561088157600080fd5b5061088a61163c565b6040518082815260200191505060405180910390f35b3480156108ac57600080fd5b506108e1600480360381019080803573ffffffffffffffffffffffffffffffffffffffff16906020019092919050505061167a565b005b3480156108ef57600080fd5b506108f8611731565b6040518082815260200191505060405180910390f35b610942600480360381019080803573ffffffffffffffffffffffffffffffffffffffff1690602001909291905050506109de565b005b34801561095057600080fd5b50610985600480360381019080803573ffffffffffffffffffffffffffffffffffffffff169060200190929190505050611737565b005b34801561099357600080fd5b5061099c61188f565b604051808273ffffffffffffffffffffffffffffffffffffffff1673ffffffffffffffffffffffffffffffffffffffff16815260200191505060405180910390f35b6000803491506109ee83836118b4565b6109f782611b92565b9050610a0e82600354611c4290919063ffffffff16565b600381905550610a1e8382611c5e565b8273ffffffffffffffffffffffffffffffffffffffff163373ffffffffffffffffffffffffffffffffffffffff167f623b3804fa71d67900d064613da8f94b9617215ee90799290593e1745087ad188484604051808381526020018281526020019250505060405180910390a3610a958383611c6c565b610a9d611d19565b610aa78383611d98565b505050565b60125481565b60025481565b600460009054906101000a900473ffffffffffffffffffffffffffffffffffffffff1673ffffffffffffffffffffffffffffffffffffffff163373ffffffffffffffffffffffffffffffffffffffff16141515610b1457600080fd5b600660009054906101000a900460ff161515610b2f57600080fd5b6000600660006101000a81548160ff0219169083151502179055507f7805862f689e2f13df9f062ff482ad3ad112aca9e0847911ed832e158c525b3360405160405180910390a1565b60035481565b60096020528060005260406000206000915090505481565b60185481565b600160009054906101000a900473ffffffffffffffffffffffffffffffffffffffff1681565b60175481565b60165481565b600a60009054906101000a900460ff1681565b600660009054906101000a900460ff1681565b60135481565b60105481565b600460009054906101000a900473ffffffffffffffffffffffffffffffffffffffff1673ffffffffffffffffffffffffffffffffffffffff163373ffffffffffffffffffffffffffffffffffffffff16141515610c5c57600080fd5b600660009054906101000a900460ff16151515610c7857600080fd5b6001600660006101000a81548160ff0219169083151502179055507f6985a02210a168e66602d3235cb6db0e70f92b3ba4d376a33c0f3d9434bff62560405160405180910390a1565b600460009054906101000a900473ffffffffffffffffffffffffffffffffffffffff1673ffffffffffffffffffffffffffffffffffffffff163373ffffffffffffffffffffffffffffffffffffffff16141515610d1d57600080fd5b6000600560008373ffffffffffffffffffffffffffffffffffffffff1673ffffffffffffffffffffffffffffffffffffffff16815260200190815260200160002060006101000a81548160ff02191690831515021790555050565b60115481565b6000600460009054906101000a900473ffffffffffffffffffffffffffffffffffffffff1673ffffffffffffffffffffffffffffffffffffffff163373ffffffffffffffffffffffffffffffffffffffff16141515610ddc57600080fd5b600090505b82829050811015610e7b576001600560008585858181101515610e0057fe5b9050602002013573ffffffffffffffffffffffffffffffffffffffff1673ffffffffffffffffffffffffffffffffffffffff1673ffffffffffffffffffffffffffffffffffffffff16815260200190815260200160002060006101000a81548160ff0219169083151502179055508080600101915050610de1565b505050565b600460009054906101000a900473ffffffffffffffffffffffffffffffffffffffff1681565b600b5481565b600060016005811115610ebb57fe5b600a60009054906101000a900460ff166005811115610ed657fe5b148015610ee55750600d544210155b15610f0f576002600a60006101000a81548160ff02191690836005811115610f0957fe5b02179055505b60026005811115610f1c57fe5b600a60009054906101000a900460ff166005811115610f3757fe5b148015610f455750600e5442115b15610f5357610f52611f3c565b5b60036005811115610f6057fe5b600a60009054906101000a900460ff166005811115610f7b57fe5b148015610f8e5750620d2f00600e540142115b15610fb8576004600a60006101000a81548160ff02191690836005811115610fb257fe5b02179055505b60046005811115610fc557fe5b600a60009054906101000a900460ff166005811115610fe057fe5b148015610fee575060145442115b15610ffc57610ffb612031565b5b600d5442101580156110105750600e544211155b8061102b5750601354421015801561102a57506014544211155b5b801561108c57506002600581111561103f57fe5b600a60009054906101000a900460ff16600581111561105a57fe5b148061108b57506004600581111561106e57fe5b600a60009054906101000a900460ff16600581111561108957fe5b145b5b905090565b6000806000600460009054906101000a900473ffffffffffffffffffffffffffffffffffffffff1673ffffffffffffffffffffffffffffffffffffffff163373ffffffffffffffffffffffffffffffffffffffff161415156110f257600080fd5b600580600581111561110057fe5b600a60009054906101000a900460ff16600581111561111b57fe5b14151561112757600080fd5b6111646006611156600a611148601754601154611c4290919063ffffffff16565b61216f90919063ffffffff16565b6121a790919063ffffffff16565b9350600092505b600780549050831015611268576112166064611208866008600060078981548110151561119457fe5b9060005260206000200160009054906101000a900473ffffffffffffffffffffffffffffffffffffffff1673ffffffffffffffffffffffffffffffffffffffff1673ffffffffffffffffffffffffffffffffffffffff1681526020019081526020016000205461216f90919063ffffffff16565b6121a790919063ffffffff16565b915061125b60078481548110151561122a57fe5b9060005260206000200160009054906101000a900473ffffffffffffffffffffffffffffffffffffffff16836121bd565b828060010193505061116b565b50505050565b60056020528060005260406000206000915054906101000a900460ff1681565b600c5481565b60086020528060005260406000206000915090505481565b600f5481565b600d5481565b600460009054906101000a900473ffffffffffffffffffffffffffffffffffffffff1673ffffffffffffffffffffffffffffffffffffffff163373ffffffffffffffffffffffffffffffffffffffff1614151561131457600080fd5b600080600581111561132257fe5b600a60009054906101000a900460ff16600581111561133d57fe5b14151561134957600080fd5b611352826122cb565b61135b836124e1565b6001600a60006101000a81548160ff0219169083600581111561137a57fe5b0217905550505050565b6001600581111561139157fe5b600a60009054906101000a900460ff1660058111156113ac57fe5b1480156113bb5750600d544210155b156113e5576002600a60006101000a81548160ff021916908360058111156113df57fe5b02179055505b600260058111156113f257fe5b600a60009054906101000a900460ff16600581111561140d57fe5b14801561141b5750600e5442115b1561142957611428611f3c565b5b6003600581111561143657fe5b600a60009054906101000a900460ff16600581111561145157fe5b1480156114645750620d2f00600e540142115b1561148e576004600a60006101000a81548160ff0219169083600581111561148857fe5b02179055505b6004600581111561149b57fe5b600a60009054906101000a900460ff1660058111156114b657fe5b1480156114c4575060145442115b156114d2576114d1612031565b5b600260058111156114df57fe5b600a60009054906101000a900460ff1660058111156114fa57fe5b141561152a57600b5461151a600354600f5461258b90919063ffffffff16565b101561152957611528611f3c565b5b5b6004600581111561153757fe5b600a60009054906101000a900460ff16600581111561155257fe5b14156115b257600b54611586600354611578600f54601554611c4290919063ffffffff16565b61258b90919063ffffffff16565b10156115b1576005600a60006101000a81548160ff021916908360058111156115ab57fe5b02179055505b5b565b60006012549050600460058111156115c857fe5b600a60009054906101000a900460ff1660058111156115e357fe5b14156115ef5760185490505b90565b60078181548110151561160157fe5b906000526020600020016000915054906101000a900473ffffffffffffffffffffffffffffffffffffffff1681565b600e5481565b60155481565b6000600f5490506004600581111561165057fe5b600a60009054906101000a900460ff16600581111561166b57fe5b14156116775760155490505b90565b600460009054906101000a900473ffffffffffffffffffffffffffffffffffffffff1673ffffffffffffffffffffffffffffffffffffffff163373ffffffffffffffffffffffffffffffffffffffff161415156116d657600080fd5b6001600560008373ffffffffffffffffffffffffffffffffffffffff1673ffffffffffffffffffffffffffffffffffffffff16815260200190815260200160002060006101000a81548160ff02191690831515021790555050565b60145481565b600460009054906101000a900473ffffffffffffffffffffffffffffffffffffffff1673ffffffffffffffffffffffffffffffffffffffff163373ffffffffffffffffffffffffffffffffffffffff1614151561179357600080fd5b600073ffffffffffffffffffffffffffffffffffffffff168173ffffffffffffffffffffffffffffffffffffffff16141515156117cf57600080fd5b8073ffffffffffffffffffffffffffffffffffffffff16600460009054906101000a900473ffffffffffffffffffffffffffffffffffffffff1673ffffffffffffffffffffffffffffffffffffffff167f8be0079c531659141344cd1fd0a4f28419497f9722a3daafe3b4186f6b6457e060405160405180910390a380600460006101000a81548173ffffffffffffffffffffffffffffffffffffffff021916908373ffffffffffffffffffffffffffffffffffffffff16021790555050565b6000809054906101000a900473ffffffffffffffffffffffffffffffffffffffff1681565b600080600084600560008273ffffffffffffffffffffffffffffffffffffffff1673ffffffffffffffffffffffffffffffffffffffff16815260200190815260200160002060009054906101000a900460ff16151561191257600080fd5b61191a610eac565b151561198e576040517f08c379a000000000000000000000000000000000000000000000000000000000815260040180806020018281038252600e8152602001807f53616c6520697320436c6f73656400000000000000000000000000000000000081525060200191505060405180910390fd5b849350600c546119e685600960003373ffffffffffffffffffffffffffffffffffffffff1673ffffffffffffffffffffffffffffffffffffffff16815260200190815260200160002054611c4290919063ffffffff16565b1115611a7057611a52600c54611a4486600960003373ffffffffffffffffffffffffffffffffffffffff1673ffffffffffffffffffffffffffffffffffffffff16815260200190815260200160002054611c4290919063ffffffff16565b61258b90919063ffffffff16565b601981905550611a6d6019548561258b90919063ffffffff16565b93505b611a7861163c565b9250611a826115b4565b915082611a988584611c4290919063ffffffff16565b1115611b1057611ad7611ac684611ab88786611c4290919063ffffffff16565b61258b90919063ffffffff16565b601954611c4290919063ffffffff16565b601981905550611af26019548661258b90919063ffffffff16565b93506001601a60006101000a81548160ff0219169083151502179055505b600b548410151515611b8a576040517f08c379a000000000000000000000000000000000000000000000000000000000815260040180806020018281038252601a8152602001807f436f6e747269627574696f6e2062656c6f77206d696e696d756d00000000000081525060200191505060405180910390fd5b505050505050565b6000611bd1600254611bc36103e8611bb56019548761258b90919063ffffffff16565b61216f90919063ffffffff16565b6121a790919063ffffffff16565b905060026005811115611be057fe5b600a60009054906101000a900460ff166005811115611bfb57fe5b1415611c3d57611c3a611c2b6064611c1d60198561216f90919063ffffffff16565b6121a790919063ffffffff16565b82611c4290919063ffffffff16565b90505b919050565b60008183019050828110151515611c5557fe5b80905092915050565b611c6882826121bd565b5050565b611cd2611c846019548361258b90919063ffffffff16565b600960008573ffffffffffffffffffffffffffffffffffffffff1673ffffffffffffffffffffffffffffffffffffffff16815260200190815260200160002054611c4290919063ffffffff16565b600960008473ffffffffffffffffffffffffffffffffffffffff1673ffffffffffffffffffffffffffffffffffffffff168152602001908152602001600020819055505050565b600160009054906101000a900473ffffffffffffffffffffffffffffffffffffffff1673ffffffffffffffffffffffffffffffffffffffff166108fc611d6a6019543461258b90919063ffffffff16565b9081150290604051600060405180830381858888f19350505050158015611d95573d6000803e3d6000fd5b50565b600080611da483611b92565b915060026005811115611db357fe5b600a60009054906101000a900460ff166005811115611dce57fe5b1415611e4157611de982601154611c4290919063ffffffff16565b601181905550611e18611e076019548561258b90919063ffffffff16565b601254611c4290919063ffffffff16565b601281905550601a60009054906101000a900460ff1615611e3c57611e3b611f3c565b5b611eaa565b611e5682601754611c4290919063ffffffff16565b601781905550611e85611e746019548561258b90919063ffffffff16565b601854611c4290919063ffffffff16565b601881905550601a60009054906101000a900460ff1615611ea957611ea8612031565b5b5b611ec160195460035461258b90919063ffffffff16565b600381905550601954905060006019819055506000601a60006101000a81548160ff0219169083151502179055508373ffffffffffffffffffffffffffffffffffffffff166108fc829081150290604051600060405180830381858888f19350505050158015611f35573d6000803e3d6000fd5b5050505050565b6002806005811115611f4a57fe5b600a60009054906101000a900460ff166005811115611f6557fe5b141515611f7157600080fd5b42600e81905550620d2f00600e540160138190555062278d0060135401601481905550611fbf611fae60115460105461258b90919063ffffffff16565b601654611c4290919063ffffffff16565b601681905550612004611ff3611fe260195460035461258b90919063ffffffff16565b600f5461258b90919063ffffffff16565b601554611c4290919063ffffffff16565b6015819055506003600a60006101000a81548160ff0219169083600581111561202957fe5b021790555050565b600480600581111561203f57fe5b600a60009054906101000a900460ff16600581111561205a57fe5b14151561206657600080fd5b426014819055506000809054906101000a900473ffffffffffffffffffffffffffffffffffffffff1673ffffffffffffffffffffffffffffffffffffffff1663728f31e762eff10042016040518263ffffffff167c010000000000000000000000000000000000000000000000000000000002815260040180828152602001915050602060405180830381600087803b15801561210257600080fd5b505af1158015612116573d6000803e3d6000fd5b505050506040513d602081101561212c57600080fd5b8101908080519060200190929190505050151561214857600080fd5b6005600a60006101000a81548160ff0219169083600581111561216757fe5b021790555050565b60008083141561218257600090506121a1565b818302905081838281151561219357fe5b0414151561219d57fe5b8090505b92915050565b600081838115156121b457fe5b04905092915050565b6000809054906101000a900473ffffffffffffffffffffffffffffffffffffffff1673ffffffffffffffffffffffffffffffffffffffff166340c10f1983836040518363ffffffff167c0100000000000000000000000000000000000000000000000000000000028152600401808373ffffffffffffffffffffffffffffffffffffffff1673ffffffffffffffffffffffffffffffffffffffff16815260200182815260200192505050602060405180830381600087803b15801561228157600080fd5b505af1158015612295573d6000803e3d6000fd5b505050506040513d60208110156122ab57600080fd5b810190808051906020019092919050505015156122c757600080fd5b5050565b600460009054906101000a900473ffffffffffffffffffffffffffffffffffffffff1673ffffffffffffffffffffffffffffffffffffffff163373ffffffffffffffffffffffffffffffffffffffff1614151561232757600080fd5b600080600581111561233557fe5b600a60009054906101000a900460ff16600581111561235057fe5b14151561235c57600080fd5b816000806101000a81548173ffffffffffffffffffffffffffffffffffffffff021916908373ffffffffffffffffffffffffffffffffffffffff1602179055503073ffffffffffffffffffffffffffffffffffffffff168273ffffffffffffffffffffffffffffffffffffffff16638da5cb5b6040518163ffffffff167c0100000000000000000000000000000000000000000000000000000000028152600401602060405180830381600087803b15801561241757600080fd5b505af115801561242b573d6000803e3d6000fd5b505050506040513d602081101561244157600080fd5b810190808051906020019092919050505073ffffffffffffffffffffffffffffffffffffffff161415156124dd576040517f08c379a00000000000000000000000000000000000000000000000000000000081526004018080602001828103825260168152602001807f4973737565207769746820746f6b656e2073657475700000000000000000000081525060200191505060405180910390fd5b5050565b600460009054906101000a900473ffffffffffffffffffffffffffffffffffffffff1673ffffffffffffffffffffffffffffffffffffffff163373ffffffffffffffffffffffffffffffffffffffff1614151561253d57600080fd5b600080600581111561254b57fe5b600a60009054906101000a900460ff16600581111561256657fe5b14151561257257600080fd5b81600d819055506276a700600d5401600e819055505050565b600082821115151561259957fe5b8183039050929150505600a165627a7a723058203136e8927ea9cd691eb6a7a1a455acb20febfd964aaad65433740f0fa7cfde230029",
  "source": "pragma solidity 0.4.24;\n\nimport 'openzeppelin-solidity/contracts/crowdsale/emission/MintedCrowdsale.sol';\nimport 'openzeppelin-solidity/contracts/crowdsale/validation/WhitelistedCrowdsale.sol';\nimport './SolidifiedToken.sol';\nimport './Distributable.sol';\nimport 'openzeppelin-solidity/contracts/lifecycle/Pausable.sol';\n\ncontract TokenSale is MintedCrowdsale, WhitelistedCrowdsale, Pausable, Distributable {\n\n  enum Stages{\n    SETUP,\n    READY,\n    PRESALE,\n    BREAK,\n    PUBLICSALE,\n    FINALAIZED\n  }\n\n  //Global Variables\n  mapping(address => uint) public contributions;\n  Stages public currentStage;\n  uint256 public minimumContribution;\n  uint256 public maximumContribution;\n\n  //PRESALE VARIABLES\n  uint256 public presale_StartDate;\n  uint256 public presale_EndDate;\n  uint256 public presale_Cap;\n  uint256 public presale_TokenCap;\n  uint256 public presale_TokesSold;\n  uint256 public presale_WeiRaised;\n\n  //PUBLICSALE VARIABLES\n  uint256 public publicSale_StartDate;\n  uint256 public publicSale_EndDate;\n  uint256 public publicSale_Cap;\n  uint256 public publicSale_TokenCap;\n  uint256 public publicSale_TokesSold;\n  uint256 public publicSale_WeiRaised;\n\n\n  //TEMP VARIABLE - USED TO NOT OVERRIDE MORE OZ FUNCTIONS\n  uint256 changeDue;\n  bool capReached;\n\n  constructor(uint256 _rate, address _wallet, ERC20 _token, uint256 presaleCap, uint256 publicCap) public Crowdsale(_rate,_wallet,_token) {\n    presale_TokenCap = 1600000 ether;\n    publicSale_TokenCap = 800000 ether;\n    presale_Cap = presaleCap;\n    publicSale_Cap = publicCap;\n    minimumContribution = 0.5 ether;\n    maximumContribution = 100 ether;\n  }\n\n  modifier atStage(Stages _currentStage){\n    require(currentStage == _currentStage);\n    _;\n  }\n\n  modifier timedTransition(){\n    if(currentStage == Stages.READY && now >= presale_StartDate){\n      currentStage = Stages.PRESALE;\n    }\n    if(currentStage == Stages.PRESALE && now > presale_EndDate){\n      finalizePresale();\n    }\n    if(currentStage == Stages.BREAK && now > presale_EndDate + 10 days){\n      currentStage = Stages.PUBLICSALE;\n    }\n    if(currentStage == Stages.PUBLICSALE && now > publicSale_EndDate){\n      finalizeSale();\n    }\n    _;\n  }\n\n  function updateStage() timedTransition {\n    //Satge Conversions not covered by timed Transitions\n    if(currentStage == Stages.PRESALE){\n      if(presale_Cap.sub(weiRaised) < minimumContribution)\n        finalizePresale();\n    }\n    if(currentStage == Stages.PUBLICSALE){\n      if((publicSale_Cap.add(presale_Cap)).sub(weiRaised) < minimumContribution)\n        currentStage = Stages.FINALAIZED;\n    }\n  }\n\n  function setupSale(uint256 initialDate, address tokenAddress) onlyOwner atStage(Stages.SETUP) public {\n    setUpToken(tokenAddress);\n    setDates(initialDate);\n    currentStage = Stages.READY;\n  }\n\n  /**\n   * @dev Sets tha dates and durations of the different sale stages\n   * @param _presaleSartDate A timestamp representing the start of the presale\n   */\n  function setDates(uint256 _presaleSartDate) onlyOwner atStage(Stages.SETUP) internal {\n    presale_StartDate = _presaleSartDate;\n    presale_EndDate = presale_StartDate + 90 days;\n  }\n\n  function setUpToken(address _token) onlyOwner atStage(Stages.SETUP) internal {\n    token = ERC20(_token);\n    require(SolidifiedToken(_token).owner() == address(this), \"Issue with token setup\");\n  }\n\n  /**\n   * @dev Returns de ETH cap of the current currentStage\n   * @return uint256 representing the cap\n   */\n  function getCurrentCap() public returns(uint256 cap){\n    cap = presale_Cap;\n    if(currentStage == Stages.PUBLICSALE){\n      cap = publicSale_Cap;\n    }\n  }\n\n  /**\n   * @dev Returns de ETH cap of the current currentStage\n   * @return uint256 representing the cap\n   */\n  function getRaisedForCurrentStage() public returns(uint256 raised){\n    raised = presale_WeiRaised;\n    if(currentStage == Stages.PUBLICSALE)\n      raised = publicSale_WeiRaised;\n  }\n\n  function saleOpen() public timedTransition returns(bool open) {\n    open = ((now >= presale_StartDate && now <= presale_EndDate) ||\n           (now >= publicSale_StartDate && now <= publicSale_EndDate)) &&\n           (currentStage == Stages.PRESALE || currentStage == Stages.PUBLICSALE);\n  }\n\n  function distributeTokens() public onlyOwner atStage(Stages.FINALAIZED) {\n    uint256 totalSold = (presale_TokesSold.add(publicSale_TokesSold)).mul(10).div(6);\n    for(uint i = 0; i < partners.length; i++){\n      uint256 amount = percentages[partners[i]].mul(totalSold).div(100);\n      _deliverTokens(partners[i], amount);\n    }\n  }\n\n  function finalizePresale() atStage(Stages.PRESALE) internal{\n    presale_EndDate = now;\n    publicSale_StartDate = presale_EndDate + 10 days;\n    publicSale_EndDate = publicSale_StartDate + 30 days;\n    publicSale_TokenCap = publicSale_TokenCap.add(presale_TokenCap.sub(presale_TokesSold));\n    publicSale_Cap = publicSale_Cap.add(presale_Cap.sub(weiRaised.sub(changeDue)));\n    currentStage = Stages.BREAK;\n  }\n\n  function finalizeSale() atStage(Stages.PUBLICSALE) internal {\n    publicSale_EndDate = now;\n    require(SolidifiedToken(token).setTransferEnablingDate(now + 182 days));\n    currentStage = Stages.FINALAIZED;\n  }\n\n\n  //OVERRIDES\n\n  /**\n   * @dev Validation of an incoming purchase. Use require statements to revert state when conditions are not met. Use super to concatenate validations.\n   * @param _beneficiary Address performing the token purchase\n   * @param _weiAmount Value in wei involved in the purchase\n   */\n  function _preValidatePurchase(address _beneficiary, uint256 _weiAmount) isWhitelisted(_beneficiary) internal {\n    require(saleOpen(), \"Sale is Closed\");\n\n    // Check for edge cases\n    uint256 acceptedValue = _weiAmount;\n    if(contributions[msg.sender].add(acceptedValue) > maximumContribution){\n      changeDue = contributions[msg.sender].add(acceptedValue).sub(maximumContribution);\n      acceptedValue = acceptedValue.sub(changeDue);\n    }\n    uint256 currentCap = getCurrentCap();\n    uint256 raised = getRaisedForCurrentStage();\n    if(raised.add(acceptedValue) > currentCap){\n      changeDue = changeDue.add(raised.add(acceptedValue).sub(currentCap));\n      acceptedValue = _weiAmount.sub(changeDue);\n      capReached = true;\n    }\n    require(acceptedValue >= minimumContribution, \"Contribution below minimum\");\n  }\n\n  /**\n   * @dev Override to extend the way in which ether is converted to tokens.\n   * @param _weiAmount Value in wei to be converted into tokens\n   * @return Number of tokens that can be purchased with the specified _weiAmount\n   */\n  function _getTokenAmount(uint256 _weiAmount) internal view returns (uint256 amount) {\n    amount = (_weiAmount.sub(changeDue)).mul(1000).div(rate); // Multiplication to account for the decimal cases in the rate\n    if(currentStage == Stages.PRESALE){\n      amount = amount.add(amount.mul(25).div(100)); //Add bonus\n    }\n  }\n\n  /**\n   * @dev Validation of an executed purchase. Observe state and use revert statements to undo rollback when valid conditions are not met.\n   * @param _beneficiary Address performing the token purchase\n   * @param _weiAmount Value in wei involved in the purchase\n   */\n  function _postValidatePurchase(address _beneficiary, uint256 _weiAmount) internal {\n    uint256 tokenAmount = _getTokenAmount(_weiAmount);\n\n    if(currentStage == Stages.PRESALE){\n      presale_TokesSold = presale_TokesSold.add(tokenAmount);\n      presale_WeiRaised = presale_WeiRaised.add(_weiAmount.sub(changeDue));\n      if(capReached)\n        finalizePresale();\n    } else{\n      publicSale_TokesSold = publicSale_TokesSold.add(tokenAmount);\n      publicSale_WeiRaised = publicSale_WeiRaised.add(_weiAmount.sub(changeDue));\n      if(capReached)\n        finalizeSale();\n    }\n\n    //Triggers for reaching cap\n    weiRaised = weiRaised.sub(changeDue);\n    uint256 change = changeDue;\n    changeDue = 0;\n    capReached = false;\n    _beneficiary.transfer(change);\n  }\n\n  /**\n   * @dev Override for extensions that require an internal state to check for validity (current user contributions, etc.)\n   * @param _beneficiary Address receiving the tokens\n   * @param _weiAmount Value in wei involved in the purchase\n   */\n  function _updatePurchasingState(address _beneficiary, uint256 _weiAmount) internal {\n    contributions[_beneficiary] = contributions[_beneficiary].add(_weiAmount.sub(changeDue));\n  }\n\n  /**\n   * @dev Determines how ETH is stored/forwarded on purchases.\n   */\n  function _forwardFunds() internal {\n    wallet.transfer(msg.value.sub(changeDue));\n  }\n\n\n}\n// Rate, wallet, token, presalecap, publicSaleCap\n// 15, \"0xca35b7d915458ef540ade6068dfe2f44e8fa733c\", \"0xbbf289d846208c16edc8474705c748aff07732db\", \"19200000000000000000\", \"120000000000000000\"\n",
  "sourcePath": "/home/jgcarv/Dev/Ethereum/Solidified/Crowdsale/Smart-Contracts/contracts/TokenSale.sol",
  "compiler": {
    "name": "solc",
    "version": "0.4.24+commit.e67f0147.Emscripten.clang"
  },
  "schemaVersion": "2.0.0",
  "updatedAt": "2018-06-05T18:57:29.995Z"
}