{
  "contractName": "TokenSale",
  "abi": [
    {
      "constant": true,
      "inputs": [],
      "name": "presale_WeiRaised",
      "outputs": [
        {
          "name": "",
          "type": "uint256"
        }
      ],
      "payable": false,
      "stateMutability": "view",
      "type": "function"
    },
    {
      "constant": true,
      "inputs": [],
      "name": "rate",
      "outputs": [
        {
          "name": "",
          "type": "uint256"
        }
      ],
      "payable": false,
      "stateMutability": "view",
      "type": "function"
    },
    {
      "constant": false,
      "inputs": [],
      "name": "unpause",
      "outputs": [],
      "payable": false,
      "stateMutability": "nonpayable",
      "type": "function"
    },
    {
      "constant": true,
      "inputs": [],
      "name": "weiRaised",
      "outputs": [
        {
          "name": "",
          "type": "uint256"
        }
      ],
      "payable": false,
      "stateMutability": "view",
      "type": "function"
    },
    {
      "constant": true,
      "inputs": [
        {
          "name": "",
          "type": "address"
        }
      ],
      "name": "contributions",
      "outputs": [
        {
          "name": "",
          "type": "uint256"
        }
      ],
      "payable": false,
      "stateMutability": "view",
      "type": "function"
    },
    {
      "constant": true,
      "inputs": [],
      "name": "publicSale_WeiRaised",
      "outputs": [
        {
          "name": "",
          "type": "uint256"
        }
      ],
      "payable": false,
      "stateMutability": "view",
      "type": "function"
    },
    {
      "constant": true,
      "inputs": [],
      "name": "wallet",
      "outputs": [
        {
          "name": "",
          "type": "address"
        }
      ],
      "payable": false,
      "stateMutability": "view",
      "type": "function"
    },
    {
      "constant": true,
      "inputs": [],
      "name": "publicSale_TokesSold",
      "outputs": [
        {
          "name": "",
          "type": "uint256"
        }
      ],
      "payable": false,
      "stateMutability": "view",
      "type": "function"
    },
    {
      "constant": true,
      "inputs": [],
      "name": "publicSale_TokenCap",
      "outputs": [
        {
          "name": "",
          "type": "uint256"
        }
      ],
      "payable": false,
      "stateMutability": "view",
      "type": "function"
    },
    {
      "constant": true,
      "inputs": [],
      "name": "currentStage",
      "outputs": [
        {
          "name": "",
          "type": "uint8"
        }
      ],
      "payable": false,
      "stateMutability": "view",
      "type": "function"
    },
    {
      "constant": true,
      "inputs": [],
      "name": "paused",
      "outputs": [
        {
          "name": "",
          "type": "bool"
        }
      ],
      "payable": false,
      "stateMutability": "view",
      "type": "function"
    },
    {
      "constant": true,
      "inputs": [],
      "name": "publicSale_StartDate",
      "outputs": [
        {
          "name": "",
          "type": "uint256"
        }
      ],
      "payable": false,
      "stateMutability": "view",
      "type": "function"
    },
    {
      "constant": true,
      "inputs": [],
      "name": "presale_TokenCap",
      "outputs": [
        {
          "name": "",
          "type": "uint256"
        }
      ],
      "payable": false,
      "stateMutability": "view",
      "type": "function"
    },
    {
      "constant": false,
      "inputs": [],
      "name": "pause",
      "outputs": [],
      "payable": false,
      "stateMutability": "nonpayable",
      "type": "function"
    },
    {
      "constant": false,
      "inputs": [
        {
          "name": "_beneficiary",
          "type": "address"
        }
      ],
      "name": "removeFromWhitelist",
      "outputs": [],
      "payable": false,
      "stateMutability": "nonpayable",
      "type": "function"
    },
    {
      "constant": true,
      "inputs": [],
      "name": "presale_TokesSold",
      "outputs": [
        {
          "name": "",
          "type": "uint256"
        }
      ],
      "payable": false,
      "stateMutability": "view",
      "type": "function"
    },
    {
      "constant": false,
      "inputs": [
        {
          "name": "_beneficiaries",
          "type": "address[]"
        }
      ],
      "name": "addManyToWhitelist",
      "outputs": [],
      "payable": false,
      "stateMutability": "nonpayable",
      "type": "function"
    },
    {
      "constant": true,
      "inputs": [],
      "name": "owner",
      "outputs": [
        {
          "name": "",
          "type": "address"
        }
      ],
      "payable": false,
      "stateMutability": "view",
      "type": "function"
    },
    {
      "constant": true,
      "inputs": [],
      "name": "minimumContribution",
      "outputs": [
        {
          "name": "",
          "type": "uint256"
        }
      ],
      "payable": false,
      "stateMutability": "view",
      "type": "function"
    },
    {
      "constant": true,
      "inputs": [
        {
          "name": "",
          "type": "address"
        }
      ],
      "name": "whitelist",
      "outputs": [
        {
          "name": "",
          "type": "bool"
        }
      ],
      "payable": false,
      "stateMutability": "view",
      "type": "function"
    },
    {
      "constant": true,
      "inputs": [],
      "name": "maximumContribution",
      "outputs": [
        {
          "name": "",
          "type": "uint256"
        }
      ],
      "payable": false,
      "stateMutability": "view",
      "type": "function"
    },
    {
      "constant": true,
      "inputs": [],
      "name": "presale_Cap",
      "outputs": [
        {
          "name": "",
          "type": "uint256"
        }
      ],
      "payable": false,
      "stateMutability": "view",
      "type": "function"
    },
    {
      "constant": true,
      "inputs": [],
      "name": "presale_StartDate",
      "outputs": [
        {
          "name": "",
          "type": "uint256"
        }
      ],
      "payable": false,
      "stateMutability": "view",
      "type": "function"
    },
    {
      "constant": true,
      "inputs": [],
      "name": "presale_EndDate",
      "outputs": [
        {
          "name": "",
          "type": "uint256"
        }
      ],
      "payable": false,
      "stateMutability": "view",
      "type": "function"
    },
    {
      "constant": true,
      "inputs": [],
      "name": "publicSale_Cap",
      "outputs": [
        {
          "name": "",
          "type": "uint256"
        }
      ],
      "payable": false,
      "stateMutability": "view",
      "type": "function"
    },
    {
      "constant": false,
      "inputs": [
        {
          "name": "_beneficiary",
          "type": "address"
        }
      ],
      "name": "addToWhitelist",
      "outputs": [],
      "payable": false,
      "stateMutability": "nonpayable",
      "type": "function"
    },
    {
      "constant": true,
      "inputs": [],
      "name": "publicSale_EndDate",
      "outputs": [
        {
          "name": "",
          "type": "uint256"
        }
      ],
      "payable": false,
      "stateMutability": "view",
      "type": "function"
    },
    {
      "constant": false,
      "inputs": [
        {
          "name": "_beneficiary",
          "type": "address"
        }
      ],
      "name": "buyTokens",
      "outputs": [],
      "payable": true,
      "stateMutability": "payable",
      "type": "function"
    },
    {
      "constant": false,
      "inputs": [
        {
          "name": "newOwner",
          "type": "address"
        }
      ],
      "name": "transferOwnership",
      "outputs": [],
      "payable": false,
      "stateMutability": "nonpayable",
      "type": "function"
    },
    {
      "constant": true,
      "inputs": [],
      "name": "token",
      "outputs": [
        {
          "name": "",
          "type": "address"
        }
      ],
      "payable": false,
      "stateMutability": "view",
      "type": "function"
    },
    {
      "inputs": [
        {
          "name": "_rate",
          "type": "uint256"
        },
        {
          "name": "_wallet",
          "type": "address"
        },
        {
          "name": "_token",
          "type": "address"
        },
        {
          "name": "presaleCap",
          "type": "uint256"
        },
        {
          "name": "publicCap",
          "type": "uint256"
        }
      ],
      "payable": false,
      "stateMutability": "nonpayable",
      "type": "constructor"
    },
    {
      "payable": true,
      "stateMutability": "payable",
      "type": "fallback"
    },
    {
      "anonymous": false,
      "inputs": [],
      "name": "Pause",
      "type": "event"
    },
    {
      "anonymous": false,
      "inputs": [],
      "name": "Unpause",
      "type": "event"
    },
    {
      "anonymous": false,
      "inputs": [
        {
          "indexed": true,
          "name": "previousOwner",
          "type": "address"
        },
        {
          "indexed": true,
          "name": "newOwner",
          "type": "address"
        }
      ],
      "name": "OwnershipTransferred",
      "type": "event"
    },
    {
      "anonymous": false,
      "inputs": [
        {
          "indexed": true,
          "name": "purchaser",
          "type": "address"
        },
        {
          "indexed": true,
          "name": "beneficiary",
          "type": "address"
        },
        {
          "indexed": false,
          "name": "value",
          "type": "uint256"
        },
        {
          "indexed": false,
          "name": "amount",
          "type": "uint256"
        }
      ],
      "name": "TokenPurchase",
      "type": "event"
    },
    {
      "constant": false,
      "inputs": [],
      "name": "updateStage",
      "outputs": [],
      "payable": false,
      "stateMutability": "nonpayable",
      "type": "function"
    },
    {
      "constant": false,
      "inputs": [
        {
          "name": "initialDate",
          "type": "uint256"
        },
        {
          "name": "tokenAddress",
          "type": "address"
        }
      ],
      "name": "setupSale",
      "outputs": [],
      "payable": false,
      "stateMutability": "nonpayable",
      "type": "function"
    },
    {
      "constant": false,
      "inputs": [],
      "name": "getCurrentCap",
      "outputs": [
        {
          "name": "cap",
          "type": "uint256"
        }
      ],
      "payable": false,
      "stateMutability": "nonpayable",
      "type": "function"
    },
    {
      "constant": false,
      "inputs": [],
      "name": "getRaisedForCurrentStage",
      "outputs": [
        {
          "name": "raised",
          "type": "uint256"
        }
      ],
      "payable": false,
      "stateMutability": "nonpayable",
      "type": "function"
    },
    {
      "constant": false,
      "inputs": [],
      "name": "saleOpen",
      "outputs": [
        {
          "name": "open",
          "type": "bool"
        }
      ],
      "payable": false,
      "stateMutability": "nonpayable",
      "type": "function"
    },
    {
      "constant": false,
      "inputs": [],
      "name": "finalizePresale",
      "outputs": [],
      "payable": false,
      "stateMutability": "nonpayable",
      "type": "function"
    },
    {
      "constant": false,
      "inputs": [],
      "name": "finalizeSale",
      "outputs": [],
      "payable": false,
      "stateMutability": "nonpayable",
      "type": "function"
    }
  ],
  "bytecode": "0x60806040526000600660006101000a81548160ff02191690831515021790555034801561002b57600080fd5b5060405160a080612552833981018060405281019080805190602001909291908051906020019092919080519060200190929190805190602001909291908051906020019092919050505084848460008311151561008857600080fd5b600073ffffffffffffffffffffffffffffffffffffffff168273ffffffffffffffffffffffffffffffffffffffff16141515156100c457600080fd5b600073ffffffffffffffffffffffffffffffffffffffff168173ffffffffffffffffffffffffffffffffffffffff161415151561010057600080fd5b8260028190555081600160006101000a81548173ffffffffffffffffffffffffffffffffffffffff021916908373ffffffffffffffffffffffffffffffffffffffff160217905550806000806101000a81548173ffffffffffffffffffffffffffffffffffffffff021916908373ffffffffffffffffffffffffffffffffffffffff16021790555050505033600460006101000a81548173ffffffffffffffffffffffffffffffffffffffff021916908373ffffffffffffffffffffffffffffffffffffffff1602179055506a0152d02c7e14af68000000600e8190555069a968163f0a57b400000060148190555081600d81905550806013819055506706f05b59d3b2000060098190555068056bc75e2d63100000600a819055505050505050612322806102306000396000f3006080604052600436106101cd576000357c0100000000000000000000000000000000000000000000000000000000900463ffffffff16806313922fc3146101d85780632c4e722e146102035780633f4ba83a1461022e5780634042b66f1461024557806342e94c90146102705780634423ef18146102c7578063521eb273146102f257806354d96eff14610349578063570389dc1461037457806358a687ec1461039f5780635bf5d54c146103b65780635c975abb146103ef57806368436f151461041e5780638293cff7146104495780638456cb59146104745780638ab1d6811461048b5780638b369cdb146104ce5780638c10671c146104f95780638da5cb5b14610534578063937e09b11461058b57806399288dbb146105b65780639b19251a146105e55780639c2fcd4514610640578063a0a6e9401461066b578063aa72f65114610682578063b683b96b146106ad578063bd3e7401146106d8578063c062f57814610725578063c11efcdc1461073c578063c8af3bd614610767578063d794484514610792578063d8c30700146107bd578063e43252d7146107e8578063ea334e271461082b578063ec8ac4d814610856578063f2fde38b1461088c578063fc0c546a146108cf575b6101d633610926565b005b3480156101e457600080fd5b506101ed6109f4565b6040518082815260200191505060405180910390f35b34801561020f57600080fd5b506102186109fa565b6040518082815260200191505060405180910390f35b34801561023a57600080fd5b50610243610a00565b005b34801561025157600080fd5b5061025a610ac0565b6040518082815260200191505060405180910390f35b34801561027c57600080fd5b506102b1600480360381019080803573ffffffffffffffffffffffffffffffffffffffff169060200190929190505050610ac6565b6040518082815260200191505060405180910390f35b3480156102d357600080fd5b506102dc610ade565b6040518082815260200191505060405180910390f35b3480156102fe57600080fd5b50610307610ae4565b604051808273ffffffffffffffffffffffffffffffffffffffff1673ffffffffffffffffffffffffffffffffffffffff16815260200191505060405180910390f35b34801561035557600080fd5b5061035e610b0a565b6040518082815260200191505060405180910390f35b34801561038057600080fd5b50610389610b10565b6040518082815260200191505060405180910390f35b3480156103ab57600080fd5b506103b4610b16565b005b3480156103c257600080fd5b506103cb610b43565b604051808260058111156103db57fe5b60ff16815260200191505060405180910390f35b3480156103fb57600080fd5b50610404610b56565b604051808215151515815260200191505060405180910390f35b34801561042a57600080fd5b50610433610b69565b6040518082815260200191505060405180910390f35b34801561045557600080fd5b5061045e610b6f565b6040518082815260200191505060405180910390f35b34801561048057600080fd5b50610489610b75565b005b34801561049757600080fd5b506104cc600480360381019080803573ffffffffffffffffffffffffffffffffffffffff169060200190929190505050610c36565b005b3480156104da57600080fd5b506104e3610ced565b6040518082815260200191505060405180910390f35b34801561050557600080fd5b50610532600480360381019080803590602001908201803590602001919091929391929390505050610cf3565b005b34801561054057600080fd5b50610549610df5565b604051808273ffffffffffffffffffffffffffffffffffffffff1673ffffffffffffffffffffffffffffffffffffffff16815260200191505060405180910390f35b34801561059757600080fd5b506105a0610e1b565b6040518082815260200191505060405180910390f35b3480156105c257600080fd5b506105cb610e21565b604051808215151515815260200191505060405180910390f35b3480156105f157600080fd5b50610626600480360381019080803573ffffffffffffffffffffffffffffffffffffffff169060200190929190505050611006565b604051808215151515815260200191505060405180910390f35b34801561064c57600080fd5b50610655611026565b6040518082815260200191505060405180910390f35b34801561067757600080fd5b5061068061102c565b005b34801561068e57600080fd5b50610697611121565b6040518082815260200191505060405180910390f35b3480156106b957600080fd5b506106c2611127565b6040518082815260200191505060405180910390f35b3480156106e457600080fd5b5061072360048036038101908080359060200190929190803573ffffffffffffffffffffffffffffffffffffffff16906020019092919050505061112d565b005b34801561073157600080fd5b5061073a6111f9565b005b34801561074857600080fd5b50610751611429565b6040518082815260200191505060405180910390f35b34801561077357600080fd5b5061077c611467565b6040518082815260200191505060405180910390f35b34801561079e57600080fd5b506107a761146d565b6040518082815260200191505060405180910390f35b3480156107c957600080fd5b506107d2611473565b6040518082815260200191505060405180910390f35b3480156107f457600080fd5b50610829600480360381019080803573ffffffffffffffffffffffffffffffffffffffff1690602001909291905050506114b1565b005b34801561083757600080fd5b50610840611568565b6040518082815260200191505060405180910390f35b61088a600480360381019080803573ffffffffffffffffffffffffffffffffffffffff169060200190929190505050610926565b005b34801561089857600080fd5b506108cd600480360381019080803573ffffffffffffffffffffffffffffffffffffffff16906020019092919050505061156e565b005b3480156108db57600080fd5b506108e46116c6565b604051808273ffffffffffffffffffffffffffffffffffffffff1673ffffffffffffffffffffffffffffffffffffffff16815260200191505060405180910390f35b60008034915061093683836116eb565b61093f82611b17565b905061095682600354611bc790919063ffffffff16565b6003819055506109668382611be3565b8273ffffffffffffffffffffffffffffffffffffffff163373ffffffffffffffffffffffffffffffffffffffff167f623b3804fa71d67900d064613da8f94b9617215ee90799290593e1745087ad188484604051808381526020018281526020019250505060405180910390a36109dd8383611bf1565b6109e5611c9e565b6109ef8383611d1d565b505050565b60105481565b60025481565b600460009054906101000a900473ffffffffffffffffffffffffffffffffffffffff1673ffffffffffffffffffffffffffffffffffffffff163373ffffffffffffffffffffffffffffffffffffffff16141515610a5c57600080fd5b600660009054906101000a900460ff161515610a7757600080fd5b6000600660006101000a81548160ff0219169083151502179055507f7805862f689e2f13df9f062ff482ad3ad112aca9e0847911ed832e158c525b3360405160405180910390a1565b60035481565b60076020528060005260406000206000915090505481565b60165481565b600160009054906101000a900473ffffffffffffffffffffffffffffffffffffffff1681565b60155481565b60145481565b426012819055506005600860006101000a81548160ff02191690836005811115610b3c57fe5b0217905550565b600860009054906101000a900460ff1681565b600660009054906101000a900460ff1681565b60115481565b600e5481565b600460009054906101000a900473ffffffffffffffffffffffffffffffffffffffff1673ffffffffffffffffffffffffffffffffffffffff163373ffffffffffffffffffffffffffffffffffffffff16141515610bd157600080fd5b600660009054906101000a900460ff16151515610bed57600080fd5b6001600660006101000a81548160ff0219169083151502179055507f6985a02210a168e66602d3235cb6db0e70f92b3ba4d376a33c0f3d9434bff62560405160405180910390a1565b600460009054906101000a900473ffffffffffffffffffffffffffffffffffffffff1673ffffffffffffffffffffffffffffffffffffffff163373ffffffffffffffffffffffffffffffffffffffff16141515610c9257600080fd5b6000600560008373ffffffffffffffffffffffffffffffffffffffff1673ffffffffffffffffffffffffffffffffffffffff16815260200190815260200160002060006101000a81548160ff02191690831515021790555050565b600f5481565b6000600460009054906101000a900473ffffffffffffffffffffffffffffffffffffffff1673ffffffffffffffffffffffffffffffffffffffff163373ffffffffffffffffffffffffffffffffffffffff16141515610d5157600080fd5b600090505b82829050811015610df0576001600560008585858181101515610d7557fe5b9050602002013573ffffffffffffffffffffffffffffffffffffffff1673ffffffffffffffffffffffffffffffffffffffff1673ffffffffffffffffffffffffffffffffffffffff16815260200190815260200160002060006101000a81548160ff0219169083151502179055508080600101915050610d56565b505050565b600460009054906101000a900473ffffffffffffffffffffffffffffffffffffffff1681565b60095481565b600060016005811115610e3057fe5b600860009054906101000a900460ff166005811115610e4b57fe5b148015610e5a5750600b544210155b15610e84576002600860006101000a81548160ff02191690836005811115610e7e57fe5b02179055505b60026005811115610e9157fe5b600860009054906101000a900460ff166005811115610eac57fe5b148015610eba5750600c5442115b15610ec857610ec761102c565b5b60036005811115610ed557fe5b600860009054906101000a900460ff166005811115610ef057fe5b148015610f035750620d2f00600c540142115b15610f2d576004600860006101000a81548160ff02191690836005811115610f2757fe5b02179055505b60046005811115610f3a57fe5b600860009054906101000a900460ff166005811115610f5557fe5b148015610f63575060125442115b15610f7157610f70610b16565b5b600b544210158015610f855750600c544211155b80610fa057506011544210158015610f9f57506012544211155b5b8015611001575060026005811115610fb457fe5b600860009054906101000a900460ff166005811115610fcf57fe5b1480611000575060046005811115610fe357fe5b600860009054906101000a900460ff166005811115610ffe57fe5b145b5b905090565b60056020528060005260406000206000915054906101000a900460ff1681565b600a5481565b600280600581111561103a57fe5b600860009054906101000a900460ff16600581111561105557fe5b14151561106157600080fd5b42600c81905550620d2f00600c540160118190555062278d00601154016012819055506110af61109e600f54600e54611ec190919063ffffffff16565b601454611bc790919063ffffffff16565b6014819055506110f46110e36110d2601754600354611ec190919063ffffffff16565b600d54611ec190919063ffffffff16565b601354611bc790919063ffffffff16565b6013819055506003600860006101000a81548160ff0219169083600581111561111957fe5b021790555050565b600d5481565b600b5481565b600460009054906101000a900473ffffffffffffffffffffffffffffffffffffffff1673ffffffffffffffffffffffffffffffffffffffff163373ffffffffffffffffffffffffffffffffffffffff1614151561118957600080fd5b600080600581111561119757fe5b600860009054906101000a900460ff1660058111156111b257fe5b1415156111be57600080fd5b6111c782611eda565b6111d0836120f0565b6001600860006101000a81548160ff021916908360058111156111ef57fe5b0217905550505050565b6001600581111561120657fe5b600860009054906101000a900460ff16600581111561122157fe5b1480156112305750600b544210155b1561125a576002600860006101000a81548160ff0219169083600581111561125457fe5b02179055505b6002600581111561126757fe5b600860009054906101000a900460ff16600581111561128257fe5b1480156112905750600c5442115b1561129e5761129d61102c565b5b600360058111156112ab57fe5b600860009054906101000a900460ff1660058111156112c657fe5b1480156112d95750620d2f00600c540142115b15611303576004600860006101000a81548160ff021916908360058111156112fd57fe5b02179055505b6004600581111561131057fe5b600860009054906101000a900460ff16600581111561132b57fe5b148015611339575060125442115b1561134757611346610b16565b5b6002600581111561135457fe5b600860009054906101000a900460ff16600581111561136f57fe5b141561139f5760095461138f600354600d54611ec190919063ffffffff16565b101561139e5761139d61102c565b5b5b600460058111156113ac57fe5b600860009054906101000a900460ff1660058111156113c757fe5b1415611427576009546113fb6003546113ed600d54601354611bc790919063ffffffff16565b611ec190919063ffffffff16565b1015611426576005600860006101000a81548160ff0219169083600581111561142057fe5b02179055505b5b565b600060105490506004600581111561143d57fe5b600860009054906101000a900460ff16600581111561145857fe5b14156114645760165490505b90565b600c5481565b60135481565b6000600d5490506004600581111561148757fe5b600860009054906101000a900460ff1660058111156114a257fe5b14156114ae5760135490505b90565b600460009054906101000a900473ffffffffffffffffffffffffffffffffffffffff1673ffffffffffffffffffffffffffffffffffffffff163373ffffffffffffffffffffffffffffffffffffffff1614151561150d57600080fd5b6001600560008373ffffffffffffffffffffffffffffffffffffffff1673ffffffffffffffffffffffffffffffffffffffff16815260200190815260200160002060006101000a81548160ff02191690831515021790555050565b60125481565b600460009054906101000a900473ffffffffffffffffffffffffffffffffffffffff1673ffffffffffffffffffffffffffffffffffffffff163373ffffffffffffffffffffffffffffffffffffffff161415156115ca57600080fd5b600073ffffffffffffffffffffffffffffffffffffffff168173ffffffffffffffffffffffffffffffffffffffff161415151561160657600080fd5b8073ffffffffffffffffffffffffffffffffffffffff16600460009054906101000a900473ffffffffffffffffffffffffffffffffffffffff1673ffffffffffffffffffffffffffffffffffffffff167f8be0079c531659141344cd1fd0a4f28419497f9722a3daafe3b4186f6b6457e060405160405180910390a380600460006101000a81548173ffffffffffffffffffffffffffffffffffffffff021916908373ffffffffffffffffffffffffffffffffffffffff16021790555050565b6000809054906101000a900473ffffffffffffffffffffffffffffffffffffffff1681565b6000806000600160058111156116fd57fe5b600860009054906101000a900460ff16600581111561171857fe5b1480156117275750600b544210155b15611751576002600860006101000a81548160ff0219169083600581111561174b57fe5b02179055505b6002600581111561175e57fe5b600860009054906101000a900460ff16600581111561177957fe5b1480156117875750600c5442115b156117955761179461102c565b5b600360058111156117a257fe5b600860009054906101000a900460ff1660058111156117bd57fe5b1480156117d05750620d2f00600c540142115b156117fa576004600860006101000a81548160ff021916908360058111156117f457fe5b02179055505b6004600581111561180757fe5b600860009054906101000a900460ff16600581111561182257fe5b148015611830575060125442115b1561183e5761183d610b16565b5b84600560008273ffffffffffffffffffffffffffffffffffffffff1673ffffffffffffffffffffffffffffffffffffffff16815260200190815260200160002060009054906101000a900460ff16151561189757600080fd5b61189f610e21565b1515611913576040517f08c379a000000000000000000000000000000000000000000000000000000000815260040180806020018281038252600e8152602001807f53616c6520697320436c6f73656400000000000000000000000000000000000081525060200191505060405180910390fd5b849350600a5461196b85600760003373ffffffffffffffffffffffffffffffffffffffff1673ffffffffffffffffffffffffffffffffffffffff16815260200190815260200160002054611bc790919063ffffffff16565b11156119f5576119d7600a546119c986600760003373ffffffffffffffffffffffffffffffffffffffff1673ffffffffffffffffffffffffffffffffffffffff16815260200190815260200160002054611bc790919063ffffffff16565b611ec190919063ffffffff16565b6017819055506119f260175485611ec190919063ffffffff16565b93505b6119fd611473565b9250611a07611429565b915082611a1d8584611bc790919063ffffffff16565b1115611a9557611a5c611a4b84611a3d8786611bc790919063ffffffff16565b611ec190919063ffffffff16565b601754611bc790919063ffffffff16565b601781905550611a7760175486611ec190919063ffffffff16565b93506001601860006101000a81548160ff0219169083151502179055505b6009548410151515611b0f576040517f08c379a000000000000000000000000000000000000000000000000000000000815260040180806020018281038252601a8152602001807f436f6e747269627574696f6e2062656c6f77206d696e696d756d00000000000081525060200191505060405180910390fd5b505050505050565b6000611b56600254611b486103e8611b3a60175487611ec190919063ffffffff16565b61219a90919063ffffffff16565b6121d290919063ffffffff16565b905060026005811115611b6557fe5b600860009054906101000a900460ff166005811115611b8057fe5b1415611bc257611bbf611bb06064611ba260198561219a90919063ffffffff16565b6121d290919063ffffffff16565b82611bc790919063ffffffff16565b90505b919050565b60008183019050828110151515611bda57fe5b80905092915050565b611bed82826121e8565b5050565b611c57611c0960175483611ec190919063ffffffff16565b600760008573ffffffffffffffffffffffffffffffffffffffff1673ffffffffffffffffffffffffffffffffffffffff16815260200190815260200160002054611bc790919063ffffffff16565b600760008473ffffffffffffffffffffffffffffffffffffffff1673ffffffffffffffffffffffffffffffffffffffff168152602001908152602001600020819055505050565b600160009054906101000a900473ffffffffffffffffffffffffffffffffffffffff1673ffffffffffffffffffffffffffffffffffffffff166108fc611cef60175434611ec190919063ffffffff16565b9081150290604051600060405180830381858888f19350505050158015611d1a573d6000803e3d6000fd5b50565b600080611d2983611b17565b915060026005811115611d3857fe5b600860009054906101000a900460ff166005811115611d5357fe5b1415611dc657611d6e82600f54611bc790919063ffffffff16565b600f81905550611d9d611d8c60175485611ec190919063ffffffff16565b601054611bc790919063ffffffff16565b601081905550601860009054906101000a900460ff1615611dc157611dc061102c565b5b611e2f565b611ddb82601554611bc790919063ffffffff16565b601581905550611e0a611df960175485611ec190919063ffffffff16565b601654611bc790919063ffffffff16565b601681905550601860009054906101000a900460ff1615611e2e57611e2d610b16565b5b5b611e46601754600354611ec190919063ffffffff16565b600381905550601754905060006017819055506000601860006101000a81548160ff0219169083151502179055508373ffffffffffffffffffffffffffffffffffffffff166108fc829081150290604051600060405180830381858888f19350505050158015611eba573d6000803e3d6000fd5b5050505050565b6000828211151515611ecf57fe5b818303905092915050565b600460009054906101000a900473ffffffffffffffffffffffffffffffffffffffff1673ffffffffffffffffffffffffffffffffffffffff163373ffffffffffffffffffffffffffffffffffffffff16141515611f3657600080fd5b6000806005811115611f4457fe5b600860009054906101000a900460ff166005811115611f5f57fe5b141515611f6b57600080fd5b816000806101000a81548173ffffffffffffffffffffffffffffffffffffffff021916908373ffffffffffffffffffffffffffffffffffffffff1602179055503073ffffffffffffffffffffffffffffffffffffffff168273ffffffffffffffffffffffffffffffffffffffff16638da5cb5b6040518163ffffffff167c0100000000000000000000000000000000000000000000000000000000028152600401602060405180830381600087803b15801561202657600080fd5b505af115801561203a573d6000803e3d6000fd5b505050506040513d602081101561205057600080fd5b810190808051906020019092919050505073ffffffffffffffffffffffffffffffffffffffff161415156120ec576040517f08c379a00000000000000000000000000000000000000000000000000000000081526004018080602001828103825260168152602001807f4973737565207769746820746f6b656e2073657475700000000000000000000081525060200191505060405180910390fd5b5050565b600460009054906101000a900473ffffffffffffffffffffffffffffffffffffffff1673ffffffffffffffffffffffffffffffffffffffff163373ffffffffffffffffffffffffffffffffffffffff1614151561214c57600080fd5b600080600581111561215a57fe5b600860009054906101000a900460ff16600581111561217557fe5b14151561218157600080fd5b81600b819055506276a700600b5401600c819055505050565b6000808314156121ad57600090506121cc565b81830290508183828115156121be57fe5b041415156121c857fe5b8090505b92915050565b600081838115156121df57fe5b04905092915050565b6000809054906101000a900473ffffffffffffffffffffffffffffffffffffffff1673ffffffffffffffffffffffffffffffffffffffff166340c10f1983836040518363ffffffff167c0100000000000000000000000000000000000000000000000000000000028152600401808373ffffffffffffffffffffffffffffffffffffffff1673ffffffffffffffffffffffffffffffffffffffff16815260200182815260200192505050602060405180830381600087803b1580156122ac57600080fd5b505af11580156122c0573d6000803e3d6000fd5b505050506040513d60208110156122d657600080fd5b810190808051906020019092919050505015156122f257600080fd5b50505600a165627a7a72305820deb285e696881f35af39831ea361e98430d4973a949d9f989761a2091f35a5900029",
  "source": "pragma solidity 0.4.24;\n\nimport 'openzeppelin-solidity/contracts/crowdsale/emission/MintedCrowdsale.sol';\nimport 'openzeppelin-solidity/contracts/crowdsale/validation/WhitelistedCrowdsale.sol';\nimport './SolidifiedToken.sol';\nimport './Distributable.sol';\nimport 'openzeppelin-solidity/contracts/lifecycle/Pausable.sol';\n\ncontract TokenSale is MintedCrowdsale, WhitelistedCrowdsale, Pausable {\n\n  enum Stages{\n    SETUP,\n    READY,\n    PRESALE,\n    BREAK,\n    PUBLICSALE,\n    FINALAIZED\n  }\n\n  //Global Variables\n  mapping(address => uint) public contributions;\n  Stages public currentStage;\n  uint256 public minimumContribution;\n  uint256 public maximumContribution;\n\n  //PRESALE VARIABLES\n  uint256 public presale_StartDate;\n  uint256 public presale_EndDate;\n  uint256 public presale_Cap;\n  uint256 public presale_TokenCap;\n  uint256 public presale_TokesSold;\n  uint256 public presale_WeiRaised;\n\n  //PUBLICSALE VARIABLES\n  uint256 public publicSale_StartDate;\n  uint256 public publicSale_EndDate;\n  uint256 public publicSale_Cap;\n  uint256 public publicSale_TokenCap;\n  uint256 public publicSale_TokesSold;\n  uint256 public publicSale_WeiRaised;\n\n\n  //TEMP VARIABLE - USED TO NOT OVERRIDE MORE OZ FUNCTIONS\n  uint256 changeDue;\n  bool capReached;\n\n\n  constructor(uint256 _rate, address _wallet, ERC20 _token, uint256 presaleCap, uint256 publicCap) public Crowdsale(_rate,_wallet,_token) {\n    presale_TokenCap = 1600000 ether;\n    publicSale_TokenCap = 800000 ether;\n    presale_Cap = presaleCap;\n    publicSale_Cap = publicCap;\n    minimumContribution = 0.5 ether;\n    maximumContribution = 100 ether;\n  }\n\n  modifier atStage(Stages _currentStage){\n    require(currentStage == _currentStage);\n    _;\n  }\n\n  modifier timedTransition(){\n    if(currentStage == Stages.READY && now >= presale_StartDate){\n      currentStage = Stages.PRESALE;\n    }\n    if(currentStage == Stages.PRESALE && now > presale_EndDate){\n      finalizePresale();\n    }\n    if(currentStage == Stages.BREAK && now > presale_EndDate + 10 days){\n      currentStage = Stages.PUBLICSALE;\n    }\n    if(currentStage == Stages.PUBLICSALE && now > publicSale_EndDate){\n      finalizeSale();\n    }\n    _;\n  }\n\n  function updateStage() timedTransition {\n    //Satge Conversions not covered by times Transitions\n    if(currentStage == Stages.PRESALE){\n      if(presale_Cap.sub(weiRaised) < minimumContribution)\n        finalizePresale();\n    }\n    if(currentStage == Stages.PUBLICSALE){\n      if((publicSale_Cap.add(presale_Cap)).sub(weiRaised) < minimumContribution)\n        currentStage = Stages.FINALAIZED;\n    }\n  }\n\n  function setupSale(uint256 initialDate, address tokenAddress) onlyOwner atStage(Stages.SETUP) public {\n    setUpToken(tokenAddress);\n    setDates(initialDate);\n    currentStage = Stages.READY;\n  }\n\n  /**\n   * @dev Sets tha dates and durations of the different sale stages\n   * @param _presaleSartDate A timestamp representing the start of the presale\n   */\n  function setDates(uint256 _presaleSartDate) onlyOwner atStage(Stages.SETUP) internal {\n    presale_StartDate = _presaleSartDate;\n    presale_EndDate = presale_StartDate + 90 days;\n  }\n\n  function setUpToken(address _token) onlyOwner atStage(Stages.SETUP) internal {\n    token = ERC20(_token);\n    require(SolidifiedToken(_token).owner() == address(this), \"Issue with token setup\");\n  }\n\n  /**\n   * @dev Returns de ETH cap of the current currentStage\n   * @return uint256 representing the cap\n   */\n  function getCurrentCap() public returns(uint256 cap){\n    cap = presale_Cap;\n    if(currentStage == Stages.PUBLICSALE){\n      cap = publicSale_Cap;\n    }\n  }\n\n  /**\n   * @dev Returns de ETH cap of the current currentStage\n   * @return uint256 representing the cap\n   */\n  function getRaisedForCurrentStage() public returns(uint256 raised){\n    raised = presale_WeiRaised;\n    if(currentStage == Stages.PUBLICSALE)\n      raised = publicSale_WeiRaised;\n  }\n\n  function saleOpen() public timedTransition returns(bool open) {\n    open = ((now >= presale_StartDate && now <= presale_EndDate) ||\n           (now >= publicSale_StartDate && now <= publicSale_EndDate)) &&\n           (currentStage == Stages.PRESALE || currentStage == Stages.PUBLICSALE);\n  }\n\n  /* function distributeTokens(address[] beneficiaries, uint256[] amounts) public onlyOwner atStage(Stages.FINALAIZED) {\n    for(uint i = 0; i < beneficiaries.length; i++){\n      _deliverTokens(beneficiaries[i], amounts[i]);\n    }\n  } */\n\n  function finalizePresale() atStage(Stages.PRESALE) public{\n    presale_EndDate = now;\n    publicSale_StartDate = presale_EndDate + 10 days;\n    publicSale_EndDate = publicSale_StartDate + 30 days;\n    publicSale_TokenCap = publicSale_TokenCap.add(presale_TokenCap.sub(presale_TokesSold));\n    publicSale_Cap = publicSale_Cap.add(presale_Cap.sub(weiRaised.sub(changeDue)));\n    currentStage = Stages.BREAK;\n  }\n\n  function finalizeSale() public {\n    publicSale_EndDate = now;\n    // Mint tokens to founders and partnes\n    // Enable token transfer\n    // Finish token minting\n    // Set token timelock\n    currentStage = Stages.FINALAIZED;\n  }\n\n\n  //OVERRIDES\n\n  /**\n   * @dev Validation of an incoming purchase. Use require statements to revert state when conditions are not met. Use super to concatenate validations.\n   * @param _beneficiary Address performing the token purchase\n   * @param _weiAmount Value in wei involved in the purchase\n   */\n  function _preValidatePurchase(address _beneficiary, uint256 _weiAmount) timedTransition isWhitelisted(_beneficiary) internal {\n    require(saleOpen(), \"Sale is Closed\");\n\n    // Check for edge cases\n    uint256 acceptedValue = _weiAmount;\n    if(contributions[msg.sender].add(acceptedValue) > maximumContribution){\n      changeDue = contributions[msg.sender].add(acceptedValue).sub(maximumContribution);\n      acceptedValue = acceptedValue.sub(changeDue);\n    }\n    uint256 currentCap = getCurrentCap();\n    uint256 raised = getRaisedForCurrentStage();\n    if(raised.add(acceptedValue) > currentCap){\n      changeDue = changeDue.add(raised.add(acceptedValue).sub(currentCap));\n      acceptedValue = _weiAmount.sub(changeDue);\n      capReached = true;\n    }\n    require(acceptedValue >= minimumContribution, \"Contribution below minimum\");\n  }\n\n  /**\n   * @dev Override to extend the way in which ether is converted to tokens.\n   * @param _weiAmount Value in wei to be converted into tokens\n   * @return Number of tokens that can be purchased with the specified _weiAmount\n   */\n  function _getTokenAmount(uint256 _weiAmount) internal view returns (uint256 amount) {\n    amount = (_weiAmount.sub(changeDue)).mul(1000).div(rate); // Multiplication to account for the decimal cases in the rate\n    if(currentStage == Stages.PRESALE){\n      amount = amount.add(amount.mul(25).div(100)); //Add bonus\n    }\n  }\n\n  /**\n   * @dev Validation of an executed purchase. Observe state and use revert statements to undo rollback when valid conditions are not met.\n   * @param _beneficiary Address performing the token purchase\n   * @param _weiAmount Value in wei involved in the purchase\n   */\n  function _postValidatePurchase(address _beneficiary, uint256 _weiAmount) internal {\n    uint256 tokenAmount = _getTokenAmount(_weiAmount);\n\n    if(currentStage == Stages.PRESALE){\n      presale_TokesSold = presale_TokesSold.add(tokenAmount);\n      presale_WeiRaised = presale_WeiRaised.add(_weiAmount.sub(changeDue));\n      if(capReached)\n        finalizePresale();\n    } else{\n      publicSale_TokesSold = publicSale_TokesSold.add(tokenAmount);\n      publicSale_WeiRaised = publicSale_WeiRaised.add(_weiAmount.sub(changeDue));\n      if(capReached)\n        finalizeSale();\n    }\n\n    //Triggers for reaching cap\n    weiRaised = weiRaised.sub(changeDue);\n    uint256 change = changeDue;\n    changeDue = 0;\n    capReached = false;\n    _beneficiary.transfer(change);\n  }\n\n  /**\n   * @dev Override for extensions that require an internal state to check for validity (current user contributions, etc.)\n   * @param _beneficiary Address receiving the tokens\n   * @param _weiAmount Value in wei involved in the purchase\n   */\n  function _updatePurchasingState(address _beneficiary, uint256 _weiAmount) internal {\n    contributions[_beneficiary] = contributions[_beneficiary].add(_weiAmount.sub(changeDue));\n  }\n\n  /**\n   * @dev Determines how ETH is stored/forwarded on purchases.\n   */\n  function _forwardFunds() internal {\n    wallet.transfer(msg.value.sub(changeDue));\n  }\n\n\n}\n// Rate, wallet, token, presalecap, publicSaleCap\n// 15, \"0xca35b7d915458ef540ade6068dfe2f44e8fa733c\", \"0xbbf289d846208c16edc8474705c748aff07732db\", \"19200000000000000000\", \"120000000000000000\"\n",
  "sourcePath": "/home/jgcarv/Dev/Ethereum/Solidified/Crowdsale/Smart-Contracts/contracts/TokenSale.sol",
  "compiler": {
    "name": "solc",
    "version": "0.4.24+commit.e67f0147.Emscripten.clang"
  },
  "schemaVersion": "2.0.0",
  "updatedAt": "2018-06-05T15:00:39.939Z"
}