{
  "contractName": "TokenSale",
  "abi": [
    {
      "constant": true,
      "inputs": [],
      "name": "presale_WeiRaised",
      "outputs": [
        {
          "name": "",
          "type": "uint256"
        }
      ],
      "payable": false,
      "stateMutability": "view",
      "type": "function"
    },
    {
      "constant": true,
      "inputs": [],
      "name": "rate",
      "outputs": [
        {
          "name": "",
          "type": "uint256"
        }
      ],
      "payable": false,
      "stateMutability": "view",
      "type": "function"
    },
    {
      "constant": false,
      "inputs": [],
      "name": "unpause",
      "outputs": [],
      "payable": false,
      "stateMutability": "nonpayable",
      "type": "function"
    },
    {
      "constant": true,
      "inputs": [],
      "name": "weiRaised",
      "outputs": [
        {
          "name": "",
          "type": "uint256"
        }
      ],
      "payable": false,
      "stateMutability": "view",
      "type": "function"
    },
    {
      "constant": true,
      "inputs": [
        {
          "name": "",
          "type": "address"
        }
      ],
      "name": "contributions",
      "outputs": [
        {
          "name": "",
          "type": "uint256"
        }
      ],
      "payable": false,
      "stateMutability": "view",
      "type": "function"
    },
    {
      "constant": true,
      "inputs": [],
      "name": "publicSale_WeiRaised",
      "outputs": [
        {
          "name": "",
          "type": "uint256"
        }
      ],
      "payable": false,
      "stateMutability": "view",
      "type": "function"
    },
    {
      "constant": true,
      "inputs": [],
      "name": "wallet",
      "outputs": [
        {
          "name": "",
          "type": "address"
        }
      ],
      "payable": false,
      "stateMutability": "view",
      "type": "function"
    },
    {
      "constant": true,
      "inputs": [],
      "name": "publicSale_TokesSold",
      "outputs": [
        {
          "name": "",
          "type": "uint256"
        }
      ],
      "payable": false,
      "stateMutability": "view",
      "type": "function"
    },
    {
      "constant": true,
      "inputs": [],
      "name": "publicSale_TokenCap",
      "outputs": [
        {
          "name": "",
          "type": "uint256"
        }
      ],
      "payable": false,
      "stateMutability": "view",
      "type": "function"
    },
    {
      "constant": true,
      "inputs": [],
      "name": "currentStage",
      "outputs": [
        {
          "name": "",
          "type": "uint8"
        }
      ],
      "payable": false,
      "stateMutability": "view",
      "type": "function"
    },
    {
      "constant": true,
      "inputs": [],
      "name": "paused",
      "outputs": [
        {
          "name": "",
          "type": "bool"
        }
      ],
      "payable": false,
      "stateMutability": "view",
      "type": "function"
    },
    {
      "constant": true,
      "inputs": [],
      "name": "publicSale_StartDate",
      "outputs": [
        {
          "name": "",
          "type": "uint256"
        }
      ],
      "payable": false,
      "stateMutability": "view",
      "type": "function"
    },
    {
      "constant": true,
      "inputs": [],
      "name": "presale_TokenCap",
      "outputs": [
        {
          "name": "",
          "type": "uint256"
        }
      ],
      "payable": false,
      "stateMutability": "view",
      "type": "function"
    },
    {
      "constant": false,
      "inputs": [],
      "name": "pause",
      "outputs": [],
      "payable": false,
      "stateMutability": "nonpayable",
      "type": "function"
    },
    {
      "constant": false,
      "inputs": [
        {
          "name": "_beneficiary",
          "type": "address"
        }
      ],
      "name": "removeFromWhitelist",
      "outputs": [],
      "payable": false,
      "stateMutability": "nonpayable",
      "type": "function"
    },
    {
      "constant": true,
      "inputs": [],
      "name": "presale_TokesSold",
      "outputs": [
        {
          "name": "",
          "type": "uint256"
        }
      ],
      "payable": false,
      "stateMutability": "view",
      "type": "function"
    },
    {
      "constant": false,
      "inputs": [
        {
          "name": "_beneficiaries",
          "type": "address[]"
        }
      ],
      "name": "addManyToWhitelist",
      "outputs": [],
      "payable": false,
      "stateMutability": "nonpayable",
      "type": "function"
    },
    {
      "constant": true,
      "inputs": [],
      "name": "owner",
      "outputs": [
        {
          "name": "",
          "type": "address"
        }
      ],
      "payable": false,
      "stateMutability": "view",
      "type": "function"
    },
    {
      "constant": true,
      "inputs": [],
      "name": "minimumContribution",
      "outputs": [
        {
          "name": "",
          "type": "uint256"
        }
      ],
      "payable": false,
      "stateMutability": "view",
      "type": "function"
    },
    {
      "constant": true,
      "inputs": [
        {
          "name": "",
          "type": "address"
        }
      ],
      "name": "whitelist",
      "outputs": [
        {
          "name": "",
          "type": "bool"
        }
      ],
      "payable": false,
      "stateMutability": "view",
      "type": "function"
    },
    {
      "constant": true,
      "inputs": [],
      "name": "maximumContribution",
      "outputs": [
        {
          "name": "",
          "type": "uint256"
        }
      ],
      "payable": false,
      "stateMutability": "view",
      "type": "function"
    },
    {
      "constant": true,
      "inputs": [
        {
          "name": "",
          "type": "address"
        }
      ],
      "name": "percentages",
      "outputs": [
        {
          "name": "",
          "type": "uint256"
        }
      ],
      "payable": false,
      "stateMutability": "view",
      "type": "function"
    },
    {
      "constant": true,
      "inputs": [],
      "name": "presale_Cap",
      "outputs": [
        {
          "name": "",
          "type": "uint256"
        }
      ],
      "payable": false,
      "stateMutability": "view",
      "type": "function"
    },
    {
      "constant": true,
      "inputs": [],
      "name": "presale_StartDate",
      "outputs": [
        {
          "name": "",
          "type": "uint256"
        }
      ],
      "payable": false,
      "stateMutability": "view",
      "type": "function"
    },
    {
      "constant": true,
      "inputs": [
        {
          "name": "",
          "type": "uint256"
        }
      ],
      "name": "partners",
      "outputs": [
        {
          "name": "",
          "type": "address"
        }
      ],
      "payable": false,
      "stateMutability": "view",
      "type": "function"
    },
    {
      "constant": true,
      "inputs": [],
      "name": "presale_EndDate",
      "outputs": [
        {
          "name": "",
          "type": "uint256"
        }
      ],
      "payable": false,
      "stateMutability": "view",
      "type": "function"
    },
    {
      "constant": true,
      "inputs": [],
      "name": "publicSale_Cap",
      "outputs": [
        {
          "name": "",
          "type": "uint256"
        }
      ],
      "payable": false,
      "stateMutability": "view",
      "type": "function"
    },
    {
      "constant": false,
      "inputs": [
        {
          "name": "_beneficiary",
          "type": "address"
        }
      ],
      "name": "addToWhitelist",
      "outputs": [],
      "payable": false,
      "stateMutability": "nonpayable",
      "type": "function"
    },
    {
      "constant": true,
      "inputs": [],
      "name": "publicSale_EndDate",
      "outputs": [
        {
          "name": "",
          "type": "uint256"
        }
      ],
      "payable": false,
      "stateMutability": "view",
      "type": "function"
    },
    {
      "constant": false,
      "inputs": [
        {
          "name": "_beneficiary",
          "type": "address"
        }
      ],
      "name": "buyTokens",
      "outputs": [],
      "payable": true,
      "stateMutability": "payable",
      "type": "function"
    },
    {
      "constant": false,
      "inputs": [
        {
          "name": "newOwner",
          "type": "address"
        }
      ],
      "name": "transferOwnership",
      "outputs": [],
      "payable": false,
      "stateMutability": "nonpayable",
      "type": "function"
    },
    {
      "constant": true,
      "inputs": [],
      "name": "token",
      "outputs": [
        {
          "name": "",
          "type": "address"
        }
      ],
      "payable": false,
      "stateMutability": "view",
      "type": "function"
    },
    {
      "inputs": [
        {
          "name": "_rate",
          "type": "uint256"
        },
        {
          "name": "_wallet",
          "type": "address"
        },
        {
          "name": "_token",
          "type": "address"
        },
        {
          "name": "presaleCap",
          "type": "uint256"
        },
        {
          "name": "publicCap",
          "type": "uint256"
        }
      ],
      "payable": false,
      "stateMutability": "nonpayable",
      "type": "constructor"
    },
    {
      "payable": true,
      "stateMutability": "payable",
      "type": "fallback"
    },
    {
      "anonymous": false,
      "inputs": [],
      "name": "Pause",
      "type": "event"
    },
    {
      "anonymous": false,
      "inputs": [],
      "name": "Unpause",
      "type": "event"
    },
    {
      "anonymous": false,
      "inputs": [
        {
          "indexed": true,
          "name": "previousOwner",
          "type": "address"
        },
        {
          "indexed": true,
          "name": "newOwner",
          "type": "address"
        }
      ],
      "name": "OwnershipTransferred",
      "type": "event"
    },
    {
      "anonymous": false,
      "inputs": [
        {
          "indexed": true,
          "name": "purchaser",
          "type": "address"
        },
        {
          "indexed": true,
          "name": "beneficiary",
          "type": "address"
        },
        {
          "indexed": false,
          "name": "value",
          "type": "uint256"
        },
        {
          "indexed": false,
          "name": "amount",
          "type": "uint256"
        }
      ],
      "name": "TokenPurchase",
      "type": "event"
    },
    {
      "constant": false,
      "inputs": [],
      "name": "updateStage",
      "outputs": [],
      "payable": false,
      "stateMutability": "nonpayable",
      "type": "function"
    },
    {
      "constant": false,
      "inputs": [
        {
          "name": "initialDate",
          "type": "uint256"
        },
        {
          "name": "tokenAddress",
          "type": "address"
        }
      ],
      "name": "setupSale",
      "outputs": [],
      "payable": false,
      "stateMutability": "nonpayable",
      "type": "function"
    },
    {
      "constant": false,
      "inputs": [],
      "name": "getCurrentCap",
      "outputs": [
        {
          "name": "cap",
          "type": "uint256"
        }
      ],
      "payable": false,
      "stateMutability": "nonpayable",
      "type": "function"
    },
    {
      "constant": false,
      "inputs": [],
      "name": "getRaisedForCurrentStage",
      "outputs": [
        {
          "name": "raised",
          "type": "uint256"
        }
      ],
      "payable": false,
      "stateMutability": "nonpayable",
      "type": "function"
    },
    {
      "constant": false,
      "inputs": [],
      "name": "saleOpen",
      "outputs": [
        {
          "name": "open",
          "type": "bool"
        }
      ],
      "payable": false,
      "stateMutability": "nonpayable",
      "type": "function"
    },
    {
      "constant": false,
      "inputs": [],
      "name": "distributeTokens",
      "outputs": [],
      "payable": false,
      "stateMutability": "nonpayable",
      "type": "function"
    },
    {
      "constant": false,
      "inputs": [],
      "name": "finalizePresale",
      "outputs": [],
      "payable": false,
      "stateMutability": "nonpayable",
      "type": "function"
    },
    {
      "constant": false,
      "inputs": [],
      "name": "finalizeSale",
      "outputs": [],
      "payable": false,
      "stateMutability": "nonpayable",
      "type": "function"
    }
  ],
  "bytecode": "0x60806040526000600660006101000a81548160ff0219169083151502179055506101406040519081016040528073c4d557d795ce16c49624e48045b380f169e0000173ffffffffffffffffffffffffffffffffffffffff168152602001730c4d557d795ce16c49624e48045b380f169e000273ffffffffffffffffffffffffffffffffffffffff16815260200173c4d557d795ce16c49624e48045b380f169e0000373ffffffffffffffffffffffffffffffffffffffff168152602001730c4d557d795ce16c49624e48045b380f169e000473ffffffffffffffffffffffffffffffffffffffff16815260200173c4d557d795ce16c49624e48045b380f169e0000573ffffffffffffffffffffffffffffffffffffffff168152602001730c4d557d795ce16c49624e48045b380f169e000673ffffffffffffffffffffffffffffffffffffffff16815260200173c4d557d795ce16c49624e48045b380f169e0000773ffffffffffffffffffffffffffffffffffffffff168152602001730c4d557d795ce16c49624e48045b380f169e000873ffffffffffffffffffffffffffffffffffffffff16815260200173c4d557d795ce16c49624e48045b380f169e0000973ffffffffffffffffffffffffffffffffffffffff16815260200173c4d557d795ce16c49624e48045b380f169e0001073ffffffffffffffffffffffffffffffffffffffff16815250600790600a6200021c929190620006c8565b503480156200022a57600080fd5b5060405160a08062002eb383398101806040528101908080519060200190929190805190602001909291908051906020019092919080519060200190929190805190602001909291905050508484846000831115156200028957600080fd5b600073ffffffffffffffffffffffffffffffffffffffff168273ffffffffffffffffffffffffffffffffffffffff1614151515620002c657600080fd5b600073ffffffffffffffffffffffffffffffffffffffff168173ffffffffffffffffffffffffffffffffffffffff16141515156200030357600080fd5b8260028190555081600160006101000a81548173ffffffffffffffffffffffffffffffffffffffff021916908373ffffffffffffffffffffffffffffffffffffffff160217905550806000806101000a81548173ffffffffffffffffffffffffffffffffffffffff021916908373ffffffffffffffffffffffffffffffffffffffff16021790555050505033600460006101000a81548173ffffffffffffffffffffffffffffffffffffffff021916908373ffffffffffffffffffffffffffffffffffffffff16021790555060056008600073c4d557d795ce16c49624e48045b380f169e0000173ffffffffffffffffffffffffffffffffffffffff1681526020019081526020016000208190555060056008600073c4d557d795ce16c49624e48045b380f169e0000273ffffffffffffffffffffffffffffffffffffffff1681526020019081526020016000208190555060056008600073c4d557d795ce16c49624e48045b380f169e0000373ffffffffffffffffffffffffffffffffffffffff1681526020019081526020016000208190555060056008600073c4d557d795ce16c49624e48045b380f169e0000473ffffffffffffffffffffffffffffffffffffffff1681526020019081526020016000208190555060056008600073c4d557d795ce16c49624e48045b380f169e0000573ffffffffffffffffffffffffffffffffffffffff1681526020019081526020016000208190555060056008600073c4d557d795ce16c49624e48045b380f169e0000673ffffffffffffffffffffffffffffffffffffffff1681526020019081526020016000208190555060056008600073c4d557d795ce16c49624e48045b380f169e0000773ffffffffffffffffffffffffffffffffffffffff1681526020019081526020016000208190555060056008600073c4d557d795ce16c49624e48045b380f169e0000873ffffffffffffffffffffffffffffffffffffffff1681526020019081526020016000208190555060056008600073c4d557d795ce16c49624e48045b380f169e0000973ffffffffffffffffffffffffffffffffffffffff1681526020019081526020016000208190555060056008600073c4d557d795ce16c49624e48045b380f169e0001073ffffffffffffffffffffffffffffffffffffffff168152602001908152602001600020819055506a0152d02c7e14af6800000060108190555069a968163f0a57b400000060168190555081600f81905550806015819055506706f05b59d3b20000600b8190555068056bc75e2d63100000600c8190555050505050506200079d565b82805482825590600052602060002090810192821562000744579160200282015b82811115620007435782518260006101000a81548173ffffffffffffffffffffffffffffffffffffffff021916908373ffffffffffffffffffffffffffffffffffffffff16021790555091602001919060010190620006e9565b5b50905062000753919062000757565b5090565b6200079a91905b808211156200079657600081816101000a81549073ffffffffffffffffffffffffffffffffffffffff0219169055506001016200075e565b5090565b90565b61270680620007ad6000396000f3006080604052600436106101ee576000357c0100000000000000000000000000000000000000000000000000000000900463ffffffff16806313922fc3146101f95780632c4e722e146102245780633f4ba83a1461024f5780634042b66f1461026657806342e94c90146102915780634423ef18146102e8578063521eb2731461031357806354d96eff1461036a578063570389dc1461039557806358a687ec146103c05780635bf5d54c146103d75780635c975abb1461041057806368436f151461043f5780638293cff71461046a5780638456cb59146104955780638ab1d681146104ac5780638b369cdb146104ef5780638c10671c1461051a5780638da5cb5b14610555578063937e09b1146105ac57806399288dbb146105d75780639ab1b484146106065780639b19251a1461061d5780639c2fcd45146106785780639d592c66146106a3578063a0a6e940146106fa578063aa72f65114610711578063b683b96b1461073c578063bd3e740114610767578063c062f578146107b4578063c11efcdc146107cb578063c3b49d04146107f6578063c8af3bd614610863578063d79448451461088e578063d8c30700146108b9578063e43252d7146108e4578063ea334e2714610927578063ec8ac4d814610952578063f2fde38b14610988578063fc0c546a146109cb575b6101f733610a22565b005b34801561020557600080fd5b5061020e610af0565b6040518082815260200191505060405180910390f35b34801561023057600080fd5b50610239610af6565b6040518082815260200191505060405180910390f35b34801561025b57600080fd5b50610264610afc565b005b34801561027257600080fd5b5061027b610bbc565b6040518082815260200191505060405180910390f35b34801561029d57600080fd5b506102d2600480360381019080803573ffffffffffffffffffffffffffffffffffffffff169060200190929190505050610bc2565b6040518082815260200191505060405180910390f35b3480156102f457600080fd5b506102fd610bda565b6040518082815260200191505060405180910390f35b34801561031f57600080fd5b50610328610be0565b604051808273ffffffffffffffffffffffffffffffffffffffff1673ffffffffffffffffffffffffffffffffffffffff16815260200191505060405180910390f35b34801561037657600080fd5b5061037f610c06565b6040518082815260200191505060405180910390f35b3480156103a157600080fd5b506103aa610c0c565b6040518082815260200191505060405180910390f35b3480156103cc57600080fd5b506103d5610c12565b005b3480156103e357600080fd5b506103ec610d1a565b604051808260058111156103fc57fe5b60ff16815260200191505060405180910390f35b34801561041c57600080fd5b50610425610d2d565b604051808215151515815260200191505060405180910390f35b34801561044b57600080fd5b50610454610d40565b6040518082815260200191505060405180910390f35b34801561047657600080fd5b5061047f610d46565b6040518082815260200191505060405180910390f35b3480156104a157600080fd5b506104aa610d4c565b005b3480156104b857600080fd5b506104ed600480360381019080803573ffffffffffffffffffffffffffffffffffffffff169060200190929190505050610e0d565b005b3480156104fb57600080fd5b50610504610ec4565b6040518082815260200191505060405180910390f35b34801561052657600080fd5b50610553600480360381019080803590602001908201803590602001919091929391929390505050610eca565b005b34801561056157600080fd5b5061056a610fcc565b604051808273ffffffffffffffffffffffffffffffffffffffff1673ffffffffffffffffffffffffffffffffffffffff16815260200191505060405180910390f35b3480156105b857600080fd5b506105c1610ff2565b6040518082815260200191505060405180910390f35b3480156105e357600080fd5b506105ec610ff8565b604051808215151515815260200191505060405180910390f35b34801561061257600080fd5b5061061b6111dd565b005b34801561062957600080fd5b5061065e600480360381019080803573ffffffffffffffffffffffffffffffffffffffff169060200190929190505050611394565b604051808215151515815260200191505060405180910390f35b34801561068457600080fd5b5061068d6113b4565b6040518082815260200191505060405180910390f35b3480156106af57600080fd5b506106e4600480360381019080803573ffffffffffffffffffffffffffffffffffffffff1690602001909291905050506113ba565b6040518082815260200191505060405180910390f35b34801561070657600080fd5b5061070f6113d2565b005b34801561071d57600080fd5b506107266114c7565b6040518082815260200191505060405180910390f35b34801561074857600080fd5b506107516114cd565b6040518082815260200191505060405180910390f35b34801561077357600080fd5b506107b260048036038101908080359060200190929190803573ffffffffffffffffffffffffffffffffffffffff1690602001909291905050506114d3565b005b3480156107c057600080fd5b506107c961159f565b005b3480156107d757600080fd5b506107e06117cf565b6040518082815260200191505060405180910390f35b34801561080257600080fd5b506108216004803603810190808035906020019092919050505061180d565b604051808273ffffffffffffffffffffffffffffffffffffffff1673ffffffffffffffffffffffffffffffffffffffff16815260200191505060405180910390f35b34801561086f57600080fd5b5061087861184b565b6040518082815260200191505060405180910390f35b34801561089a57600080fd5b506108a3611851565b6040518082815260200191505060405180910390f35b3480156108c557600080fd5b506108ce611857565b6040518082815260200191505060405180910390f35b3480156108f057600080fd5b50610925600480360381019080803573ffffffffffffffffffffffffffffffffffffffff169060200190929190505050611895565b005b34801561093357600080fd5b5061093c61194c565b6040518082815260200191505060405180910390f35b610986600480360381019080803573ffffffffffffffffffffffffffffffffffffffff169060200190929190505050610a22565b005b34801561099457600080fd5b506109c9600480360381019080803573ffffffffffffffffffffffffffffffffffffffff169060200190929190505050611952565b005b3480156109d757600080fd5b506109e0611aaa565b604051808273ffffffffffffffffffffffffffffffffffffffff1673ffffffffffffffffffffffffffffffffffffffff16815260200191505060405180910390f35b600080349150610a328383611acf565b610a3b82611efb565b9050610a5282600354611fab90919063ffffffff16565b600381905550610a628382611fc7565b8273ffffffffffffffffffffffffffffffffffffffff163373ffffffffffffffffffffffffffffffffffffffff167f623b3804fa71d67900d064613da8f94b9617215ee90799290593e1745087ad188484604051808381526020018281526020019250505060405180910390a3610ad98383611fd5565b610ae1612082565b610aeb8383612101565b505050565b60125481565b60025481565b600460009054906101000a900473ffffffffffffffffffffffffffffffffffffffff1673ffffffffffffffffffffffffffffffffffffffff163373ffffffffffffffffffffffffffffffffffffffff16141515610b5857600080fd5b600660009054906101000a900460ff161515610b7357600080fd5b6000600660006101000a81548160ff0219169083151502179055507f7805862f689e2f13df9f062ff482ad3ad112aca9e0847911ed832e158c525b3360405160405180910390a1565b60035481565b60096020528060005260406000206000915090505481565b60185481565b600160009054906101000a900473ffffffffffffffffffffffffffffffffffffffff1681565b60175481565b60165481565b426014819055506000809054906101000a900473ffffffffffffffffffffffffffffffffffffffff1673ffffffffffffffffffffffffffffffffffffffff1663728f31e762eff10042016040518263ffffffff167c010000000000000000000000000000000000000000000000000000000002815260040180828152602001915050602060405180830381600087803b158015610cae57600080fd5b505af1158015610cc2573d6000803e3d6000fd5b505050506040513d6020811015610cd857600080fd5b81019080805190602001909291905050501515610cf457600080fd5b6005600a60006101000a81548160ff02191690836005811115610d1357fe5b0217905550565b600a60009054906101000a900460ff1681565b600660009054906101000a900460ff1681565b60135481565b60105481565b600460009054906101000a900473ffffffffffffffffffffffffffffffffffffffff1673ffffffffffffffffffffffffffffffffffffffff163373ffffffffffffffffffffffffffffffffffffffff16141515610da857600080fd5b600660009054906101000a900460ff16151515610dc457600080fd5b6001600660006101000a81548160ff0219169083151502179055507f6985a02210a168e66602d3235cb6db0e70f92b3ba4d376a33c0f3d9434bff62560405160405180910390a1565b600460009054906101000a900473ffffffffffffffffffffffffffffffffffffffff1673ffffffffffffffffffffffffffffffffffffffff163373ffffffffffffffffffffffffffffffffffffffff16141515610e6957600080fd5b6000600560008373ffffffffffffffffffffffffffffffffffffffff1673ffffffffffffffffffffffffffffffffffffffff16815260200190815260200160002060006101000a81548160ff02191690831515021790555050565b60115481565b6000600460009054906101000a900473ffffffffffffffffffffffffffffffffffffffff1673ffffffffffffffffffffffffffffffffffffffff163373ffffffffffffffffffffffffffffffffffffffff16141515610f2857600080fd5b600090505b82829050811015610fc7576001600560008585858181101515610f4c57fe5b9050602002013573ffffffffffffffffffffffffffffffffffffffff1673ffffffffffffffffffffffffffffffffffffffff1673ffffffffffffffffffffffffffffffffffffffff16815260200190815260200160002060006101000a81548160ff0219169083151502179055508080600101915050610f2d565b505050565b600460009054906101000a900473ffffffffffffffffffffffffffffffffffffffff1681565b600b5481565b60006001600581111561100757fe5b600a60009054906101000a900460ff16600581111561102257fe5b1480156110315750600d544210155b1561105b576002600a60006101000a81548160ff0219169083600581111561105557fe5b02179055505b6002600581111561106857fe5b600a60009054906101000a900460ff16600581111561108357fe5b1480156110915750600e5442115b1561109f5761109e6113d2565b5b600360058111156110ac57fe5b600a60009054906101000a900460ff1660058111156110c757fe5b1480156110da5750620d2f00600e540142115b15611104576004600a60006101000a81548160ff021916908360058111156110fe57fe5b02179055505b6004600581111561111157fe5b600a60009054906101000a900460ff16600581111561112c57fe5b14801561113a575060145442115b1561114857611147610c12565b5b600d54421015801561115c5750600e544211155b806111775750601354421015801561117657506014544211155b5b80156111d857506002600581111561118b57fe5b600a60009054906101000a900460ff1660058111156111a657fe5b14806111d75750600460058111156111ba57fe5b600a60009054906101000a900460ff1660058111156111d557fe5b145b5b905090565b6000806000600460009054906101000a900473ffffffffffffffffffffffffffffffffffffffff1673ffffffffffffffffffffffffffffffffffffffff163373ffffffffffffffffffffffffffffffffffffffff1614151561123e57600080fd5b600580600581111561124c57fe5b600a60009054906101000a900460ff16600581111561126757fe5b14151561127357600080fd5b61128a601754601154611fab90919063ffffffff16565b9350600092505b60078054905083101561138e5761133c606461132e86600860006007898154811015156112ba57fe5b9060005260206000200160009054906101000a900473ffffffffffffffffffffffffffffffffffffffff1673ffffffffffffffffffffffffffffffffffffffff1673ffffffffffffffffffffffffffffffffffffffff168152602001908152602001600020546122a590919063ffffffff16565b6122dd90919063ffffffff16565b915061138160078481548110151561135057fe5b9060005260206000200160009054906101000a900473ffffffffffffffffffffffffffffffffffffffff16836122f3565b8280600101935050611291565b50505050565b60056020528060005260406000206000915054906101000a900460ff1681565b600c5481565b60086020528060005260406000206000915090505481565b60028060058111156113e057fe5b600a60009054906101000a900460ff1660058111156113fb57fe5b14151561140757600080fd5b42600e81905550620d2f00600e540160138190555062278d006013540160148190555061145561144460115460105461240190919063ffffffff16565b601654611fab90919063ffffffff16565b60168190555061149a61148961147860195460035461240190919063ffffffff16565b600f5461240190919063ffffffff16565b601554611fab90919063ffffffff16565b6015819055506003600a60006101000a81548160ff021916908360058111156114bf57fe5b021790555050565b600f5481565b600d5481565b600460009054906101000a900473ffffffffffffffffffffffffffffffffffffffff1673ffffffffffffffffffffffffffffffffffffffff163373ffffffffffffffffffffffffffffffffffffffff1614151561152f57600080fd5b600080600581111561153d57fe5b600a60009054906101000a900460ff16600581111561155857fe5b14151561156457600080fd5b61156d8261241a565b61157683612630565b6001600a60006101000a81548160ff0219169083600581111561159557fe5b0217905550505050565b600160058111156115ac57fe5b600a60009054906101000a900460ff1660058111156115c757fe5b1480156115d65750600d544210155b15611600576002600a60006101000a81548160ff021916908360058111156115fa57fe5b02179055505b6002600581111561160d57fe5b600a60009054906101000a900460ff16600581111561162857fe5b1480156116365750600e5442115b15611644576116436113d2565b5b6003600581111561165157fe5b600a60009054906101000a900460ff16600581111561166c57fe5b14801561167f5750620d2f00600e540142115b156116a9576004600a60006101000a81548160ff021916908360058111156116a357fe5b02179055505b600460058111156116b657fe5b600a60009054906101000a900460ff1660058111156116d157fe5b1480156116df575060145442115b156116ed576116ec610c12565b5b600260058111156116fa57fe5b600a60009054906101000a900460ff16600581111561171557fe5b141561174557600b54611735600354600f5461240190919063ffffffff16565b1015611744576117436113d2565b5b5b6004600581111561175257fe5b600a60009054906101000a900460ff16600581111561176d57fe5b14156117cd57600b546117a1600354611793600f54601554611fab90919063ffffffff16565b61240190919063ffffffff16565b10156117cc576005600a60006101000a81548160ff021916908360058111156117c657fe5b02179055505b5b565b60006012549050600460058111156117e357fe5b600a60009054906101000a900460ff1660058111156117fe57fe5b141561180a5760185490505b90565b60078181548110151561181c57fe5b906000526020600020016000915054906101000a900473ffffffffffffffffffffffffffffffffffffffff1681565b600e5481565b60155481565b6000600f5490506004600581111561186b57fe5b600a60009054906101000a900460ff16600581111561188657fe5b14156118925760155490505b90565b600460009054906101000a900473ffffffffffffffffffffffffffffffffffffffff1673ffffffffffffffffffffffffffffffffffffffff163373ffffffffffffffffffffffffffffffffffffffff161415156118f157600080fd5b6001600560008373ffffffffffffffffffffffffffffffffffffffff1673ffffffffffffffffffffffffffffffffffffffff16815260200190815260200160002060006101000a81548160ff02191690831515021790555050565b60145481565b600460009054906101000a900473ffffffffffffffffffffffffffffffffffffffff1673ffffffffffffffffffffffffffffffffffffffff163373ffffffffffffffffffffffffffffffffffffffff161415156119ae57600080fd5b600073ffffffffffffffffffffffffffffffffffffffff168173ffffffffffffffffffffffffffffffffffffffff16141515156119ea57600080fd5b8073ffffffffffffffffffffffffffffffffffffffff16600460009054906101000a900473ffffffffffffffffffffffffffffffffffffffff1673ffffffffffffffffffffffffffffffffffffffff167f8be0079c531659141344cd1fd0a4f28419497f9722a3daafe3b4186f6b6457e060405160405180910390a380600460006101000a81548173ffffffffffffffffffffffffffffffffffffffff021916908373ffffffffffffffffffffffffffffffffffffffff16021790555050565b6000809054906101000a900473ffffffffffffffffffffffffffffffffffffffff1681565b600080600060016005811115611ae157fe5b600a60009054906101000a900460ff166005811115611afc57fe5b148015611b0b5750600d544210155b15611b35576002600a60006101000a81548160ff02191690836005811115611b2f57fe5b02179055505b60026005811115611b4257fe5b600a60009054906101000a900460ff166005811115611b5d57fe5b148015611b6b5750600e5442115b15611b7957611b786113d2565b5b60036005811115611b8657fe5b600a60009054906101000a900460ff166005811115611ba157fe5b148015611bb45750620d2f00600e540142115b15611bde576004600a60006101000a81548160ff02191690836005811115611bd857fe5b02179055505b60046005811115611beb57fe5b600a60009054906101000a900460ff166005811115611c0657fe5b148015611c14575060145442115b15611c2257611c21610c12565b5b84600560008273ffffffffffffffffffffffffffffffffffffffff1673ffffffffffffffffffffffffffffffffffffffff16815260200190815260200160002060009054906101000a900460ff161515611c7b57600080fd5b611c83610ff8565b1515611cf7576040517f08c379a000000000000000000000000000000000000000000000000000000000815260040180806020018281038252600e8152602001807f53616c6520697320436c6f73656400000000000000000000000000000000000081525060200191505060405180910390fd5b849350600c54611d4f85600960003373ffffffffffffffffffffffffffffffffffffffff1673ffffffffffffffffffffffffffffffffffffffff16815260200190815260200160002054611fab90919063ffffffff16565b1115611dd957611dbb600c54611dad86600960003373ffffffffffffffffffffffffffffffffffffffff1673ffffffffffffffffffffffffffffffffffffffff16815260200190815260200160002054611fab90919063ffffffff16565b61240190919063ffffffff16565b601981905550611dd66019548561240190919063ffffffff16565b93505b611de1611857565b9250611deb6117cf565b915082611e018584611fab90919063ffffffff16565b1115611e7957611e40611e2f84611e218786611fab90919063ffffffff16565b61240190919063ffffffff16565b601954611fab90919063ffffffff16565b601981905550611e5b6019548661240190919063ffffffff16565b93506001601a60006101000a81548160ff0219169083151502179055505b600b548410151515611ef3576040517f08c379a000000000000000000000000000000000000000000000000000000000815260040180806020018281038252601a8152602001807f436f6e747269627574696f6e2062656c6f77206d696e696d756d00000000000081525060200191505060405180910390fd5b505050505050565b6000611f3a600254611f2c6103e8611f1e6019548761240190919063ffffffff16565b6122a590919063ffffffff16565b6122dd90919063ffffffff16565b905060026005811115611f4957fe5b600a60009054906101000a900460ff166005811115611f6457fe5b1415611fa657611fa3611f946064611f866019856122a590919063ffffffff16565b6122dd90919063ffffffff16565b82611fab90919063ffffffff16565b90505b919050565b60008183019050828110151515611fbe57fe5b80905092915050565b611fd182826122f3565b5050565b61203b611fed6019548361240190919063ffffffff16565b600960008573ffffffffffffffffffffffffffffffffffffffff1673ffffffffffffffffffffffffffffffffffffffff16815260200190815260200160002054611fab90919063ffffffff16565b600960008473ffffffffffffffffffffffffffffffffffffffff1673ffffffffffffffffffffffffffffffffffffffff168152602001908152602001600020819055505050565b600160009054906101000a900473ffffffffffffffffffffffffffffffffffffffff1673ffffffffffffffffffffffffffffffffffffffff166108fc6120d36019543461240190919063ffffffff16565b9081150290604051600060405180830381858888f193505050501580156120fe573d6000803e3d6000fd5b50565b60008061210d83611efb565b91506002600581111561211c57fe5b600a60009054906101000a900460ff16600581111561213757fe5b14156121aa5761215282601154611fab90919063ffffffff16565b6011819055506121816121706019548561240190919063ffffffff16565b601254611fab90919063ffffffff16565b601281905550601a60009054906101000a900460ff16156121a5576121a46113d2565b5b612213565b6121bf82601754611fab90919063ffffffff16565b6017819055506121ee6121dd6019548561240190919063ffffffff16565b601854611fab90919063ffffffff16565b601881905550601a60009054906101000a900460ff161561221257612211610c12565b5b5b61222a60195460035461240190919063ffffffff16565b600381905550601954905060006019819055506000601a60006101000a81548160ff0219169083151502179055508373ffffffffffffffffffffffffffffffffffffffff166108fc829081150290604051600060405180830381858888f1935050505015801561229e573d6000803e3d6000fd5b5050505050565b6000808314156122b857600090506122d7565b81830290508183828115156122c957fe5b041415156122d357fe5b8090505b92915050565b600081838115156122ea57fe5b04905092915050565b6000809054906101000a900473ffffffffffffffffffffffffffffffffffffffff1673ffffffffffffffffffffffffffffffffffffffff166340c10f1983836040518363ffffffff167c0100000000000000000000000000000000000000000000000000000000028152600401808373ffffffffffffffffffffffffffffffffffffffff1673ffffffffffffffffffffffffffffffffffffffff16815260200182815260200192505050602060405180830381600087803b1580156123b757600080fd5b505af11580156123cb573d6000803e3d6000fd5b505050506040513d60208110156123e157600080fd5b810190808051906020019092919050505015156123fd57600080fd5b5050565b600082821115151561240f57fe5b818303905092915050565b600460009054906101000a900473ffffffffffffffffffffffffffffffffffffffff1673ffffffffffffffffffffffffffffffffffffffff163373ffffffffffffffffffffffffffffffffffffffff1614151561247657600080fd5b600080600581111561248457fe5b600a60009054906101000a900460ff16600581111561249f57fe5b1415156124ab57600080fd5b816000806101000a81548173ffffffffffffffffffffffffffffffffffffffff021916908373ffffffffffffffffffffffffffffffffffffffff1602179055503073ffffffffffffffffffffffffffffffffffffffff168273ffffffffffffffffffffffffffffffffffffffff16638da5cb5b6040518163ffffffff167c0100000000000000000000000000000000000000000000000000000000028152600401602060405180830381600087803b15801561256657600080fd5b505af115801561257a573d6000803e3d6000fd5b505050506040513d602081101561259057600080fd5b810190808051906020019092919050505073ffffffffffffffffffffffffffffffffffffffff1614151561262c576040517f08c379a00000000000000000000000000000000000000000000000000000000081526004018080602001828103825260168152602001807f4973737565207769746820746f6b656e2073657475700000000000000000000081525060200191505060405180910390fd5b5050565b600460009054906101000a900473ffffffffffffffffffffffffffffffffffffffff1673ffffffffffffffffffffffffffffffffffffffff163373ffffffffffffffffffffffffffffffffffffffff1614151561268c57600080fd5b600080600581111561269a57fe5b600a60009054906101000a900460ff1660058111156126b557fe5b1415156126c157600080fd5b81600d819055506276a700600d5401600e8190555050505600a165627a7a72305820b717c6f95d3296df144ce8e01b0a931aea820a20dbe5b8c40903d16df2a211b50029",
  "source": "pragma solidity 0.4.24;\n\nimport 'openzeppelin-solidity/contracts/crowdsale/emission/MintedCrowdsale.sol';\nimport 'openzeppelin-solidity/contracts/crowdsale/validation/WhitelistedCrowdsale.sol';\nimport './SolidifiedToken.sol';\nimport './Distributable.sol';\nimport 'openzeppelin-solidity/contracts/lifecycle/Pausable.sol';\n\ncontract TokenSale is MintedCrowdsale, WhitelistedCrowdsale, Pausable, Distributable {\n\n  enum Stages{\n    SETUP,\n    READY,\n    PRESALE,\n    BREAK,\n    PUBLICSALE,\n    FINALAIZED\n  }\n\n  //Global Variables\n  mapping(address => uint) public contributions;\n  Stages public currentStage;\n  uint256 public minimumContribution;\n  uint256 public maximumContribution;\n\n  //PRESALE VARIABLES\n  uint256 public presale_StartDate;\n  uint256 public presale_EndDate;\n  uint256 public presale_Cap;\n  uint256 public presale_TokenCap;\n  uint256 public presale_TokesSold;\n  uint256 public presale_WeiRaised;\n\n  //PUBLICSALE VARIABLES\n  uint256 public publicSale_StartDate;\n  uint256 public publicSale_EndDate;\n  uint256 public publicSale_Cap;\n  uint256 public publicSale_TokenCap;\n  uint256 public publicSale_TokesSold;\n  uint256 public publicSale_WeiRaised;\n\n\n  //TEMP VARIABLE - USED TO NOT OVERRIDE MORE OZ FUNCTIONS\n  uint256 changeDue;\n  bool capReached;\n\n\n  constructor(uint256 _rate, address _wallet, ERC20 _token, uint256 presaleCap, uint256 publicCap) public Crowdsale(_rate,_wallet,_token) {\n    presale_TokenCap = 1600000 ether;\n    publicSale_TokenCap = 800000 ether;\n    presale_Cap = presaleCap;\n    publicSale_Cap = publicCap;\n    minimumContribution = 0.5 ether;\n    maximumContribution = 100 ether;\n  }\n\n  modifier atStage(Stages _currentStage){\n    require(currentStage == _currentStage);\n    _;\n  }\n\n  modifier timedTransition(){\n    if(currentStage == Stages.READY && now >= presale_StartDate){\n      currentStage = Stages.PRESALE;\n    }\n    if(currentStage == Stages.PRESALE && now > presale_EndDate){\n      finalizePresale();\n    }\n    if(currentStage == Stages.BREAK && now > presale_EndDate + 10 days){\n      currentStage = Stages.PUBLICSALE;\n    }\n    if(currentStage == Stages.PUBLICSALE && now > publicSale_EndDate){\n      finalizeSale();\n    }\n    _;\n  }\n\n  function updateStage() timedTransition {\n    //Satge Conversions not covered by times Transitions\n    if(currentStage == Stages.PRESALE){\n      if(presale_Cap.sub(weiRaised) < minimumContribution)\n        finalizePresale();\n    }\n    if(currentStage == Stages.PUBLICSALE){\n      if((publicSale_Cap.add(presale_Cap)).sub(weiRaised) < minimumContribution)\n        currentStage = Stages.FINALAIZED;\n    }\n  }\n\n  function setupSale(uint256 initialDate, address tokenAddress) onlyOwner atStage(Stages.SETUP) public {\n    setUpToken(tokenAddress);\n    setDates(initialDate);\n    currentStage = Stages.READY;\n  }\n\n  /**\n   * @dev Sets tha dates and durations of the different sale stages\n   * @param _presaleSartDate A timestamp representing the start of the presale\n   */\n  function setDates(uint256 _presaleSartDate) onlyOwner atStage(Stages.SETUP) internal {\n    presale_StartDate = _presaleSartDate;\n    presale_EndDate = presale_StartDate + 90 days;\n  }\n\n  function setUpToken(address _token) onlyOwner atStage(Stages.SETUP) internal {\n    token = ERC20(_token);\n    require(SolidifiedToken(_token).owner() == address(this), \"Issue with token setup\");\n  }\n\n  /**\n   * @dev Returns de ETH cap of the current currentStage\n   * @return uint256 representing the cap\n   */\n  function getCurrentCap() public returns(uint256 cap){\n    cap = presale_Cap;\n    if(currentStage == Stages.PUBLICSALE){\n      cap = publicSale_Cap;\n    }\n  }\n\n  /**\n   * @dev Returns de ETH cap of the current currentStage\n   * @return uint256 representing the cap\n   */\n  function getRaisedForCurrentStage() public returns(uint256 raised){\n    raised = presale_WeiRaised;\n    if(currentStage == Stages.PUBLICSALE)\n      raised = publicSale_WeiRaised;\n  }\n\n  function saleOpen() public timedTransition returns(bool open) {\n    open = ((now >= presale_StartDate && now <= presale_EndDate) ||\n           (now >= publicSale_StartDate && now <= publicSale_EndDate)) &&\n           (currentStage == Stages.PRESALE || currentStage == Stages.PUBLICSALE);\n  }\n\n  function distributeTokens() public onlyOwner atStage(Stages.FINALAIZED) {\n    uint256 totalSold = presale_TokesSold.add(publicSale_TokesSold);\n    for(uint i = 0; i < partners.length; i++){\n      uint256 amount = percentages[partners[i]].mul(totalSold).div(100);\n      _deliverTokens(partners[i], amount);\n    }\n  }\n\n  function finalizePresale() atStage(Stages.PRESALE) public{\n    presale_EndDate = now;\n    publicSale_StartDate = presale_EndDate + 10 days;\n    publicSale_EndDate = publicSale_StartDate + 30 days;\n    publicSale_TokenCap = publicSale_TokenCap.add(presale_TokenCap.sub(presale_TokesSold));\n    publicSale_Cap = publicSale_Cap.add(presale_Cap.sub(weiRaised.sub(changeDue)));\n    currentStage = Stages.BREAK;\n  }\n\n  function finalizeSale() public {\n    publicSale_EndDate = now;\n    // Mint tokens to founders and partnes -> distributeTokens();\n    // Enable token transfer\n    require(SolidifiedToken(token).setTransferEnablingDate(now + 182 days));\n    // Finish token minting\n    // Set token timelock\n    currentStage = Stages.FINALAIZED;\n  }\n\n\n  //OVERRIDES\n\n  /**\n   * @dev Validation of an incoming purchase. Use require statements to revert state when conditions are not met. Use super to concatenate validations.\n   * @param _beneficiary Address performing the token purchase\n   * @param _weiAmount Value in wei involved in the purchase\n   */\n  function _preValidatePurchase(address _beneficiary, uint256 _weiAmount) timedTransition isWhitelisted(_beneficiary) internal {\n    require(saleOpen(), \"Sale is Closed\");\n\n    // Check for edge cases\n    uint256 acceptedValue = _weiAmount;\n    if(contributions[msg.sender].add(acceptedValue) > maximumContribution){\n      changeDue = contributions[msg.sender].add(acceptedValue).sub(maximumContribution);\n      acceptedValue = acceptedValue.sub(changeDue);\n    }\n    uint256 currentCap = getCurrentCap();\n    uint256 raised = getRaisedForCurrentStage();\n    if(raised.add(acceptedValue) > currentCap){\n      changeDue = changeDue.add(raised.add(acceptedValue).sub(currentCap));\n      acceptedValue = _weiAmount.sub(changeDue);\n      capReached = true;\n    }\n    require(acceptedValue >= minimumContribution, \"Contribution below minimum\");\n  }\n\n  /**\n   * @dev Override to extend the way in which ether is converted to tokens.\n   * @param _weiAmount Value in wei to be converted into tokens\n   * @return Number of tokens that can be purchased with the specified _weiAmount\n   */\n  function _getTokenAmount(uint256 _weiAmount) internal view returns (uint256 amount) {\n    amount = (_weiAmount.sub(changeDue)).mul(1000).div(rate); // Multiplication to account for the decimal cases in the rate\n    if(currentStage == Stages.PRESALE){\n      amount = amount.add(amount.mul(25).div(100)); //Add bonus\n    }\n  }\n\n  /**\n   * @dev Validation of an executed purchase. Observe state and use revert statements to undo rollback when valid conditions are not met.\n   * @param _beneficiary Address performing the token purchase\n   * @param _weiAmount Value in wei involved in the purchase\n   */\n  function _postValidatePurchase(address _beneficiary, uint256 _weiAmount) internal {\n    uint256 tokenAmount = _getTokenAmount(_weiAmount);\n\n    if(currentStage == Stages.PRESALE){\n      presale_TokesSold = presale_TokesSold.add(tokenAmount);\n      presale_WeiRaised = presale_WeiRaised.add(_weiAmount.sub(changeDue));\n      if(capReached)\n        finalizePresale();\n    } else{\n      publicSale_TokesSold = publicSale_TokesSold.add(tokenAmount);\n      publicSale_WeiRaised = publicSale_WeiRaised.add(_weiAmount.sub(changeDue));\n      if(capReached)\n        finalizeSale();\n    }\n\n    //Triggers for reaching cap\n    weiRaised = weiRaised.sub(changeDue);\n    uint256 change = changeDue;\n    changeDue = 0;\n    capReached = false;\n    _beneficiary.transfer(change);\n  }\n\n  /**\n   * @dev Override for extensions that require an internal state to check for validity (current user contributions, etc.)\n   * @param _beneficiary Address receiving the tokens\n   * @param _weiAmount Value in wei involved in the purchase\n   */\n  function _updatePurchasingState(address _beneficiary, uint256 _weiAmount) internal {\n    contributions[_beneficiary] = contributions[_beneficiary].add(_weiAmount.sub(changeDue));\n  }\n\n  /**\n   * @dev Determines how ETH is stored/forwarded on purchases.\n   */\n  function _forwardFunds() internal {\n    wallet.transfer(msg.value.sub(changeDue));\n  }\n\n\n}\n// Rate, wallet, token, presalecap, publicSaleCap\n// 15, \"0xca35b7d915458ef540ade6068dfe2f44e8fa733c\", \"0xbbf289d846208c16edc8474705c748aff07732db\", \"19200000000000000000\", \"120000000000000000\"\n",
  "sourcePath": "/home/jgcarv/Dev/Ethereum/Solidified/Crowdsale/Smart-Contracts/contracts/TokenSale.sol",
  "compiler": {
    "name": "solc",
    "version": "0.4.24+commit.e67f0147.Emscripten.clang"
  },
  "schemaVersion": "2.0.0",
  "updatedAt": "2018-06-05T16:53:11.011Z"
}