{
  "contractName": "TokenSale",
  "abi": [
    {
      "constant": true,
      "inputs": [],
      "name": "rate",
      "outputs": [
        {
          "name": "",
          "type": "uint256"
        }
      ],
      "payable": false,
      "stateMutability": "view",
      "type": "function"
    },
    {
      "constant": false,
      "inputs": [],
      "name": "unpause",
      "outputs": [],
      "payable": false,
      "stateMutability": "nonpayable",
      "type": "function"
    },
    {
      "constant": true,
      "inputs": [],
      "name": "weiRaised",
      "outputs": [
        {
          "name": "",
          "type": "uint256"
        }
      ],
      "payable": false,
      "stateMutability": "view",
      "type": "function"
    },
    {
      "constant": true,
      "inputs": [],
      "name": "wallet",
      "outputs": [
        {
          "name": "",
          "type": "address"
        }
      ],
      "payable": false,
      "stateMutability": "view",
      "type": "function"
    },
    {
      "constant": true,
      "inputs": [],
      "name": "currentStage",
      "outputs": [
        {
          "name": "",
          "type": "uint8"
        }
      ],
      "payable": false,
      "stateMutability": "view",
      "type": "function"
    },
    {
      "constant": true,
      "inputs": [],
      "name": "paused",
      "outputs": [
        {
          "name": "",
          "type": "bool"
        }
      ],
      "payable": false,
      "stateMutability": "view",
      "type": "function"
    },
    {
      "constant": false,
      "inputs": [],
      "name": "pause",
      "outputs": [],
      "payable": false,
      "stateMutability": "nonpayable",
      "type": "function"
    },
    {
      "constant": true,
      "inputs": [],
      "name": "owner",
      "outputs": [
        {
          "name": "",
          "type": "address"
        }
      ],
      "payable": false,
      "stateMutability": "view",
      "type": "function"
    },
    {
      "constant": true,
      "inputs": [],
      "name": "minimumContribution",
      "outputs": [
        {
          "name": "",
          "type": "uint256"
        }
      ],
      "payable": false,
      "stateMutability": "view",
      "type": "function"
    },
    {
      "constant": true,
      "inputs": [],
      "name": "maximumContribution",
      "outputs": [
        {
          "name": "",
          "type": "uint256"
        }
      ],
      "payable": false,
      "stateMutability": "view",
      "type": "function"
    },
    {
      "constant": false,
      "inputs": [
        {
          "name": "_beneficiary",
          "type": "address"
        }
      ],
      "name": "buyTokens",
      "outputs": [],
      "payable": true,
      "stateMutability": "payable",
      "type": "function"
    },
    {
      "constant": false,
      "inputs": [
        {
          "name": "newOwner",
          "type": "address"
        }
      ],
      "name": "transferOwnership",
      "outputs": [],
      "payable": false,
      "stateMutability": "nonpayable",
      "type": "function"
    },
    {
      "constant": true,
      "inputs": [],
      "name": "token",
      "outputs": [
        {
          "name": "",
          "type": "address"
        }
      ],
      "payable": false,
      "stateMutability": "view",
      "type": "function"
    },
    {
      "inputs": [
        {
          "name": "_rate",
          "type": "uint256"
        },
        {
          "name": "_wallet",
          "type": "address"
        },
        {
          "name": "_token",
          "type": "address"
        },
        {
          "name": "PresaleCap",
          "type": "uint256"
        },
        {
          "name": "PublicSaleCap",
          "type": "uint256"
        }
      ],
      "payable": false,
      "stateMutability": "nonpayable",
      "type": "constructor"
    },
    {
      "payable": true,
      "stateMutability": "payable",
      "type": "fallback"
    },
    {
      "anonymous": false,
      "inputs": [],
      "name": "Pause",
      "type": "event"
    },
    {
      "anonymous": false,
      "inputs": [],
      "name": "Unpause",
      "type": "event"
    },
    {
      "anonymous": false,
      "inputs": [
        {
          "indexed": true,
          "name": "previousOwner",
          "type": "address"
        },
        {
          "indexed": true,
          "name": "newOwner",
          "type": "address"
        }
      ],
      "name": "OwnershipTransferred",
      "type": "event"
    },
    {
      "anonymous": false,
      "inputs": [
        {
          "indexed": true,
          "name": "purchaser",
          "type": "address"
        },
        {
          "indexed": true,
          "name": "beneficiary",
          "type": "address"
        },
        {
          "indexed": false,
          "name": "value",
          "type": "uint256"
        },
        {
          "indexed": false,
          "name": "amount",
          "type": "uint256"
        }
      ],
      "name": "TokenPurchase",
      "type": "event"
    },
    {
      "constant": false,
      "inputs": [],
      "name": "updateStage",
      "outputs": [],
      "payable": false,
      "stateMutability": "nonpayable",
      "type": "function"
    },
    {
      "constant": false,
      "inputs": [
        {
          "name": "initialDate",
          "type": "uint256"
        }
      ],
      "name": "setupSale",
      "outputs": [],
      "payable": false,
      "stateMutability": "nonpayable",
      "type": "function"
    },
    {
      "constant": false,
      "inputs": [
        {
          "name": "_presaleSartDate",
          "type": "uint256"
        }
      ],
      "name": "setDates",
      "outputs": [],
      "payable": false,
      "stateMutability": "nonpayable",
      "type": "function"
    },
    {
      "constant": false,
      "inputs": [],
      "name": "getCurrentCap",
      "outputs": [
        {
          "name": "cap",
          "type": "uint256"
        }
      ],
      "payable": false,
      "stateMutability": "nonpayable",
      "type": "function"
    },
    {
      "constant": false,
      "inputs": [],
      "name": "saleOpen",
      "outputs": [
        {
          "name": "open",
          "type": "bool"
        }
      ],
      "payable": false,
      "stateMutability": "nonpayable",
      "type": "function"
    },
    {
      "constant": false,
      "inputs": [
        {
          "name": "beneficiaries",
          "type": "address[]"
        },
        {
          "name": "amounts",
          "type": "uint256[]"
        }
      ],
      "name": "distributeTokens",
      "outputs": [],
      "payable": false,
      "stateMutability": "nonpayable",
      "type": "function"
    },
    {
      "constant": false,
      "inputs": [],
      "name": "finalizeSale",
      "outputs": [],
      "payable": false,
      "stateMutability": "nonpayable",
      "type": "function"
    }
  ],
  "bytecode": "0x60806040526000600460146101000a81548160ff02191690831515021790555034801561002b57600080fd5b5060405160a080620032f1833981018060405281019080805190602001909291908051906020019092919080519060200190929190805190602001909291908051906020019092919050505084848460008311151561008957600080fd5b600073ffffffffffffffffffffffffffffffffffffffff168273ffffffffffffffffffffffffffffffffffffffff16141515156100c557600080fd5b600073ffffffffffffffffffffffffffffffffffffffff168173ffffffffffffffffffffffffffffffffffffffff161415151561010157600080fd5b8260028190555081600160006101000a81548173ffffffffffffffffffffffffffffffffffffffff021916908373ffffffffffffffffffffffffffffffffffffffff160217905550806000806101000a81548173ffffffffffffffffffffffffffffffffffffffff021916908373ffffffffffffffffffffffffffffffffffffffff16021790555050505033600460006101000a81548173ffffffffffffffffffffffffffffffffffffffff021916908373ffffffffffffffffffffffffffffffffffffffff1602179055506101d561023b565b604051809103906000f0801580156101f1573d6000803e3d6000fd5b506000806101000a81548173ffffffffffffffffffffffffffffffffffffffff021916908373ffffffffffffffffffffffffffffffffffffffff160217905550505050505061024c565b60405161189f8062001a5283390190565b6117f6806200025c6000396000f300608060405260043610610112576000357c0100000000000000000000000000000000000000000000000000000000900463ffffffff168063081cf40c1461011d5780632c4e722e1461014a5780633f4ba83a146101755780634042b66f1461018c5780634bd09c2a146101b7578063521eb2731461026057806358a687ec146102b75780635bf5d54c146102ce5780635c975abb146103075780638456cb59146103365780638da5cb5b1461034d578063937e09b1146103a457806399288dbb146103cf5780639c2fcd45146103fe578063b61c2b1014610429578063c062f57814610456578063d8c307001461046d578063ec8ac4d814610498578063f2fde38b146104ce578063fc0c546a14610511575b61011b33610568565b005b34801561012957600080fd5b5061014860048036038101908080359060200190929190505050610636565b005b34801561015657600080fd5b5061015f6106fc565b6040518082815260200191505060405180910390f35b34801561018157600080fd5b5061018a610702565b005b34801561019857600080fd5b506101a16107c2565b6040518082815260200191505060405180910390f35b3480156101c357600080fd5b5061025e60048036038101908080359060200190820180359060200190808060200260200160405190810160405280939291908181526020018383602002808284378201915050505050509192919290803590602001908201803590602001908080602002602001604051908101604052809392919081815260200183836020028082843782019150505050505091929192905050506107c8565b005b34801561026c57600080fd5b506102756108b4565b604051808273ffffffffffffffffffffffffffffffffffffffff1673ffffffffffffffffffffffffffffffffffffffff16815260200191505060405180910390f35b3480156102c357600080fd5b506102cc6108da565b005b3480156102da57600080fd5b506102e36109a7565b604051808260048111156102f357fe5b60ff16815260200191505060405180910390f35b34801561031357600080fd5b5061031c6109ba565b604051808215151515815260200191505060405180910390f35b34801561034257600080fd5b5061034b6109cd565b005b34801561035957600080fd5b50610362610a8e565b604051808273ffffffffffffffffffffffffffffffffffffffff1673ffffffffffffffffffffffffffffffffffffffff16815260200191505060405180910390f35b3480156103b057600080fd5b506103b9610ab4565b6040518082815260200191505060405180910390f35b3480156103db57600080fd5b506103e4610aba565b604051808215151515815260200191505060405180910390f35b34801561040a57600080fd5b50610413610b51565b6040518082815260200191505060405180910390f35b34801561043557600080fd5b5061045460048036038101908080359060200190929190505050610b57565b005b34801561046257600080fd5b5061046b610c05565b005b34801561047957600080fd5b50610482610d8d565b6040518082815260200191505060405180910390f35b6104cc600480360381019080803573ffffffffffffffffffffffffffffffffffffffff169060200190929190505050610568565b005b3480156104da57600080fd5b5061050f600480360381019080803573ffffffffffffffffffffffffffffffffffffffff169060200190929190505050610dcb565b005b34801561051d57600080fd5b50610526610f23565b604051808273ffffffffffffffffffffffffffffffffffffffff1673ffffffffffffffffffffffffffffffffffffffff16815260200191505060405180910390f35b6000803491506105788383610f48565b61058182611349565b9050610598826003546113e590919063ffffffff16565b6003819055506105a88382611401565b8273ffffffffffffffffffffffffffffffffffffffff163373ffffffffffffffffffffffffffffffffffffffff167f623b3804fa71d67900d064613da8f94b9617215ee90799290593e1745087ad188484604051808381526020018281526020019250505060405180910390a361061f838361140f565b6106276114bc565b6106318383611527565b505050565b600460009054906101000a900473ffffffffffffffffffffffffffffffffffffffff1673ffffffffffffffffffffffffffffffffffffffff163373ffffffffffffffffffffffffffffffffffffffff1614151561069257600080fd5b60008060048111156106a057fe5b600660009054906101000a900460ff1660048111156106bb57fe5b1415156106c757600080fd5b816009819055506276a70060095401600a81905550620d2f00600a5401600d8190555062278d00600d5401600e819055505050565b60025481565b600460009054906101000a900473ffffffffffffffffffffffffffffffffffffffff1673ffffffffffffffffffffffffffffffffffffffff163373ffffffffffffffffffffffffffffffffffffffff1614151561075e57600080fd5b600460149054906101000a900460ff16151561077957600080fd5b6000600460146101000a81548160ff0219169083151502179055507f7805862f689e2f13df9f062ff482ad3ad112aca9e0847911ed832e158c525b3360405160405180910390a1565b60035481565b6000600460009054906101000a900473ffffffffffffffffffffffffffffffffffffffff1673ffffffffffffffffffffffffffffffffffffffff163373ffffffffffffffffffffffffffffffffffffffff1614151561082657600080fd5b600480600481111561083457fe5b600660009054906101000a900460ff16600481111561084f57fe5b14151561085b57600080fd5b600091505b83518210156108ae576108a1848381518110151561087a57fe5b90602001906020020151848481518110151561089257fe5b90602001906020020151611655565b8180600101925050610860565b50505050565b600160009054906101000a900473ffffffffffffffffffffffffffffffffffffffff1681565b6000809054906101000a900473ffffffffffffffffffffffffffffffffffffffff1673ffffffffffffffffffffffffffffffffffffffff16637d64bcb46040518163ffffffff167c0100000000000000000000000000000000000000000000000000000000028152600401602060405180830381600087803b15801561095f57600080fd5b505af1158015610973573d6000803e3d6000fd5b505050506040513d602081101561098957600080fd5b810190808051906020019092919050505015156109a557600080fd5b565b600660009054906101000a900460ff1681565b600460149054906101000a900460ff1681565b600460009054906101000a900473ffffffffffffffffffffffffffffffffffffffff1673ffffffffffffffffffffffffffffffffffffffff163373ffffffffffffffffffffffffffffffffffffffff16141515610a2957600080fd5b600460149054906101000a900460ff16151515610a4557600080fd5b6001600460146101000a81548160ff0219169083151502179055507f6985a02210a168e66602d3235cb6db0e70f92b3ba4d376a33c0f3d9434bff62560405160405180910390a1565b600460009054906101000a900473ffffffffffffffffffffffffffffffffffffffff1681565b60075481565b60006009544210158015610ad05750600a544211155b80610aeb5750600e544210158015610aea5750600e544211155b5b8015610b4c575060016004811115610aff57fe5b600660009054906101000a900460ff166004811115610b1a57fe5b1480610b4b575060036004811115610b2e57fe5b600660009054906101000a900460ff166004811115610b4957fe5b145b5b905090565b60085481565b600460009054906101000a900473ffffffffffffffffffffffffffffffffffffffff1673ffffffffffffffffffffffffffffffffffffffff163373ffffffffffffffffffffffffffffffffffffffff16141515610bb357600080fd5b6000806004811115610bc157fe5b600660009054906101000a900460ff166004811115610bdc57fe5b141515610be857600080fd5b6001600b819055506002600f81905550610c0182610636565b5050565b60006004811115610c1257fe5b600660009054906101000a900460ff166004811115610c2d57fe5b148015610c3c57506009544210155b15610c66576001600660006101000a81548160ff02191690836004811115610c6057fe5b02179055505b60016004811115610c7357fe5b600660009054906101000a900460ff166004811115610c8e57fe5b148015610c9c5750600a5442115b15610cc6576002600660006101000a81548160ff02191690836004811115610cc057fe5b02179055505b60026004811115610cd357fe5b600660009054906101000a900460ff166004811115610cee57fe5b148015610d015750620d2f00600a540142115b15610d2b576003600660006101000a81548160ff02191690836004811115610d2557fe5b02179055505b60036004811115610d3857fe5b600660009054906101000a900460ff166004811115610d5357fe5b148015610d615750600e5442115b15610d8b576004600660006101000a81548160ff02191690836004811115610d8557fe5b02179055505b565b6000600b54905060036004811115610da157fe5b600660009054906101000a900460ff166004811115610dbc57fe5b1415610dc857600f5490505b90565b600460009054906101000a900473ffffffffffffffffffffffffffffffffffffffff1673ffffffffffffffffffffffffffffffffffffffff163373ffffffffffffffffffffffffffffffffffffffff16141515610e2757600080fd5b600073ffffffffffffffffffffffffffffffffffffffff168173ffffffffffffffffffffffffffffffffffffffff1614151515610e6357600080fd5b8073ffffffffffffffffffffffffffffffffffffffff16600460009054906101000a900473ffffffffffffffffffffffffffffffffffffffff1673ffffffffffffffffffffffffffffffffffffffff167f8be0079c531659141344cd1fd0a4f28419497f9722a3daafe3b4186f6b6457e060405160405180910390a380600460006101000a81548173ffffffffffffffffffffffffffffffffffffffff021916908373ffffffffffffffffffffffffffffffffffffffff16021790555050565b6000809054906101000a900473ffffffffffffffffffffffffffffffffffffffff1681565b60008060006004811115610f5857fe5b600660009054906101000a900460ff166004811115610f7357fe5b148015610f8257506009544210155b15610fac576001600660006101000a81548160ff02191690836004811115610fa657fe5b02179055505b60016004811115610fb957fe5b600660009054906101000a900460ff166004811115610fd457fe5b148015610fe25750600a5442115b1561100c576002600660006101000a81548160ff0219169083600481111561100657fe5b02179055505b6002600481111561101957fe5b600660009054906101000a900460ff16600481111561103457fe5b1480156110475750620d2f00600a540142115b15611071576003600660006101000a81548160ff0219169083600481111561106b57fe5b02179055505b6003600481111561107e57fe5b600660009054906101000a900460ff16600481111561109957fe5b1480156110a75750600e5442115b156110d1576004600660006101000a81548160ff021916908360048111156110cb57fe5b02179055505b6110d9610aba565b151561114d576040517f08c379a000000000000000000000000000000000000000000000000000000000815260040180806020018281038252600e8152602001807f53616c6520697320436c6f73656400000000000000000000000000000000000081525060200191505060405180910390fd5b8291506008546111a583600560003373ffffffffffffffffffffffffffffffffffffffff1673ffffffffffffffffffffffffffffffffffffffff168152602001908152602001600020546113e590919063ffffffff16565b111561122f5761121160085461120384600560003373ffffffffffffffffffffffffffffffffffffffff1673ffffffffffffffffffffffffffffffffffffffff168152602001908152602001600020546113e590919063ffffffff16565b61176390919063ffffffff16565b60118190555061122c6011548361176390919063ffffffff16565b91505b611237610d8d565b90508061124f836003546113e590919063ffffffff16565b11156112c95761129061127f82611271856003546113e590919063ffffffff16565b61176390919063ffffffff16565b6011546113e590919063ffffffff16565b6011819055506112ab6011548461176390919063ffffffff16565b91506001601260006101000a81548160ff0219169083151502179055505b6007548210151515611343576040517f08c379a000000000000000000000000000000000000000000000000000000000815260040180806020018281038252601a8152602001807f436f6e747269627574696f6e2062656c6f77206d696e696d756d00000000000081525060200191505060405180910390fd5b50505050565b60006113746002546113666011548561176390919063ffffffff16565b61177c90919063ffffffff16565b90506001600481111561138357fe5b600660009054906101000a900460ff16600481111561139e57fe5b14156113e0576113dd6113ce60646113c060148561177c90919063ffffffff16565b6117b490919063ffffffff16565b826113e590919063ffffffff16565b90505b919050565b600081830190508281101515156113f857fe5b80905092915050565b61140b8282611655565b5050565b6114756114276011548361176390919063ffffffff16565b600560008573ffffffffffffffffffffffffffffffffffffffff1673ffffffffffffffffffffffffffffffffffffffff168152602001908152602001600020546113e590919063ffffffff16565b600560008473ffffffffffffffffffffffffffffffffffffffff1673ffffffffffffffffffffffffffffffffffffffff168152602001908152602001600020819055505050565b600160009054906101000a900473ffffffffffffffffffffffffffffffffffffffff1673ffffffffffffffffffffffffffffffffffffffff166108fc349081150290604051600060405180830381858888f19350505050158015611524573d6000803e3d6000fd5b50565b6000601260009054906101000a900460ff16801561156a57506001600481111561154d57fe5b600660009054906101000a900460ff16600481111561156857fe5b145b15611574576115c4565b601260009054906101000a900460ff1680156115b557506003600481111561159857fe5b600660009054906101000a900460ff1660048111156115b357fe5b145b156115c3576115c26108da565b5b5b6115db60115460035461176390919063ffffffff16565b600381905550601154905060006011819055506000601260006101000a81548160ff0219169083151502179055508273ffffffffffffffffffffffffffffffffffffffff166108fc829081150290604051600060405180830381858888f1935050505015801561164f573d6000803e3d6000fd5b50505050565b6000809054906101000a900473ffffffffffffffffffffffffffffffffffffffff1673ffffffffffffffffffffffffffffffffffffffff166340c10f1983836040518363ffffffff167c0100000000000000000000000000000000000000000000000000000000028152600401808373ffffffffffffffffffffffffffffffffffffffff1673ffffffffffffffffffffffffffffffffffffffff16815260200182815260200192505050602060405180830381600087803b15801561171957600080fd5b505af115801561172d573d6000803e3d6000fd5b505050506040513d602081101561174357600080fd5b8101908080519060200190929190505050151561175f57600080fd5b5050565b600082821115151561177157fe5b818303905092915050565b60008083141561178f57600090506117ae565b81830290508183828115156117a057fe5b041415156117aa57fe5b8090505b92915050565b600081838115156117c157fe5b049050929150505600a165627a7a72305820da993a5ba261fe0e110cfa3ab5a43358929e44853b5e742c4a90f76096fdaade002960806040526000600360146101000a81548160ff02191690831515021790555034801561002b57600080fd5b5033600360006101000a81548173ffffffffffffffffffffffffffffffffffffffff021916908373ffffffffffffffffffffffffffffffffffffffff1602179055506118238061007c6000396000f3006080604052600436106100e6576000357c0100000000000000000000000000000000000000000000000000000000900463ffffffff16806305d2035b146100eb57806306fdde031461011a578063095ea7b3146101aa57806318160ddd1461020f57806323b872dd1461023a578063313ce567146102bf57806340c10f19146102f0578063661884631461035557806370a08231146103ba5780637d64bcb4146104115780638da5cb5b1461044057806395d89b4114610497578063a9059cbb14610527578063d73dd6231461058c578063dd62ed3e146105f1578063f2fde38b14610668575b600080fd5b3480156100f757600080fd5b506101006106ab565b604051808215151515815260200191505060405180910390f35b34801561012657600080fd5b5061012f6106be565b6040518080602001828103825283818151815260200191508051906020019080838360005b8381101561016f578082015181840152602081019050610154565b50505050905090810190601f16801561019c5780820380516001836020036101000a031916815260200191505b509250505060405180910390f35b3480156101b657600080fd5b506101f5600480360381019080803573ffffffffffffffffffffffffffffffffffffffff169060200190929190803590602001909291905050506106f7565b604051808215151515815260200191505060405180910390f35b34801561021b57600080fd5b506102246107e9565b6040518082815260200191505060405180910390f35b34801561024657600080fd5b506102a5600480360381019080803573ffffffffffffffffffffffffffffffffffffffff169060200190929190803573ffffffffffffffffffffffffffffffffffffffff169060200190929190803590602001909291905050506107f3565b604051808215151515815260200191505060405180910390f35b3480156102cb57600080fd5b506102d4610bad565b604051808260ff1660ff16815260200191505060405180910390f35b3480156102fc57600080fd5b5061033b600480360381019080803573ffffffffffffffffffffffffffffffffffffffff16906020019092919080359060200190929190505050610bb2565b604051808215151515815260200191505060405180910390f35b34801561036157600080fd5b506103a0600480360381019080803573ffffffffffffffffffffffffffffffffffffffff16906020019092919080359060200190929190505050610dc8565b604051808215151515815260200191505060405180910390f35b3480156103c657600080fd5b506103fb600480360381019080803573ffffffffffffffffffffffffffffffffffffffff169060200190929190505050611059565b6040518082815260200191505060405180910390f35b34801561041d57600080fd5b506104266110a1565b604051808215151515815260200191505060405180910390f35b34801561044c57600080fd5b50610455611169565b604051808273ffffffffffffffffffffffffffffffffffffffff1673ffffffffffffffffffffffffffffffffffffffff16815260200191505060405180910390f35b3480156104a357600080fd5b506104ac61118f565b6040518080602001828103825283818151815260200191508051906020019080838360005b838110156104ec5780820151818401526020810190506104d1565b50505050905090810190601f1680156105195780820380516001836020036101000a031916815260200191505b509250505060405180910390f35b34801561053357600080fd5b50610572600480360381019080803573ffffffffffffffffffffffffffffffffffffffff169060200190929190803590602001909291905050506111c8565b604051808215151515815260200191505060405180910390f35b34801561059857600080fd5b506105d7600480360381019080803573ffffffffffffffffffffffffffffffffffffffff169060200190929190803590602001909291905050506113e7565b604051808215151515815260200191505060405180910390f35b3480156105fd57600080fd5b50610652600480360381019080803573ffffffffffffffffffffffffffffffffffffffff169060200190929190803573ffffffffffffffffffffffffffffffffffffffff1690602001909291905050506115e3565b6040518082815260200191505060405180910390f35b34801561067457600080fd5b506106a9600480360381019080803573ffffffffffffffffffffffffffffffffffffffff16906020019092919050505061166a565b005b600360149054906101000a900460ff1681565b6040805190810160405280600f81526020017f536f6c69646966696564546f6b656e000000000000000000000000000000000081525081565b600081600260003373ffffffffffffffffffffffffffffffffffffffff1673ffffffffffffffffffffffffffffffffffffffff16815260200190815260200160002060008573ffffffffffffffffffffffffffffffffffffffff1673ffffffffffffffffffffffffffffffffffffffff168152602001908152602001600020819055508273ffffffffffffffffffffffffffffffffffffffff163373ffffffffffffffffffffffffffffffffffffffff167f8c5be1e5ebec7d5bd14f71427d1e84f3dd0314c0f7b2291e5b200ac8c7c3b925846040518082815260200191505060405180910390a36001905092915050565b6000600154905090565b60008073ffffffffffffffffffffffffffffffffffffffff168373ffffffffffffffffffffffffffffffffffffffff161415151561083057600080fd5b6000808573ffffffffffffffffffffffffffffffffffffffff1673ffffffffffffffffffffffffffffffffffffffff16815260200190815260200160002054821115151561087d57600080fd5b600260008573ffffffffffffffffffffffffffffffffffffffff1673ffffffffffffffffffffffffffffffffffffffff16815260200190815260200160002060003373ffffffffffffffffffffffffffffffffffffffff1673ffffffffffffffffffffffffffffffffffffffff16815260200190815260200160002054821115151561090857600080fd5b610959826000808773ffffffffffffffffffffffffffffffffffffffff1673ffffffffffffffffffffffffffffffffffffffff168152602001908152602001600020546117c290919063ffffffff16565b6000808673ffffffffffffffffffffffffffffffffffffffff1673ffffffffffffffffffffffffffffffffffffffff168152602001908152602001600020819055506109ec826000808673ffffffffffffffffffffffffffffffffffffffff1673ffffffffffffffffffffffffffffffffffffffff168152602001908152602001600020546117db90919063ffffffff16565b6000808573ffffffffffffffffffffffffffffffffffffffff1673ffffffffffffffffffffffffffffffffffffffff16815260200190815260200160002081905550610abd82600260008773ffffffffffffffffffffffffffffffffffffffff1673ffffffffffffffffffffffffffffffffffffffff16815260200190815260200160002060003373ffffffffffffffffffffffffffffffffffffffff1673ffffffffffffffffffffffffffffffffffffffff168152602001908152602001600020546117c290919063ffffffff16565b600260008673ffffffffffffffffffffffffffffffffffffffff1673ffffffffffffffffffffffffffffffffffffffff16815260200190815260200160002060003373ffffffffffffffffffffffffffffffffffffffff1673ffffffffffffffffffffffffffffffffffffffff168152602001908152602001600020819055508273ffffffffffffffffffffffffffffffffffffffff168473ffffffffffffffffffffffffffffffffffffffff167fddf252ad1be2c89b69c2b068fc378daa952ba7f163c4a11628f55a4df523b3ef846040518082815260200191505060405180910390a3600190509392505050565b601281565b6000600360009054906101000a900473ffffffffffffffffffffffffffffffffffffffff1673ffffffffffffffffffffffffffffffffffffffff163373ffffffffffffffffffffffffffffffffffffffff16141515610c1057600080fd5b600360149054906101000a900460ff16151515610c2c57600080fd5b670de0b6b3a7640000622625a002610c4f836001546117db90919063ffffffff16565b10151515610c5c57600080fd5b610c71826001546117db90919063ffffffff16565b600181905550610cc8826000808673ffffffffffffffffffffffffffffffffffffffff1673ffffffffffffffffffffffffffffffffffffffff168152602001908152602001600020546117db90919063ffffffff16565b6000808573ffffffffffffffffffffffffffffffffffffffff1673ffffffffffffffffffffffffffffffffffffffff168152602001908152602001600020819055508273ffffffffffffffffffffffffffffffffffffffff167f0f6798a560793a54c3bcfe86a93cde1e73087d944c0ea20544137d4121396885836040518082815260200191505060405180910390a28273ffffffffffffffffffffffffffffffffffffffff16600073ffffffffffffffffffffffffffffffffffffffff167fddf252ad1be2c89b69c2b068fc378daa952ba7f163c4a11628f55a4df523b3ef846040518082815260200191505060405180910390a36001905092915050565b600080600260003373ffffffffffffffffffffffffffffffffffffffff1673ffffffffffffffffffffffffffffffffffffffff16815260200190815260200160002060008573ffffffffffffffffffffffffffffffffffffffff1673ffffffffffffffffffffffffffffffffffffffff16815260200190815260200160002054905080831115610ed9576000600260003373ffffffffffffffffffffffffffffffffffffffff1673ffffffffffffffffffffffffffffffffffffffff16815260200190815260200160002060008673ffffffffffffffffffffffffffffffffffffffff1673ffffffffffffffffffffffffffffffffffffffff16815260200190815260200160002081905550610f6d565b610eec83826117c290919063ffffffff16565b600260003373ffffffffffffffffffffffffffffffffffffffff1673ffffffffffffffffffffffffffffffffffffffff16815260200190815260200160002060008673ffffffffffffffffffffffffffffffffffffffff1673ffffffffffffffffffffffffffffffffffffffff168152602001908152602001600020819055505b8373ffffffffffffffffffffffffffffffffffffffff163373ffffffffffffffffffffffffffffffffffffffff167f8c5be1e5ebec7d5bd14f71427d1e84f3dd0314c0f7b2291e5b200ac8c7c3b925600260003373ffffffffffffffffffffffffffffffffffffffff1673ffffffffffffffffffffffffffffffffffffffff16815260200190815260200160002060008873ffffffffffffffffffffffffffffffffffffffff1673ffffffffffffffffffffffffffffffffffffffff168152602001908152602001600020546040518082815260200191505060405180910390a3600191505092915050565b60008060008373ffffffffffffffffffffffffffffffffffffffff1673ffffffffffffffffffffffffffffffffffffffff168152602001908152602001600020549050919050565b6000600360009054906101000a900473ffffffffffffffffffffffffffffffffffffffff1673ffffffffffffffffffffffffffffffffffffffff163373ffffffffffffffffffffffffffffffffffffffff161415156110ff57600080fd5b600360149054906101000a900460ff1615151561111b57600080fd5b6001600360146101000a81548160ff0219169083151502179055507fae5184fba832cb2b1f702aca6117b8d265eaf03ad33eb133f19dde0f5920fa0860405160405180910390a16001905090565b600360009054906101000a900473ffffffffffffffffffffffffffffffffffffffff1681565b6040805190810160405280600381526020017f534f4c000000000000000000000000000000000000000000000000000000000081525081565b60008073ffffffffffffffffffffffffffffffffffffffff168373ffffffffffffffffffffffffffffffffffffffff161415151561120557600080fd5b6000803373ffffffffffffffffffffffffffffffffffffffff1673ffffffffffffffffffffffffffffffffffffffff16815260200190815260200160002054821115151561125257600080fd5b6112a3826000803373ffffffffffffffffffffffffffffffffffffffff1673ffffffffffffffffffffffffffffffffffffffff168152602001908152602001600020546117c290919063ffffffff16565b6000803373ffffffffffffffffffffffffffffffffffffffff1673ffffffffffffffffffffffffffffffffffffffff16815260200190815260200160002081905550611336826000808673ffffffffffffffffffffffffffffffffffffffff1673ffffffffffffffffffffffffffffffffffffffff168152602001908152602001600020546117db90919063ffffffff16565b6000808573ffffffffffffffffffffffffffffffffffffffff1673ffffffffffffffffffffffffffffffffffffffff168152602001908152602001600020819055508273ffffffffffffffffffffffffffffffffffffffff163373ffffffffffffffffffffffffffffffffffffffff167fddf252ad1be2c89b69c2b068fc378daa952ba7f163c4a11628f55a4df523b3ef846040518082815260200191505060405180910390a36001905092915050565b600061147882600260003373ffffffffffffffffffffffffffffffffffffffff1673ffffffffffffffffffffffffffffffffffffffff16815260200190815260200160002060008673ffffffffffffffffffffffffffffffffffffffff1673ffffffffffffffffffffffffffffffffffffffff168152602001908152602001600020546117db90919063ffffffff16565b600260003373ffffffffffffffffffffffffffffffffffffffff1673ffffffffffffffffffffffffffffffffffffffff16815260200190815260200160002060008573ffffffffffffffffffffffffffffffffffffffff1673ffffffffffffffffffffffffffffffffffffffff168152602001908152602001600020819055508273ffffffffffffffffffffffffffffffffffffffff163373ffffffffffffffffffffffffffffffffffffffff167f8c5be1e5ebec7d5bd14f71427d1e84f3dd0314c0f7b2291e5b200ac8c7c3b925600260003373ffffffffffffffffffffffffffffffffffffffff1673ffffffffffffffffffffffffffffffffffffffff16815260200190815260200160002060008773ffffffffffffffffffffffffffffffffffffffff1673ffffffffffffffffffffffffffffffffffffffff168152602001908152602001600020546040518082815260200191505060405180910390a36001905092915050565b6000600260008473ffffffffffffffffffffffffffffffffffffffff1673ffffffffffffffffffffffffffffffffffffffff16815260200190815260200160002060008373ffffffffffffffffffffffffffffffffffffffff1673ffffffffffffffffffffffffffffffffffffffff16815260200190815260200160002054905092915050565b600360009054906101000a900473ffffffffffffffffffffffffffffffffffffffff1673ffffffffffffffffffffffffffffffffffffffff163373ffffffffffffffffffffffffffffffffffffffff161415156116c657600080fd5b600073ffffffffffffffffffffffffffffffffffffffff168173ffffffffffffffffffffffffffffffffffffffff161415151561170257600080fd5b8073ffffffffffffffffffffffffffffffffffffffff16600360009054906101000a900473ffffffffffffffffffffffffffffffffffffffff1673ffffffffffffffffffffffffffffffffffffffff167f8be0079c531659141344cd1fd0a4f28419497f9722a3daafe3b4186f6b6457e060405160405180910390a380600360006101000a81548173ffffffffffffffffffffffffffffffffffffffff021916908373ffffffffffffffffffffffffffffffffffffffff16021790555050565b60008282111515156117d057fe5b818303905092915050565b600081830190508281101515156117ee57fe5b809050929150505600a165627a7a723058203f372b108ed8f3cf8926cb340c960879a681783824556759b61b995bb63cd2f30029",
  "source": "pragma solidity 0.4.24;\n\nimport 'openzeppelin-solidity/contracts/crowdsale/emission/MintedCrowdsale.sol';\nimport './SolidifiedToken.sol';\nimport 'openzeppelin-solidity/contracts/lifecycle/Pausable.sol';\n\ncontract TokenSale is MintedCrowdsale, Pausable {\n\n  enum Stages{\n    SETUP,\n    PRESALE,\n    BREAK,\n    PUBLICSALE,\n    FINALAIZED\n  }\n\n  //Global Variables\n  mapping(address => uint) contributions;\n  Stages public currentStage;\n  uint256 public minimumContribution;\n  uint256 public maximumContribution;\n\n  //PRESALE VARIABLES\n  uint256 presale_StartDate;\n  uint256 presale_EndDate;\n  uint256 presaleCap;\n  uint256 presale_TokesSold;\n\n  //PUBLICSALE VARIABLES\n  uint256 publicSale_StartDate;\n  uint256 publicSale_EndDate;\n  uint256 publicSaleCap;\n  uint256 publicSale_TokesSold;\n\n\n  //TEMP VARIABLE - USED TO NOT OVERRIDE MORE OZ FUNCTIONS\n  uint256 changeDue;\n  bool capReached;\n\n\n  constructor(uint256 _rate, address _wallet, ERC20 _token, uint256 PresaleCap, uint256 PublicSaleCap) Crowdsale(_rate,_wallet,_token) {\n    token = new SolidifiedToken();\n  }\n\n  modifier atStage(Stages _currentStage){\n    require(currentStage == _currentStage);\n    _;\n  }\n\n  modifier timedTransition(){\n    if(currentStage == Stages.SETUP && now >= presale_StartDate){\n      currentStage = Stages.PRESALE;\n    }\n    if(currentStage == Stages.PRESALE && now > presale_EndDate){\n      currentStage = Stages.BREAK;\n    }\n    if(currentStage == Stages.BREAK && now > presale_EndDate + 10 days){\n      currentStage = Stages.PUBLICSALE;\n    }\n    if(currentStage == Stages.PUBLICSALE && now > publicSale_EndDate){\n      currentStage = Stages.FINALAIZED;\n    }\n    _;\n  }\n\n  function updateStage() timedTransition {\n    //nothing to do here\n  }\n\n  function setupSale(uint256 initialDate) onlyOwner atStage(Stages.SETUP) public {\n    presaleCap = 1;\n    publicSaleCap = 2;\n    setDates(initialDate);\n  }\n\n  /**\n   * @dev Sets tha dates and durations of the different sale stages\n   * @param _presaleSartDate A timestamp representing the start of the presale\n   */\n  function setDates(uint256 _presaleSartDate) onlyOwner atStage(Stages.SETUP) public {\n    presale_StartDate = _presaleSartDate;\n    presale_EndDate = presale_StartDate + 90 days;\n    publicSale_StartDate = presale_EndDate + 10 days;\n    publicSale_EndDate = publicSale_StartDate + 30 days;\n  }\n\n  /**\n   * @dev Returns de ETH cap of the current currentStage\n   * @return uint256 representing the cap\n   */\n  function getCurrentCap() public returns(uint256 cap){\n    cap = presaleCap;\n    if(currentStage == Stages.PUBLICSALE){\n      cap = publicSaleCap;\n    }\n  }\n\n  function saleOpen() public returns(bool open){\n    /* if((now >= presale_StartDate && now <= presale_EndDate) ||\n       (now >= publicSale_EndDate && now <= publicSale_EndDate)) {\n         open = true;\n    } */\n    open = ((now >= presale_StartDate && now <= presale_EndDate) ||\n           (now >= publicSale_EndDate && now <= publicSale_EndDate)) &&\n           (currentStage == Stages.PRESALE || currentStage == Stages.PUBLICSALE);\n  }\n\n  function distributeTokens(address[] beneficiaries, uint256[] amounts) public onlyOwner atStage(Stages.FINALAIZED) {\n    for(uint i = 0; i < beneficiaries.length; i++){\n      _deliverTokens(beneficiaries[i], amounts[i]);\n    }\n  }\n\n/*\n  function moveToPublicSale() atStage(Stages.BREAK) public{\n    currentStage = Stages.PUBLICSALE;\n  } */\n\n  function finalizeSale() public {\n    // Mint tokens to founders and partnes\n    //distributeTokens();\n    // Enable token transfer\n    // Finish token minting\n    require(MintableToken(token).finishMinting());\n    // Token ownership?\n    //require(MintableToken(token).transferOwnership(owner));\n  }\n\n\n  //OVERRIDES\n\n  /**\n   * @dev Validation of an incoming purchase. Use require statements to revert state when conditions are not met. Use super to concatenate validations.\n   * @param _beneficiary Address performing the token purchase\n   * @param _weiAmount Value in wei involved in the purchase\n   */\n  function _preValidatePurchase(address _beneficiary, uint256 _weiAmount) timedTransition internal {\n    //require(_beneficiary != address(0)); - CHECK FOR WHITELIST INSTEAD\n\n    require(saleOpen(), \"Sale is Closed\");\n    //require(_weiAmount >= minimumContribution, \"Contribution below minimum\");\n\n    // Check for edge cases\n    uint256 acceptedValue = _weiAmount;\n    if(contributions[msg.sender].add(acceptedValue) > maximumContribution){\n      changeDue = contributions[msg.sender].add(acceptedValue).sub(maximumContribution);\n      acceptedValue = acceptedValue.sub(changeDue);\n    }\n    uint256 currentCap = getCurrentCap();\n    if(weiRaised.add(acceptedValue) > currentCap){\n      changeDue = changeDue.add(weiRaised.add(acceptedValue).sub(currentCap));\n      acceptedValue = _weiAmount.sub(changeDue);\n      capReached = true;\n    }\n    require(acceptedValue >= minimumContribution, \"Contribution below minimum\");\n  }\n\n  /**\n   * @dev Override to extend the way in which ether is converted to tokens.\n   * @param _weiAmount Value in wei to be converted into tokens\n   * @return Number of tokens that can be purchased with the specified _weiAmount\n   */\n  function _getTokenAmount(uint256 _weiAmount) internal view returns (uint256 amount) {\n    amount = (_weiAmount.sub(changeDue)).mul(rate);\n    if(currentStage == Stages.PRESALE){\n      amount = amount.add(amount.mul(20).div(100));\n    }\n  }\n\n  /**\n   * @dev Validation of an executed purchase. Observe state and use revert statements to undo rollback when valid conditions are not met.\n   * @param _beneficiary Address performing the token purchase\n   * @param _weiAmount Value in wei involved in the purchase\n   */\n  function _postValidatePurchase(address _beneficiary, uint256 _weiAmount) internal {\n    if(capReached && currentStage == Stages.PRESALE){\n      //moveToPublicSale(); //MoveToBreak\n    } else if(capReached && currentStage == Stages.PUBLICSALE){\n      finalizeSale();\n    }\n    //Triggers for reaching cap\n    weiRaised = weiRaised.sub(changeDue);\n    uint256 change = changeDue;\n    changeDue = 0;\n    capReached = false;\n    _beneficiary.transfer(change);\n  }\n\n  /**\n   * @dev Override for extensions that require an internal state to check for validity (current user contributions, etc.)\n   * @param _beneficiary Address receiving the tokens\n   * @param _weiAmount Value in wei involved in the purchase\n   */\n  function _updatePurchasingState(address _beneficiary, uint256 _weiAmount) internal {\n    contributions[_beneficiary] = contributions[_beneficiary].add(_weiAmount.sub(changeDue));\n  }\n\n\n}\n",
  "sourcePath": "/home/jgcarv/Dev/Ethereum/Solidified/Crowdsale/Smart-Contracts/contracts/TokenSale.sol",
  "compiler": {
    "name": "solc",
    "version": "0.4.24+commit.e67f0147.Emscripten.clang"
  },
  "schemaVersion": "2.0.0",
  "updatedAt": "2018-05-29T19:24:11.265Z"
}